:020000040800F2
:100000000080072445070008814801088548010849
:1000100000000000000000000000000000000000E0
:10002000000000000000000000000000AD480108D2
:10003000000000000000000045570108815501083C
:100040008D0700088F070008910700089307000834
:100050009507000897070008990700089B07000804
:100060009D0700089F070008A1070008A3070008D4
:10007000A5070008A7070008A9070008AB070008A4
:10008000AD070008AF070008B1070008B307000874
:10009000B5070008B7070008B9070008BB07000844
:1000A000BD070008BF070008C1070008C307000814
:1000B000C5070008C5480108C9070008CB070008A4
:1000C000CD070008CF070008D1070008D3070008B4
:1000D000D5070008D7070008D9070008DB07000884
:1000E000DD070008DF0700088B070008E1070008AC
:1000F000E3070008E5070008E7070008E90700082C
:10010000EB070008B5480108EF070008F1070008F1
:10011000F3070008F5070008F7070008F9070008CB
:10012000FB070008FD070008FF070008010800089A
:100130000308000805080008070800080908000867
:100140008B0700088B0700088B0700088B07000847
:100150000B0800080D0800080F0800081108000827
:1001600013080008150800081708000819080008F7
:100170001B0800081D0800081F08000821080008C7
:1001800023080008B14801082708000829080008CA
:100190002B080008E94801082F080008310800086A
:1001A0003308000835080008370800083908000837
:1001B0003B0800083D0800083F0800084108000807
:1001C00043080008450800084708000849080008D7
:1001D0004B0800084D0800084F08000851080008A7
:1001E0005308000855080008570800085908000877
:1001F0005B0800085D0800085F0800086108000847
:100200006308000865080008670800086908000816
:100210006B0800086D080008D9480108710800083B
:100220007308000875080008770800088B070008A5
:10023000790800087B0800088B0700087D08000883
:100240007F08000881080008830800088508000866
:1002500087080008890800088B0800088D08000836
:100260008F08000891080008930800089508000806
:1002700097080008990800089B0800089D080008D6
:100280009F0800088B070008A10800088B070008DA
:080290008B070008A308000819
:10029800244BD3F88830234A43F47003C2F88830DB
:1002A800214B1B68204A43F0010313601E4B0022B8
:1002B8001A611D4B1A681C491C4B13400B601A4BE2
:1002C80000229A61184B0022DA61174B00221A6249
:1002D800154B00229A62144B0022DA62124B00225C
:1002E8001A63114B00225A630F4B00229A630E4B7C
:1002F8000022DA630C4B00221A640B4B00225A646A
:10030800094B1B68084A23F480231360064B00221C
:100318001A66074B01221A60024B4FF000629A607E
:1003280000BF704700ED00E0004402587FEDF6EA98
:10033800088100518AB002230893002307930223FF
:10034800069300230593002304934FF000030993B9
:100358009D4B1B6903F03803182B00F2148101A28E
:1003680052F823F0D10300088F0500088F05000814
:100378008F0500088F0500088F0500088F05000805
:100388008F050008E70300088F0500088F0500089F
:100398008F0500088F0500088F0500088F050008E5
:1003A8008F050008EF0300088F0500088F05000877
:1003B8008F0500088F0500088F0500088F050008C5
:1003C8008F050008F70300087F4B1B68DB0803F064
:1003D80003037E4A22FA03F37D4A1360D7E07C4B7D
:1003E8007C4A1A60D3E07A4B7B4A1A60CFE0764B9E
:1003F8009B6A03F003030793734B9B6A1B0903F083
:100408003F030693704BDB6A03F0010305936E4BC1
:100418005B6BDB08C3F30C03059A02FB03F307EEDF
:10042800903AF8EE677ACDED037A079B012B30D02E
:10043800079B002B03D0079B022B4BD06BE0624B32
:100448001B68DB0803F00303604A22FA03F30493F2
:10045800049A069BB2FBF3F307EE903AB8EE677A7C
:10046800594B1B6BC3F3080307EE903AF8EE676A23
:100478009DED036ADFED595AC6EE257A76EEA77A26
:10048800F7EE006A77EEA67A67EE277ACDED097A5D
:1004980062E0504A069BB2FBF3F307EE903AB8EEDF
:1004A800677A494B1B6BC3F3080307EE903AF8EEE3
:1004B800676A9DED036ADFED495AC6EE257A76EE46
:1004C800A77AF7EE006A77EEA67A67EE277ACDED7F
:1004D800097A41E0404A069BB2FBF3F307EE903AF3
:1004E800B8EE677A384B1B6BC3F3080307EE903AF4
:1004F800F8EE676A9DED036ADFED385AC6EE257A95
:1005080076EEA77AF7EE006A77EEA67A67EE277A94
:10051800CDED097A20E02F4A069BB2FBF3F307EEF4
:10052800903AB8EE677A284B1B6BC3F3080307EEC3
:10053800903AF8EE676A9DED036ADFED285AC6EE39
:10054800257A76EEA77AF7EE006A77EEA67A67EE56
:10055800277ACDED097A00BF1B4B1B6B5B0A03F0B2
:100568007F0301330893089B07EE903AB8EE677A49
:10057800DDED096AC6EE877AFCEEE77A17EE902A77
:10058800134B1A6003E0124B124A1A6000BF0E4B5D
:100598009B6903F470624FF480730193019B93FA93
:1005A800A3F30093009BB3FA83F322FA03F30C4AF4
:1005B800D35C0293064B1A68029B22FA03F3044A9F
:1005C800136000BF0AB07047004402580090D0037F
:1005D8000000002400093D0040787D01000000462D
:1005E800A4080008354936480A1A02D00722914360
:1005F8008D46344934480A1A06D00722914381F3BC
:100608000988022282F3148830483149314A00F0BF
:1006180043F831483149324A00F03EF8314832490E
:10062800324A00F039F832483249334A00F034F897
:1006380032483349334A00F02FF833483349344AB3
:1006480000F02AF833483449344A00F025F8344891
:100658003449002200F02BF833483449002200F0D6
:1006680026F833483349091A082903DB00220260B7
:10067800043001601F482049884205D002680430D0
:1006880003B4904703BCF7E700208646EC460020F9
:100698000021294A9047FEE7884207D0521A05D020
:1006A800037801300B700131013AF9D17047884263
:1006B80002D002700130FAE770470000008007247A
:1006C800006007240000082400800724D493010850
:1006D8000000002480000024B4080008B4080008C2
:1006E800BC8B0108D49301080000002400000024FA
:1006F800BC8B0108BC8B0108E48B0108BC8B01088A
:10070800BC8B0108BC8B0108E48B0108E48B010851
:10071800D49301085494010820D3022420D302243E
:100728008000002414D3022414D3022420D30224EA
:1007380020D3022420D30424F5230008094820F0FC
:100748000700854608488047084809490160094864
:10075800016841F470010160BFF34F8FBFF36F8FE1
:10076800FFF740BF000008249902000808ED00E0E8
:100778000000000888ED00E0FEE7FEE7FEE7FEE780
:10078800FEE7FEE7FEE7FEE7FEE7FEE7FEE7FEE739
:10079800FEE7FEE7FEE7FEE7FEE7FEE7FEE7FEE729
:1007A800FEE7FEE7FEE7FEE7FEE7FEE7FEE7FEE719
:1007B800FEE7FEE7FEE7FEE7FEE7FEE7FEE7FEE709
:1007C800FEE7FEE7FEE7FEE7FEE7FEE7FEE7FEE7F9
:1007D800FEE7FEE7FEE7FEE7FEE7FEE7FEE7FEE7E9
:1007E800FEE7FEE7FEE7FEE7FEE7FEE7FEE7FEE7D9
:1007F800FEE7FEE7FEE7FEE7FEE7FEE7FEE7FEE7C9
:10080800FEE7FEE7FEE7FEE7FEE7FEE7FEE7FEE7B8
:10081800FEE7FEE7FEE7FEE7FEE7FEE7FEE7FEE7A8
:10082800FEE7FEE7FEE7FEE7FEE7FEE7FEE7FEE798
:10083800FEE7FEE7FEE7FEE7FEE7FEE7FEE7FEE788
:10084800FEE7FEE7FEE7FEE7FEE7FEE7FEE7FEE778
:10085800FEE7FEE7FEE7FEE7FEE7FEE7FEE7FEE768
:10086800FEE7FEE7FEE7FEE7FEE7FEE7FEE7FEE758
:10087800FEE7FEE7FEE7FEE7FEE7FEE7FEE7FEE748
:10088800FEE7FEE7FEE7FEE7FEE7FEE7FEE7FEE738
:0C089800FEE7FEE7FEE7FEE7FEE7FEE7F6
:1008A4000000000001020304010203040607080912
:1008B40000B583B01F4B0193019B03221A61019B76
:1008C40003225A61019B1C4A9A61019B1B4ADA610B
:1008D400019B4FF400721A62019B00229A62019BF1
:1008E40000225A62019B0022DA62019B124A1A66B4
:1008F400019B134A5A66019B10229A66019B0022AF
:100904001A67019B0022DA66019B00225A67019B49
:1009140007330C49184617F022FC019B0A49184674
:1009240017F01DFC019B20229A7100BF03B05DF8F3
:1009340004FB00BF80000024E48B0108280100248C
:1009440028030024F08B0108F48B010800B589B05A
:1009540003900291019200230693039BDB680593A5
:10096400039B1B690493049A059B9A4205D9049A34
:10097400059BD31A013B079307E0039B9A680499EC
:10098400059BCB1A1344013B0793039B9A68059B71
:10099400D31A079A934228BF13460793079A019BD9
:1009A400934228BF13460793039B5A68059B13443D
:1009B400079A0299184617F09DF9069A079B134463
:1009C4000693029A079B13440293019A079BD31A36
:1009D4000193059A079B13440593039B9B68059A0F
:1009E4009A4201D100230593039B059ADA60019B87
:1009F400002BB5D1069B184609B05DF804FB00B581
:100A040089B0039002910192039BDB680793039BD7
:100A14009A68079BD31A0693069A019B9A420ED9A9
:100A2400039B5A68079B1344019A0299184617F0CE
:100A340061F9079A019B1A44039BDA601AE0069B4A
:100A44000593039B5A68079B1344059A0299184619
:100A540017F050F9019A069BD31A0593039B586823
:100A6400029A069B1344059A194617F043F9039B0F
:100A7400059ADA6000BF09B05DF804FB86B0019006
:100A8400019B1B690493019BDB680393049A039BFA
:100A94009A4208D8019B9A68039BD21A049B134478
:100AA400013B059304E0049A039BD31A013B05938D
:100AB400059B184606B0704700B58BB003900291B1
:100AC40001923C4B1B78002B01D1FFF7F1FE039AF6
:100AD40013465B001344DB006033364A1344069329
:100AE400029B0793069B1B690893069BDB6805938F
:100AF40000230993089A059B9A422AD9069B9A686F
:100B0400089BD31A0493049A019B934228BF13466B
:100B14000493069B5A68089B1344049A1946079841
:100B240017F0E8F8099A049B13440993079A049B65
:100B340013440793019A049BD31A0193089A049BC4
:100B440013440893069B9B68089A9A4201D1002398
:100B54000893059A089BD31A0493049A019B934221
:100B640028BF13460493049B002B18D0069B5A6895
:100B7400089B1344049A1946079817F0BBF8099A7E
:100B8400049B13440993079A049B13440793019A03
:100B9400049BD31A0193089A049B13440893099B5A
:100BA400002B02D0069B089A1A61099B18460BB0C9
:100BB4005DF804FB8000002400B587B00390029127
:100BC4000192EFF311834FF0200181F31188059313
:100BD400019A02990398FFF76FFF0490059B83F332
:100BE4001188049B184607B05DF804FB00B589B072
:100BF400039002910192029B0693039B5A1C134695
:100C04005B001344DB001F4A13440593059B5B6997
:100C1400012B17D0002B02D0022B23D029E00598FA
:100C2400FFF72CFF0490049A019B9A4202D20023FE
:100C3400079321E0019B0793019A06990598FFF712
:100C4400DEFE19E00598FFF719FF0490019A049B52
:100C5400934228BF13460793079A06990598FFF70E
:100C6400CEFE09E0019A06990598FFF76FFE0790FA
:100C740002E00023079300BF079B184609B05DF804
:100C840004FB00BF8000002400B587B003900291EC
:100C940001920D4B1B78002B01D1FFF709FEEFF3F6
:100CA40011834FF0200181F311880593019A029971
:100CB4000398FFF79BFF0490059B83F31188049B23
:100CC400184607B05DF804FB8000002400B585B029
:100CD40001900091009817F064FA0390039A009928
:100CE4000198FFF7D1FF0346184605B05DF804FBF1
:100CF40000B583B00B4B1B78002B01D1FFF7D8FD57
:100D0400084B1B6F0093074BDB6E009A9A4202D08C
:100D14000123019301E000230193019B184603B0D2
:100D24005DF804FB8000002408B5FFF7C1FD00BF97
:100D340008BD0FB400B5A3B025AB009301A8009B78
:100D4400249A802116F0A3FF2190219A01AB194621
:100D54000020FFF799FF219B184623B05DF804EBB0
:100D640004B0704700B583B0019001990020FFF7EB
:100D7400ADFF0346184603B05DF804FB024B4FF485
:100D84007A721A6000BF70475C03002482B01D4B66
:100D94001B680193019B23F03F030193019B1B6894
:100DA400194A1360184B1B68173B00221A70164B24
:100DB4001B68023B08221A70134B1B68033B122268
:100DC4001A70114B1B68183B00221A700E4B1B68DB
:100DD400163B00221A700C4B1B68013B52221A70FE
:100DE400094B1B68153B1A46084B1A60064B1B68D7
:100DF400203B1A46064B1A60064B00221A6000BFBD
:100E040002B0704708ED00E04403002458030024B6
:100E1400540300244803002400B583B00023019345
:100E2400802072B680F3118862B600BF00BF084B01
:100E34001B68002B04D1064B01221A600123019385
:100E440015F0B4F8019B184603B05DF804FB00BF2D
:100E540060030024024B00221A6000BF704700BFE9
:100E64006003002400B587B003468DF807300023E3
:100E740005931F4B1B680493049B9DF807201A706D
:100E8400049B01330493059B01330593194B1B68A1
:100E9400002B17D0059B112B11DC164B1B689847B0
:100EA4000390039B002B0CDB039BDAB2049B1A70A8
:100EB400049B01330493059B01330593EAE700BFC8
:100EC40000E000BF802072B680F3118862B600BFD4
:100ED40000BFFFF753FF084B1B68163B059AD2B2BD
:100EE4001A7015F063F800BF07B05DF804FB00BF8B
:100EF40058030024400300244403002400B583B0B5
:100F040003468DF80730244B1B78002B3AD0234B33
:100F14001B68002B04D1FFF739FF204B01221A6014
:100F24001F4B1B68173B1B78DBB2002B23D01C4BD9
:100F34001B68163B1B78DBB2002B14D1FFF76CFF48
:100F44000346002B07D09DF807301846FFF78AFFA9
:100F5400FFF780FF1CE0134B01221A60124A9DF830
:100F64000730137014E00F4B01221A600E4A9DF8EB
:100F7400073013700CE014F0EDFF15F033FE14F09D
:100F8400F1FF05E014F0E6FF15F02CFE14F0EAFF83
:100F940000BF03B05DF804FBE0D202245003002438
:100FA40044030024480300244C03002482B001902D
:100FB400024A019B136000BF02B07047380300244B
:100FC40082B00190024A019B136000BF02B07047D7
:100FD4003C03002482B00190024A019B136000BFCD
:100FE40002B070474003002400B583B0019001981B
:100FF40016F0C0F90346184603B05DF804FB00B5CB
:1010040083B0019000910099019816F0D1FB03463A
:10101400184603B05DF804FB00B583B00190019855
:1010240016F084FA0346184603B05DF804FB00B5D5
:1010340087B0039002910192029A039BD31A0593FD
:10104400059B002B08D0059A0399019816F0F1FD31
:101054000246059B134400E0019B184607B05DF867
:1010640004FB82B001900091009B184602B07047C7
:1010740000B585B00190019817F0C4F803460393B6
:10108400039B002B05D10548FFF76CFE0120FFF7F9
:1010940004FB039B184605B05DF804FBFC8B0108B8
:1010A40000B583B00190019817F0C4F800BF03B0F5
:1010B4005DF804FB00B583B001900198FFF7D8FFF9
:1010C4000346184603B05DF804FB00B583B00190F5
:1010D40000910198FFF7E4FF00BF03B05DF804FB43
:1010E40000B583B00190019817F05BF803461846E9
:1010F40003B05DF804FB82B001900091009B1A7864
:10110400019B1A7000BF02B0704700B585B0039010
:1011140002910192029A039B9A420DD0029A039B78
:10112400D31A1A460399019816F0E4FD0146029A6F
:10113400039BD31A0B4400E0019B184605B05DF8ED
:1011440004FB00B585B0039002910192019A0299C3
:101154000398FFF7DAFF0346184605B05DF804FB71
:1011640000B583B001900198FFF7FCFD0CF092FAF2
:1011740000BF03B05DF804FB00B583B00190019893
:10118400FFF7F0FD0CF086FA00BF03B05DF804FB36
:1011940000B583B00190019B184601F025FE019B28
:1011A400184603B05DF804FB10B584B00190019CAF
:1011B40003AB184601F0EFFD03AB1946204601F0DE
:1011C400F6FD03AB184601F0ECFD019B184604B094
:1011D40010BD000082B00190044B1B780133DAB2D9
:1011E400024B1A7000BF02B0704700BFE80400242D
:1011F40082B00190044B1B78013BDAB2024B1A70A7
:1012040000BF02B0704700BFE804002400B583B0FB
:101214000190019801F0B3FD034619460348FFF716
:1012240088FD00BF03B05DF804FB00BF248C0108F7
:1012340000B583B00190074B1B680133054A136066
:10124400044B1B68184600F059F800BF03B05DF862
:1012540004FB00BFEC04002400B583B00190074BED
:101264001B68013B054A1360044B1B68184600F0D9
:1012740045F800BF03B05DF804FB00BFEC04002494
:1012840000B589B0019002AB0199184601F00AFE3D
:1012940002AB184600F024F90246074B1A6002AB71
:1012A4001846FFF775FF044B1B68184600F026F834
:1012B40000BF09B05DF804FBEC04002400B58BB05A
:1012C400019003AB0199184601F0ECFD03AB1846FD
:1012D40000F006F9099003AB1846FFF759FF064BD7
:1012E4001B68099A92B21146184607F09CFF00BF8A
:1012F4000BB05DF804FB00BFFC04002410B5ADF591
:10130400067D01AB1860334B1868324B1B681B68B1
:1013140014331C6802AA01A901230968A04701AA81
:1013240001AB126819682C48FFF703FD2B48FFF73F
:1013340000FD00238593859B1F2B46DC859B9B002A
:1013440002AA9B001344849385992548FFF7F1FC76
:1013540000238393839B0F2B0CDC849B1B781946FF
:101364002048FFF7E6FC849B01338493839B01337D
:101374008393EFE7859B9B0002AA9B00134484930D
:1013840000238293829B0F2B18DC849B1B781F2BDA
:101394000AD9849B1B787D2B06D8849B1B7819461D
:1013A4001148FFF7C6FC02E01048FFF7C2FC849B1B
:1013B40001338493829B01338293E3E70C48FFF764
:1013C400B8FC859B01338593B5E700BF0DF5067D19
:1013D40010BD00BFF4040024348C01084C8C0108B7
:1013E400848C0108908C0108988C01089C8C01085D
:1013F400A08C010882B00190024B01221A7000BF38
:1014040002B070472CAE012482B00190024B00223E
:101414001A7000BF02B070472CAE012482B0019054
:10142400044B1B7883F00103DAB2024B1A7000BF3D
:1014340002B070472CAE012400B58BB0019003AB11
:101444000199184601F02EFD03AB184600F048F848
:1014540003468DF8273003AB1846FFF799FE074A79
:101464009DF827301370064B00221A70054B00229A
:101474001A7000BF0BB05DF804FB00BF7AAE012404
:1014840078AE012479AE012482B003468DF807308A
:101494009DF80730094A1268B3FBF2F102FB01F22E
:1014A4009B1ADAB2064B1A70064B00221A70064BCE
:1014B40000221A7000BF02B0704700BFF00400247D
:1014C4007AAE012478AE012479AE012482B0019071
:1014D400024A019B136000BF02B07047F404002469
:1014E40010B584B001900023039300230293019864
:1014F40001F0FEFC0246029B934234BF0123002309
:10150400DBB2002B44D00299019801F0FCFC0346A5
:101514001B782F2B09D90299019801F0F4FC03469A
:101524001B78392B01D8012300E00023002B0BD0BA
:10153400039B1C010299019801F0E5FC03461B780A
:10154400303B234303931FE00299019801F0DBFC35
:1015540003461B78402B09D90299019801F0D3FC6A
:1015640003461B78462B01D8012300E00023002BFF
:101574000AD0039B1C010299019801F0C4FC0346A4
:101584001B78373B23430393029B01330293AEE75B
:10159400039B184604B010BD0000000000B585B0E0
:1015A400019000910099614BA3FB0123DA081346D3
:1015B4009B0013445B00CA1A002A44D15C4B1B787D
:1015C400E52B08D95B4BF6221A705B4B0A221A7082
:1015D4005A4B00221A705A4B1B78E52B08D9574BEB
:1015E4000A221A70544BF6221A70524B00221A70B7
:1015F400544B1B78E52B08D9504BF6221A704D4BEF
:101604000A221A704C4B00221A704E4B1A784B4B1C
:1016140093F90030DBB21344DAB24A4B1A70484BE8
:101624001A78454B93F90030DBB21344DAB2444BD9
:101634001A703F4B1A783F4B93F90030DBB21344D6
:10164400DAB23B4B1A70404B0393009B07EE903A7F
:10165400F8EE677A039917EE900AFFF7D0FC06EECE
:10166400900A9DED037AC6EE877AB7EEE77A9FED8E
:101674002B6B27EE067BF7EEC77B344BC3ED007A6A
:10168400324B1B681846FFF7C7FC07EE900AB7EE0B
:10169400E77AB7EE006B37EE066BB0EE005B86EED2
:1016A400057B9FED206B27EE067BFCEEC77B17EED8
:1016B400903A1AB2019B1A80244B1B681846FFF714
:1016C40093FC07EE900AB7EEE77AB7EE006B37EEBD
:1016D400066BB0EE005B86EE057B9FED126B27EE8A
:1016E400067BFCEEC77B17EE903A1AB2019B5A8038
:1016F400019B00221A7100225A71114B1A78019B26
:10170400DA71104B1A78019B9A71094B1A78019B74
:101714001A7200BF019805B05DF804FB1F85EB51F8
:10172400B81E194000000000E0FFEF40CDCCCCCC47
:101734000B0000247CAE01247BAE012409000024AC
:101744000A000024080000240000964480AE01240E
:101754000000000000B583B0019000914D4BD3ED23
:10176400007AB7EEE77A9FED416B37EE067BF7EE32
:10177400C77B484BC3ED007A474BD3ED007AB7EEF5
:10178400E77A9FED3C6B37EE067BF7EEC77B424B67
:10179400C3ED007A3F4BD3ED007AB7EEE77A9FEDC5
:1017A400376BB4EEC67BF1EE10FA03DD394B4FF024
:1017B40000021A60384BD3ED007AB7EEE77A9FED5A
:1017C400316BB4EEC67BF1EE10FA03DD324B4FF011
:1017D40000021A60019B00229A71019BFF221A7277
:1017E400019BFF22DA712C4B1B681846FFF714FC8F
:1017F40007EE900AB7EEE77AB7EE006B37EE066BAA
:10180400B0EE005B86EE057B9FED206B27EE067B3A
:10181400FCEEC77B17EE903A1AB2019B1A801D4B5F
:101824001B681846FFF7E0FB07EE900AB7EEE77A6D
:10183400B7EE006B37EE066BB0EE005B86EE057B11
:101844009FED126B27EE067BFCEEC77B17EE903AFA
:101854001AB2019B5A80019B00221A7100225A710C
:1018640000BF019803B05DF804FB00BFFF8D504634
:101874006FCBBA3FFF8D50466FCBAA3F1F85EB510C
:10188400B81E19401F85EB51B81E29400000000006
:10189400E0FFEF4084AE012488AE012410B584B08B
:1018A4000190019C03AB184601F075FA03AB19468D
:1018B400204601F07CFA03AB184601F072FA019B52
:1018C400184604B010BD00B583B00190019B1846C2
:1018D400FFF75EFC019B184603B05DF804FB0000B3
:1018E400F0B5ABB011901091A74B1B78BFF35B8F91
:1018F400DBB203F00103002B0CBF01230023DBB296
:10190400002B15D0A0480BF0C7FE0346002B14BFD4
:1019140001230023DBB2002B0AD09C48FFF7BEFF53
:1019240099480BF0C1FE9A4A9A49984816F092F8E1
:10193400994B1B78BFF35B8FDBB203F00103002BE1
:101944000CBF01230023DBB2002B15D092480BF00F
:10195400A3FE0346002B14BF01230023DBB2002B9C
:101964000AD08E48FFF79AFF8B480BF09DFE884AF9
:1019740088498A4816F06EF889498A4814F0E2F9D1
:10198400894B1B7883F00103DBB2002B00F0BD8090
:10199400864B00221A600023299313AB1846FFF7E5
:1019A4007DFF834B1B781A461346DB009B1A9B0072
:1019B400804A1A4413AB1146184601F0B3FA7E4B21
:1019C400199320231B9300231A93764B1C9313AB78
:1019D40028221946794814F029F90346002B14BF2C
:1019E40001230023DBB2002B03D0012014F028F8DC
:1019F400EDE76B4B1B78002B07D1012014F020F886
:101A04006749684814F09EF9F3E7654B00221A70A1
:101A14006B4B1B6859686B4C08AB674A18460AF055
:101A24009EF8254608AC20686168A268E3680FC583
:101A340020696169A269E3690FC5614B1B685F682E
:101A4400604E6D4606F10C040FCC0FC523682B6065
:101A540096E80E00384609F0A1FD28905A4B1C6800
:101A6400534B1B781A461346DB009B1A9B00514AC2
:101A74001A441DAB1146184601F014FA514B1B8B46
:101A84001A46289B03FB02F31DA9009320234A4A0C
:101A9400204603F041FE1DAB1846FFF779FB464B89
:101AA4002793474B1B685F68464B1B8B454E079338
:101AB4006D46341D0FCC0FC594E8070085E8070078
:101AC4003368424A2799384609F07AFD3D4B1B8B0F
:101AD4001A46289B03FB02F320333D4A1360324B22
:101AE40001221A70374B1B8B1A463A4B1A60394B3A
:101AF4001B682E4A1360384B00221A60374B0422AD
:101B04001A7013AB1846FFF7DEFE344B1B78012B1B
:101B140009D1234B1B78012B05D1214B00221A70CC
:101B24002E4B02221A702D4B1B78022B40F0A480FE
:101B3400234B1B685968234C08AB1F4A18460AF00C
:101B44000EF8254608AC20686168A268E3680FC5F2
:101B540020696169A269E3690FC51A4B1B78492B97
:101B64003ED0184B5B784C2B3AD0164B9B78442BC9
:101B740036D0144BDB78412B32D064232693269B3A
:101B840001332693E9E700BF50C6022428C6022485
:101B9400A4D20224CB1800087CC6022454C6022412
:101BA40024C60224F4C5022478AE01240CC60224FF
:101BB4007AAE0124040500244C080024D430022405
:101BC400FC04002480C60224F8040024F435022412
:101BD40020C6022414C6022410C6022414000024C1
:101BE400984B1B685F68984E6D4606F10C040FCC49
:101BF4000FC523682B6096E80E00384609F0CEFC2A
:101C04002590914B1B8B002B06D1904B00221A6020
:101C14008F4B04221A702FE08E4B1B781A46134602
:101C2400DB009B1A9B008C4A134419468B4801F035
:101C340079F98A4B8A4A9A61834B1B8B1A46259BF6
:101C440003FB02F3854A1362804B1B68834AD3610A
:101C5400824B844A5A6228228049834813F0E6FF63
:101C64000346002B14BF01230023DBB2002B00D05A
:101C7400F1E7774B03221A70754B1B78032B4DD178
:101C84007A4B1B78012B49D1784B00221A70704B88
:101C940004221A70724B24936A4B1B685F686A4B68
:101CA4001B8B694E07936D46341D0FCC0FC594E80A
:101CB400070085E8070033686D4A2499384609F01F
:101CC4007FFC604B1B685F685F4E6D4606F10C0439
:101CD4000FCC0FC523682B6096E80E00384609F038
:101CE4005DFC2390584B1B8B1A46624B1A60564B73
:101CF4001B8B1A46239B03FB02F2544B1B681344B1
:101D0400524A1360504B5A8B4F4B9B8B9A4205D1CE
:101D14004E4B00221A60584B00221A60574B1A6827
:101D2400119853491346DB001344CA18034610683C
:101D3400516818605960127A1A72514B1B68002B53
:101D440062D0504B1A684E4B1B68B2FBF3F2109BE7
:101D5400B3FBF2F102FB01F29A1A4A4B1968484BA1
:101D64001B68B1FBF3F35B089A4202D1464B012294
:101D74001A70444B1A68424B1B68B2FBF3F35A08BF
:101D8400109BB3FBF2F102FB01F29B1A002B3BD137
:101D94002F4B1B78042B37D13C4B01221A70364B46
:101DA4001B680133344A13602A4B1B781A461346C6
:101DB400DB009B1A9B00284A13441946344801F05F
:101DC400B1F8334B264A9A61314B20221A621F4BD9
:101DD4001B682F4AD3612E4B224A5A6228222C496F
:101DE400214813F023FF0346002B14BF01230023D3
:101DF400DBB2002B00D0F1E7144B1B682033134AED
:101E04001360134B01221A701A4B1B685A1E1B4B8A
:101E14001B689A420CD8194B00221A60119B0022AD
:101E2400DA71119B00229A71119B00221A7204E04C
:101E3400124B1B680133114A136000BF11982BB079
:101E4400F0BD00BFFC04002480C6022420C6022486
:101E5400140000247AAE01240405002428C60224B8
:101E64004C080024F4C50224D430022424C60224DD
:101E7400F435022414C6022418C6022410C602240F
:101E84000C000024100000241CC602241DC60224D9
:101E940054C6022410B58CB000230B930B9B013362
:101EA4000B9301238DF80F3002AB1946144813F03D
:101EB40055FE0A90134B1C68029B1A4604AB11464C
:101EC400184600F0EFFF029B9A69029BD869029BB7
:101ED4001B6A04A900930346204603F01DFC04ABCF
:101EE4001846FFF755F9064813F064FE029B5B6A37
:101EF4000DF10F021146184613F064FFD4E700BF3A
:101F0400D4300224F804002410B588B000230793C9
:101F140000238DF81B30FF2013F000FD02463B4BDD
:101F24001A60079B0133079301200AF00DFD079AFD
:101F3400374BA3FB02139B0B4EF6602101FB03F30B
:101F4400D31A002B16D1334B1B78002B12D0324BF3
:101F54001B780133DAB2304B1A702F4B1B781C46B6
:101F64002E4800F0FAFF0346B4FBF3F203FB02F33E
:101F7400E31A002B284B1B781C46284800F0EDFF81
:101F84000346B4FBF3F203FB02F3E31A002B05D17F
:101F9400234B1B78002B01D1012300E00023002BED
:101FA4000FD01F4B01221A701E4B1B781A461E4B72
:101FB4001B689A4205D11C4B00221A60194B00225F
:101FC4001A70154B1B781C46144800F0C6FF0346D4
:101FD400B4FBF3F203FB02F3E31A19460F4800F0D3
:101FE400C7FF03461B686A4607991046984704AB27
:101FF4006A461068516803C3127A1A700B4B1B6847
:1020040004AA1146184607F0CDF884E7D03002241C
:1020140073B2E7452CAE0124E804002430AE012459
:10202400A0C602247AAE0124F0040024FC04002497
:10203400054BD3ED007A9FED057A77EEC77A024B14
:10204400C3ED007A00BF7047A4C60224CDCCCC3DBA
:10205400054BD3ED007A9FED057A77EE877A024B34
:10206400C3ED007A00BF7047A4C60224CDCCCC3D9A
:10207400054BD3ED007A9FED057A77EE877A024B14
:10208400C3ED007A00BF704718000024CDCCCC3DCE
:10209400054BD3ED007A9FED057A77EEC77A024BB4
:1020A400C3ED007A00BF704718000024CDCCCC3DAE
:1020B400064B074A1A60074B4FF000021A60064BA2
:1020C4004FF000021A6000BF704700BF18000024E0
:1020D40000003443A4C60224A8C6022484B001909C
:1020E400F7EE006A9DED017AC6EE877A9FED107ACD
:1020F40067EE877ACDED037ADDED017AFCEEE77ABF
:1021040017EE902A4FF47A7303FB02F3094A136023
:10211400DDED037AFCEEE77A17EE903AADF80A307B
:10212400054ABDF80A30136000BF04B0704700BF11
:1021340000007A44100000242C04004008B50F4B22
:10214400D3ED007AB6EE007A77EE877A0B4BC3EDC7
:10215400007A0A4BD3ED007AB3EE0E7AF4EEC77A26
:10216400F1EE10FA02DB054B054A1A60034B1B68BB
:102174001846FFF7B3FF00BF08BD00BF1C000024D2
:102184000000F04108B50E4BD3ED007AB6EE007AAC
:1021940077EEC77A0A4BC3ED007A094BD3ED007A88
:1021A400F5EEC07AF1EE10FA02D8054B054A1A6032
:1021B400034B1B681846FFF791FF00BF08BD00BF23
:1021C4001C000024CDCCCC3D00BF704700BF70473D
:1021D40008B5054B054A1A60034B1B681846FFF700
:1021E4007DFF00BF08BD00BF1C000024000040416B
:1021F400064B1B680133054A1360044B1B681D2BF7
:1022040002D9024B1E221A6000BF70470C00002442
:10221400064B1B68013B054A1360044B1B68002BEB
:1022240002D1024B00221A6000BF70470C00002448
:1022340000BF704700BF7047024B0F221A6000BFF7
:10224400704700BF0C00002408B5044B1B78013311
:10225400DBB21846FFF718F900BF08BD7AAE0124B7
:1022640008B5044B1B78013BDBB21846FFF70CF9A9
:1022740000BF08BD7AAE012408B50020FFF704F9B9
:1022840000BF08BD00B585B000238DF807300023DA
:102294008DF80F3000238DF8063000238DF80530BB
:1022A4003C48FEF746FD3C4B1B6818460AF0C4FC4C
:1022B4000AF07AFB03468DF80730384B1868384B20
:1022C4001968384B1A68384B1B6806F090FF0AF0FF
:1022D4008DFB03468DF805300AF080FB03468DF82C
:1022E40006309DF8053083F01F038DF80530002378
:1022F4000293029B042B1FDC9DF80520029B42FAEB
:1023040003F303F001030093009B002B10D09DF80E
:10231400063003F003031946244800F03AFE02464F
:10232400029B1946104600F045FE03461B68984779
:10233400029B01330293DCE79DF807209DF80F30E0
:102344009A4221D01A4B00221A701A4B00221A709A
:102354009DF807308DF80F30174B1A789DF80F3021
:102364001344DAB2144B1A70134B1B781A46134BEE
:102374001B68B2FBF3F103FB01F3D31ADAB20E4B81
:102384001A700F4B00221A7041F2883013F058FB78
:1023940089E700BFA48C010800050024FC04002484
:1023A40018000024A4C60224A8C602246CAE01248A
:1023B40078AE012479AE01247AAE0124F00400241D
:1023C400A0C6022408B5FF21024813F0D9FA00BFC1
:1023D40008BD00BF58F0012400B583B00190034844
:1023E40006F07EFA00BF03B05DF804FB10CB0224B4
:1023F40010B5ADF55E7D0BF05BF912F09FFC13F0A8
:10240400DFFD13F0E5F812F0CDFE12F049FD12F0F5
:1024140073FD12F0C7FD12F02FFEFEF785FC09F0E4
:1024240077FFFFF709FF0FAB8E4A1A600AF0C8FA6C
:102434000346012B0CBF01230023DBB2002B03D086
:102444000DAB00225A7002E00DAB00225A700DABA6
:1024540000221A700DAB01229A700DAB5B78012B30
:102464000CD10BAB804A92E8030083E8030009AB6C
:102474007E4A92E8030083E803000BE00BAB7C4A3E
:1024840092E8030083E8030009AB7A4A92E8030068
:1024940083E803000DAB0FAA5A600FAB09AA0C33F3
:1024A40092E8030083E803000FAB0BAA043392E81D
:1024B400030083E8030004AB1A460023136053604F
:1024C4009360D36013610BAB9B881A4604AB1A600C
:1024D40004AB01225A6004AB00229A6004AB0222CE
:1024E400DA600BAB1B6804AA114618460BF09CFB80
:1024F40009AB9B881A4604AB1A6009AB1B6804AA93
:10250400114618460BF090FB022302934FF48043CC
:102514000193594B0093594B64225949594813F07C
:1025240051FA022302934FF4C8730193564B00935C
:10253400564B96225649574813F044FA564B0822F4
:102544000121564813F0F2FB554B1B78002B00F089
:10255400C580022302934FF480430193514B0093AF
:10256400514BC7225149524813F02CFA4FF4A06240
:102574005049514813F0CEFA022005F06FFCDB906D
:10258400DB9B1B6820331B684C49DB9898479C20D5
:1025940015F038FE03461C46DB99204603F038F854
:1025A400DA94474ADA9B1360DB98FEF78FFF20AB7F
:1025B400444A1A6020AB1946434800F00CFD27AB8F
:1025C400184600F0E8FB27AA21AB4049184600F062
:1025D40028FD21A964233E4ADA9803F0BEFC21AB0E
:1025E4001846FEF7D5FD27AB184600F0DAFB0023AA
:1025F400DD93DD9B1D2B71DC3549DD9A1346DB0031
:102604009B1A9B000B4418331B68002B26D0DD9AC1
:102614001346DB009B1A9B002D4A1344184600F016
:10262400AEFB2B49DD9A1346DB009B1A9B000B443F
:1026340018331A68DD9B01462648FEF77AFB264BC1
:102644001B680133244A13600023DC93DC9B632B57
:1026540004DC00BFDC9B0133DC93F7E7DD9B013333
:10266400DD93C6E7E0030024948D01089C8D0108E6
:10267400A48D0108AC8D01088CAE01240D1F000847
:10268400D08C010858F001248CEE01248922000822
:10269400DC8C01081CF00124ACCA0224F4C5022419
:1026A4002DAE0124D0F00124991E0008EC8C010801
:1026B40094F00124F4300224D4300224640300246E
:1026C400F8040024E518000830AE0124F48C010855
:1026D40004050024F88C0108F004002428AB0DAA9A
:1026E40092E8030083E80300942015F08BFD034671
:1026F4001C46B74B1B6828AA06CA204606F0F6FCFF
:10270400B44B1C602C2015F07DFD03461C4620466E
:102714000AF074F9B04B1C60AF4B1C6830AB184620
:1027240000F039FB30AA2AABAC49184600F079FC1A
:1027340037AB184600F02FFB37AA31ABA84918462F
:1027440000F06FFC31AB2AAAA64920460AF04DFAE4
:1027540031AB1846FEF71CFD37AB184600F021FBE1
:102764002AAB1846FEF714FD30AB184600F019FBEF
:10277400994B1C683EAB184600F00DFB3EAA38ABE3
:102784009949184600F04DFC45AB184600F003FB90
:1027940045AA3FAB9549184600F043FC3FAB38AA25
:1027A400934920460AF021FA3FAB1846FEF7F0FCA5
:1027B40045AB184600F0F5FA38AB1846FEF7E8FCCE
:1027C4003EAB184600F0EDFA834B1C684CAB184640
:1027D40000F0E1FA4CAA46AB8649184600F021FC09
:1027E40053AB184600F0D7FA53AA4DAB7F491846AD
:1027F40000F017FC4DAB46AA7F4920460AF0F5F9D4
:102804004DAB1846FEF7C4FC53AB184600F0C9FAAA
:1028140046AB1846FEF7BCFC4CAB184600F0C1FAB8
:102824006D4B1C685AAB184600F0B5FA5AAA54AB63
:102834007249184600F0F5FB61AB184600F0ABFA9C
:1028440061AA5BAB6949184600F0EBFB5BAB54AA89
:102854006B4920460AF0C9F95BAB1846FEF798FCB1
:1028640061AB184600F09DFA54AB1846FEF790FC95
:102874005AAB184600F095FA574B1C6868AB1846DB
:1028840000F089FA68AA62AB5E49184600F0C9FBF9
:102894006FAB184600F07FFA6FAA69AB534918462C
:1028A40000F0BFFB69AB62AA574920460AF09DF9C4
:1028B40069AB1846FEF76CFC6FAB184600F071FA72
:1028C40062AB1846FEF764FC68AB184600F069FA80
:1028D400414B1C6876AB184600F05DFA76AA70ABE3
:1028E4004A49184600F09DFB7DAB184600F053FAA8
:1028F4007DAA77AB3D49184600F093FB77AB70AAED
:10290400434920460AF071F977AB1846FEF740FCBC
:102914007DAB184600F045FA70AB1846FEF738FC5C
:1029240076AB184600F03DFA2B4B1C6884AB184676
:1029340000F031FA84AA7EAB3649184600F071FBE8
:102944008BAB184600F027FA8BAA85AB32491846A0
:1029540000F067FB85AB7EAA304920460AF045F9B2
:1029640085AB1846FEF714FC8BAB184600F019FA39
:102974007EAB1846FEF70CFC84AB184600F011FA47
:10298400154B1C6892AB184600F005FA92AA8CAB62
:102994002349184600F045FB99AB184600F0FBF9B3
:1029A40099AA93AB1C49184600F03BFB93AB8CAA45
:1029B4001C4920460AF019F993AB1846FEF7E8FBC8
:1029C40099AB184600F0EDF98CAB18462CE000BF2B
:1029D400F8040024FC04002400050024208D0108D0
:1029E400288D0108D9110008308D0108388D01089F
:1029F400F5110008548D010811120008588D0108C2
:102A04005D120008608D010835120008688D010808
:102A140085120008708D0108788D0108F9130008EB
:102A24007C8D01080D140008FEF7B2FB92AB18462A
:102A340000F0B7F9A44B1C68A0AB184600F0ABF942
:102A4400A0AA9AABA149184600F0EBFAA7AB184626
:102A540000F0A1F9A7AAA1AB9D49184600F0E1FA3C
:102A6400A1AB9AAA9B4920460AF0BFF8A1AB18462D
:102A7400FEF78EFBA7AB184600F093F99AAB184605
:102A8400FEF786FBA0AB184600F08BF98E4B1C6852
:102A9400AEAB184600F07FF9AEAAA8AB8E49184633
:102AA40000F0BFFAB5AB184600F075F9B5AAAFABA4
:102AB4008749184600F0B5FAAFABA8AA8749204663
:102AC4000AF093F8AFAB1846FEF762FBB5AB1846B5
:102AD40000F067F9A8AB1846FEF75AFBAEAB1846F0
:102AE40000F05FF9784B1C68BCAB184600F053F952
:102AF400BCAAB6AB7A49184600F093FAC3AB1846A1
:102B040000F049F9C3AABDAB7649184600F089FA2A
:102B1400BDABB6AA744920460AF067F8BDAB1846A7
:102B2400FEF736FBC3AB184600F03BF9B6AB1846CC
:102B3400FEF72EFBBCAB184600F033F96B4BC49385
:102B4400C4AB19466A4800F046FA6A4BC593C5AB54
:102B54001946674800F03FFA674BC693C6AB19465F
:102B6400664800F078FA664BC793C7AB19466348CA
:102B740000F071FA634BC893C8AB19465F4800F084
:102B84006AFA614BC993C9AB19465C4800F063FA11
:102B94005E4BCA93CAAB1946584800F05CFA5C4BCA
:102BA400CB93CBAB19465B4800F055FA5A4BCC9308
:102BB400CCAB1946574800F04EFA584BCD93CDABE9
:102BC4001946544800F047FA554BCE93CEAB1946FC
:102BD400504800F040FA534BCF93CFAB19464D48C1
:102BE40000F039FA504BD093D0AB19464F4800F05F
:102BF40032FA4F4BD193D1AB19464C4800F02BFA23
:102C04004C4BD293D2AB1946484800F024FA4A4BB5
:102C1400D393D3AB1946454800F01DFA474BD493E0
:102C2400D4AB1946414800F016FA454BD593D5ABC1
:102C34001946444800F00FFA414BD693D6AB1946D7
:102C4400404800F008FA404BD793D7AB19463D48AB
:102C540000F001FA3D4BD893D8AB1946394800F03F
:102C6400FAF9394BD993D9AB1946364800F0F3F940
:102C74002849374800F015FA2049354800F011FA80
:102C84002A49334800F00DFA2E49314800F009FA78
:102C94000821304810F00AF904212E4810F006F9F2
:102CA40000212C4810F002F92B4810F0A9F88020DC
:102CB40072B680F3118862B600BF00BF274B0122B1
:102CC4001A7012F091FDFEE700050024848D0108BE
:102CD400788D0108211400088C8D01083D1400082A
:102CE400908D0108388D0108C1120008A115000853
:102CF40030AE012459170008552000083CAE0124C9
:102D04007520000895200008B5200008352000082B
:102D1400CD21000848AE0124412100088921000882
:102D2400D5210008D12100083522000854AE012421
:102D3400F5210008152200083D2200083922000868
:102D44004D22000860AE0124652200087D2200089F
:102D54006CAE0124A804002468040024E0D20224F8
:102D640082B001900091009B1A68019B1B689A42F3
:102D740001D2009B00E0019B184602B0704700B5E9
:102D840083B00190019B184600F0B2F9034618463F
:102D940003B05DF804FB82B00190019B184602B0B9
:102DA400704782B00190019B184602B0704700B58D
:102DB40083B001900091019B10220099184600F005
:102DC4009EF9019800F0B3F9019B184603B05DF831
:102DD40004FB00B583B001900198FFF7E2FF019B6B
:102DE400184603B05DF804FB00B583B00190019868
:102DF40000F0ADF9019B14331846FFF7EAFF019B7D
:102E0400184603B05DF804FB82B00190019B18469C
:102E140002B0704782B00190019B184602B070471F
:102E240000B583B001900091019B0099184600F011
:102E3400BFF9019B184603B05DF804FB82B0019012
:102E4400019B184602B0704782B00190019B18465E
:102E540002B0704700B583B001900091019B0099C6
:102E6400184600F0E5F9019B184603B05DF804FB31
:102E740082B00190019B184602B0704782B0019065
:102E8400019B184602B0704700B583B001900091D1
:102E9400019B0099184600F00BFA019B184603B0F9
:102EA4005DF804FB10B584B001900091019C03AB64
:102EB4000099184600F036FA03AB1946204600F094
:102EC4003FFA03AB1846FFF76CFF009B184600F06F
:102ED4000FF90446009B184600F045FA03461A46CB
:102EE4002146019800F046FA019B184604B010BD33
:102EF40000B583B00190019800F060FA03461846CB
:102F040003B05DF804FB00B583B001900091019B10
:102F1400184600F064FA0246009B1344184603B0B6
:102F24005DF804FB10B582B001900091009A019BFA
:102F34009A420ED0009B184600F0DAF80446009B33
:102F4400184600F010FA03461A462146019800F08C
:102F54004DFA019B184602B010BD82B00190019B4E
:102F64005A68019B1B68D31A9B10184602B070471D
:102F740000B583B0019000910099019800F081FAA6
:102F84000099019800F093FA0346184603B05DF8DF
:102F940004FB00B583B0019000910099019800F002
:102FA40095FA0099019800F0ADFA0346184603B06B
:102FB4005DF804FB00B583B001900091009901987D
:102FC40000F0B2FA0099019800F0C4FA03461846DA
:102FD40003B05DF804FB00B587B003900291039B36
:102FE4005A68039B9B689A420BD0039B5B680299C7
:102FF400184600F0BEFA039B5B681A1D039B5A60D7
:103004000BE0039B596805AA012301930123009354
:103014001346029A039800F0BFFA00BF07B05DF8A8
:1030240004FB00B585B0039002910192039B0199C2
:10303400184600F085F90298FEF752F80246029B02
:1030440013441A460299039800F094F9039B184616
:1030540005B05DF804FB00B587B003900291039BB3
:103064005A68039B9B689A420BD0039B5B68029946
:10307400184600F0D2FA039B5B681A1D039B5A6042
:103084000BE0039B596805AA0123019301230093D4
:103094001346029A039800F0D3FA00BF07B05DF814
:1030A40004FB00B587B003900291039B5A68039B0D
:1030B4009B689A420CD0039B5B680299184600F007
:1030C40000FB039B5B6803F10C02039B5A600BE05B
:1030D400039B596805AA0123019301230093134616
:1030E400029A039800F000FB00BF07B05DF804FBF0
:1030F40082B00190019B5B69184602B0704700B52D
:1031040085B0039002910192039A039B1A61039B79
:103114001433039A0299184600F0FCFA01990398B3
:1031240000F009FB039B184605B05DF804FB00B5ED
:1031340083B00190019B184600F03BFB03461946FF
:10314400019800F02BFB00BF03B05DF804FB00B551
:1031540083B00190019800F033FB034683F0010330
:10316400DBB2002B05D0019B5B69002B01D001234E
:1031740000E00023002B0CD0019B03F11400019B01
:103184005969019B1A68019B5B69D31A1A4600F0BE
:1031940024FB00BF03B05DF804FB00B583B00190CD
:1031A4000198FFF737FE019B184603B05DF804FB56
:1031B40000B583B001900091019B00221A60019B2D
:1031C40000225A60019B083300220099184600F03F
:1031D40014FB019B184603B05DF804FB00B583B0F3
:1031E4000190019B1B68002B0DD0019B03F108008B
:1031F400019B1968019B9A68019B1B68D31A9B1059
:103204001A4600F00BFB019B08331846FFF7C5FF75
:10321400019B184603B05DF804FB00B583B0019030
:103224000198FFF711FE019B184603B05DF804FBFB
:1032340000B583B001900091019B00221A60019BAC
:1032440000225A60019B083300220099184600F0BE
:10325400F7FA019B184603B05DF804FB00B583B090
:103264000190019B1B68002B0DD0019B03F108000A
:10327400019B1968019B9A68019B1B68D31A9B10D8
:103284001A4600F0EEFA019B08331846FFF7C5FF13
:10329400019B184603B05DF804FB00B583B00190B0
:1032A4000198FFF7EBFD019B184603B05DF804FBA2
:1032B40000B583B001900091019B00221A60019B2C
:1032C40000225A60019B083300220099184600F03E
:1032D400DAFA019B184603B05DF804FB00B583B02D
:1032E4000190019B1B68002B10D0019B03F1080087
:1032F400019B1968019B9A68019B1B68D31A9B1058
:10330400074A02FB03F31A4600F0CEFA019B083386
:103314001846FFF7C2FF019B184603B05DF804FB93
:10332400ABAAAAAA00B583B001900091009B143304
:103334001946019800F0CDFA019803B05DF804FB3A
:1033440000B583B001900091019A019B1A61019B21
:103354001433019A0099184600F0DCF9019B1846D1
:1033640003B05DF804FB82B00190019B1B69184611
:1033740002B0704700B587B0039002910192019AA0
:10338400029BD31A0593039A059B013319461046F1
:1033940000F0D1F9039B184600F021F803461A46C1
:1033A40001990298FDF7CDFE0246039B1A6103982A
:1033B400FFF7BDFE00BF07B05DF804FB10B582B097
:1033C4000190019B1846FFF7CEFF0446019B184667
:1033D400FFF78EFE0346E31A184602B010BD82B012
:1033E4000190019B5B69184602B0704710B586B026
:1033F400039002910192019A029BD31A05930398B8
:10340400FFF7DCFF0246059B9A422CBF01230023F1
:10341400DBB2002B18D0039B1846FFF7E0FF059B97
:103424001A46029900F05CFA039800F06DFA02461D
:10343400059BD418039800F073FA03461A462146F4
:10344400039800F079FA18E0039B1846FFF7C7FFCA
:1034540004460398FFF7B2FF03461A460299204632
:1034640000F03EFA0398FFF7A9FF0246029B1344BB
:10347400019A1946039800F086FA039B184606B091
:1034840010BD00B583B001900091019B5A68019B67
:103494001B68D31A9B101A46009B934203D3019BCB
:1034A400184600F0E7FA00BF03B05DF804FB00B56E
:1034B40083B001900091019800F0E8FA0246009B65
:1034C4009B001344184603B05DF804FB00B583B0B9
:1034D40001900091019B5A68019B1B68D31A9B10B1
:1034E400074A02FB03F31A46009B934203D3019B52
:1034F400184600F0D3FA00BF03B05DF804FB00BF28
:10350400ABAAAAAA00B583B001900091019800F07B
:10351400D1FA0146009A13465B0013449B000B4406
:10352400184603B05DF804FB00B583B00190009128
:10353400019B5A68019B1B68D31A9B101A46009B77
:10354400934203D3019B184600F0BCFA00BF03B0BA
:103554005DF804FB00B583B001900091019800F080
:10356400BDFA0246009B9B001344184603B05DF865
:1035740004FB00B585B001900091019800F0B5FA04
:1035840000F0B8FA03AB1A460099019800F0B4FAB7
:1035940000BF05B05DF804FB00B589B0039002914B
:1035A400019200930A99039800F0B1FA0346059337
:1035B400039B0833059905AA184600F0E7FA06901C
:1035C400039B1B68069A02991846FDF730FD079085
:1035D400019A0A99079800F0E9FA07909DF82C30AF
:1035E40083F00103DBB2002B07D0039B5B68079ACF
:1035F40019460298FDF71BFD0790039800F0ECFABA
:10360400059B9B00069A1344079A0699039800F0B9
:1036140008FB00BF09B05DF804FB00B585B001905C
:103624000091019800F00EFB00F011FB03AB1A4669
:103634000099019800F00DFB00BF05B05DF804FB94
:1036440000B589B003900291019200930A990398FE
:1036540000F00AFB03460593039B0833059905AA6A
:10366400184600F040FB0690039B1B68069A0299DB
:103674001846FDF7DCFC0790019A0A99079800F0B8
:1036840042FB07909DF82C3083F00103DBB2002B42
:1036940007D0039B5B68079A19460298FDF7C7FC9D
:1036A4000790039800F045FB059B9B00069A134482
:1036B400079A0699039800F061FB00BF09B05DF812
:1036C40004FB00B585B001900091019800F067FB00
:1036D40000F06AFB03AB1A460099019800F066FB00
:1036E40000BF05B05DF804FB00B589B005900491F6
:1036F4000392029307AA9DF82C3001930A9B00932E
:103704001346039A0499059800F063FB00BF09B0BF
:103714005DF804FB00B585B0039002910192029913
:10372400039800F0D6F8039B019A1A60039B18468D
:1037340005B05DF804FB00B583B0019000910198D9
:1037440000F079FB03465A1C009B9A4204D3009B69
:10375400002B01D0012300E00023002B17D0009B95
:10376400102B17D9019B143300996A46184600F0B0
:103774007CFB0246019B5A61019B5A69019B1A61B9
:10378400019B5A69009B1A44019B1A6002E001984C
:1037940000F07CFB00BF03B05DF804FB00B583B010
:1037A40001900091009800F07DFB00BF03B05DF82C
:1037B40004FB82B00190019B1B69184602B070475C
:1037C40082B00190019B5A69019B9A420CBF01236C
:1037D4000023DBB2184602B0704700B585B00390F1
:1037E40002910192029B002B03D001990298FDF7EC
:1037F4006CFC00BF05B05DF804FB00B585B0039018
:10380400029101920299039800F05DFB039B019AD7
:103814001A60039B184605B05DF804FB00B585B03B
:10382400039002910192029B002B05D0019B9B0007
:1038340019460298FDF749FC00BF05B05DF804FB8A
:1038440000B585B00390029101920299039800F0AB
:1038540041FB039B019A1A60039B184605B05DF86F
:1038640004FB00B585B0039002910192029B002BEA
:1038740005D0019B9B0019460298FDF726FC00BF6A
:1038840005B05DF804FB00B585B003900291019288
:103894000299039800F025FB039B019A1A60039B8D
:1038A400184605B05DF804FB00B585B0039002919D
:1038B4000192029B002B08D0019A13465B0013442B
:1038C4009B0019460298FDF700FC00BF05B05DF8A7
:1038D40004FB82B001900091019B184602B070472E
:1038E40000B585B0039002910192019B002B06D094
:1038F400019A0299039814F0FDF9034600E0039B32
:10390400184605B05DF804FB00B583B00190019B37
:103914001846FFF764FD0346184603B05DF804FB40
:1039240000B583B00190019B1846FFF742FF0346A0
:10393400184603B05DF804FB00B585B0039002910E
:103944000192029A019B9A4218D0039B1846FFF7F2
:1039540030FF0246019BD31A01331A46019902989B
:1039640000F0C6FA039B1846FFF723FF0146019AAD
:10397400029BD31A5B42CA18039B1A61029B184626
:1039840005B05DF804FB10B58AB003900291019272
:10399400029A019B9A4268D0019A029BD31A099316
:1039A400039B184600F0B8FA0246099B93422CBFC9
:1039B40001230023DBB2002B34D00999039800F0D3
:1039C400C4FA03460593039B1433059905AA1846C4
:1039D40000F04BFA0890039B1846FFF700FD0446DD
:1039E400039B1846FFF7E5FE0346089A194620464E
:1039F40000F0EBFA0790079A0199029800F0F9FA9F
:103A0400079007990398FFF7C9FE039B1846FFF731
:103A14009EFB0398059B089A1344079A089900F0A3
:103A2400FCFA22E0029B0693069B01330693039B58
:103A34001B6901331A460199069800F0DAFA039BD0
:103A44001A69099B134419460398FFF7A7FE0398C4
:103A5400FFF766FF034602991846FDF74CFB039BEC
:103A64001A69099B1A44039B1A61039B18460AB0FE
:103A740010BD000000B583B001900348FDF770FB52
:103A840000BF03B05DF804FBB48D010882B001905F
:103A9400019B1B68184602B07047000000B583B054
:103AA40001900348FDF75CFB00BF03B05DF804FB25
:103AB400B48D010882B00190019B1B68184602B0C6
:103AC4007047000000B583B001900348FDF748FB40
:103AD40000BF03B05DF804FBB48D010882B001900F
:103AE400019B1B68184602B0704782B001901846CB
:103AF40002B070471846704784B003900291019257
:103B0400029B1A68039B1A6000BF04B0704700B59B
:103B140085B0019000910198FFF71FFA03460293C4
:103B2400019800F08BFA0246029BD21A009B9A423B
:103B340034BF01230023DBB2002B03D0019B1846C2
:103B440000F094FA02AA6B461146184600F09AFA5D
:103B540003461A68029B13440393019800F06EFA1B
:103B64000246039B934203D8029B039A9A4201D2D2
:103B7400012300E00023002B03D0019800F05EFA3B
:103B84000390039B184605B05DF804FB00B587B0AD
:103B940003900291019205AB019A0299039800F0F7
:103BA40080FA0346184607B05DF804FB84B003901E
:103BB40002910192029B002B0AD0019B1A68039B7D
:103BC4001A60029B013B0293039B04330393F1E7C6
:103BD400039B184604B0704700B585B0019002AB52
:103BE4000199184600F06DFA03AB0199184600F0EC
:103BF40078FA03AA02AB1146184600F08DFA019B2D
:103C040003F10800019B1968019B9A68019B1B68DA
:103C1400D31A9B101A46FFF701FE00BF05B05DF8EA
:103C240004FB84B00390029101920093039B029AD7
:103C34001A60039B019A5A60039B009A9A6000BF22
:103C440004B0704782B00190184602B0704718461D
:103C5400704784B0039002910192029B1A68039BFF
:103C64001A6000BF04B0704700B585B001900091A0
:103C7400019800F069FA03460293019800F06FFA84
:103C84000246029BD21A009B9A4234BF01230023AE
:103C9400DBB2002B03D0019B184600F077FA02AA8E
:103CA4006B461146184600F0EDF903461A68029B6C
:103CB40013440393019800F052FA0246039B934283
:103CC40003D8029B039A9A4201D2012300E0002305
:103CD400002B03D0019800F042FA0390039B18468E
:103CE40005B05DF804FB00B587B003900291019222
:103CF40005AB019A0299039800F054FA034618465A
:103D040007B05DF804FB84B0039002910192029B1A
:103D1400002B0AD0019B1A68039B1A60029B013B8B
:103D24000293039B04330393F1E7039B184604B007
:103D3400704700B585B0019002AB0199184600F0B8
:103D440041FA03AB0199184600F04CFA03AA02ABFE
:103D54001146184600F061FA019B03F10800019B2B
:103D64001968019B9A68019B1B68D31A9B101A4619
:103D7400FFF777FD00BF05B05DF804FB84B0039046
:103D8400029101920093039B029A1A60039B019A89
:103D94005A60039B009A9A6000BF04B0704782B0D7
:103DA4000190184602B070471846704700B585B0B8
:103DB400039002910192039B19460C20FDF751F9DF
:103DC40003460299184600F040FA00BF05B05DF8BA
:103DD40004FB00B58DB005900491039202930399FE
:103DE400059800F05FFA0346002B15D007AB039942
:103DF400184600F02AFA0AA907AA9DF83C30019354
:103E04000E9B00930B460499059800F07AFA07ABD1
:103E1400184600F05AFA0BE00BAA9DF83C300193C7
:103E24000E9B00931346039A0499059800F069FACF
:103E34000DB05DF804FB00B585B001904FF0FF3381
:103E44000393019B1433184600F0B0FA034602931F
:103E540003AA02AB11461846FEF782FF03461B680D
:103E6400013B184605B05DF804FB00B587B003902C
:103E74000291019205AB019A0299039800F09DFA10
:103E84000346184607B05DF804FB000000B583B094
:103E940001900348FDF770F900BF03B05DF804FB1F
:103EA400BC8D010800B585B00190019800F095FA29
:103EB40000F098FA03AB1946019800F095FA00BF98
:103EC40005B05DF804FB82B001900091019B184697
:103ED40002B0704782B001900091019B184602B075
:103EE400704782B001900091019B184602B0704760
:103EF40000B585B0039002910192019B002B06D07E
:103F0400019A0299039813F094FE034600E0039B80
:103F1400184605B05DF804FB00B583B00190019824
:103F2400FFF74EFC0346002B06D0019B1A69019B48
:103F3400D31AC3F1100304E0019B1A68019B1B69A7
:103F4400D31A184603B05DF804FB00B585B00190A0
:103F540000910198FFF732FA03460293019800F0AA
:103F64004CFA0246029BD21A009B9A4234BF0123A8
:103F74000023DBB2002B03D0019B1846FFF786FF1A
:103F840002AA6B461146184600F07CF803461A68EC
:103F9400029B134401330393019800F02EFA024666
:103FA400039B934203D8029B039A9A4201D20123B2
:103FB40000E00023002B03D0019800F01EFA0390C8
:103FC400039B184605B05DF804FB00B589B0059065
:103FD4000491039207AA002300931346039A0499B9
:103FE400059800F016FA034600BF184609B05DF8BC
:103FF40004FB00B589B005900491039207AA00233D
:1040040000931346039A0499059800F024FA034692
:1040140000BF184609B05DF804FB84B00390029118
:1040240001920093039B009A1A60039B019A1A6100
:10403400039B029A5A6100BF04B0704700B585B073
:1040440001906FF040430393019B0833184600F03E
:1040540024FA0290029A039B9A4201D2029B00E046
:10406400039B184605B05DF804FB000000B583B05F
:1040740001900348FDF780F800BF03B05DF804FB2E
:10408400B48D010882B001900091019B1A68009BD5
:104094001B689A4201D2009B00E0019B184602B0C3
:1040A400704700B585B00390029101920093019A84
:1040B4000299039800F0F8F90346184605B05DF834
:1040C40004FB00B583B001900091009800F01AFA47
:1040D40003461946019800F01CFA019803B05DF8F4
:1040E40004FB00B583B0019000910098FFF7CEFC6B
:1040F40003461946019800F00CFA019803B05DF8E4
:1041040004FB82B001900091009B1A68019B1A6025
:10411400019B184602B0704700B585B0019000912C
:1041240002AB01991846FFF7ECFF03AB0099184660
:10413400FFF7E7FF03A902AB0022184600F0F3F9EA
:1041440000BF05B05DF804FB82B00190019B5A6882
:10415400019B1B68D31A9B10184602B0704700B528
:1041640085B001906FF040430393019B08331846D8
:1041740000F0F2F90290029A039B9A4201D2029B48
:1041840000E0039B184605B05DF804FB00B583B05E
:1041940001900348FCF7F0FF00BF03B05DF804FB97
:1041A400B48D010800B585B003900291019200938B
:1041B400019A0299039800F0D7F90346184605B00E
:1041C4005DF804FB00B583B001900091009800F005
:1041D400F9F903461946019800F0FBF9019803B078
:1041E4005DF804FB00B583B0019000910098FFF7DF
:1041F40075FC03461946019800F0EBF9019803B0E9
:104204005DF804FB82B001900091009B1A68019B49
:104214001A60019B184602B0704700B585B0019042
:10422400009102AB01991846FFF7ECFF03AB00992C
:104234001846FFF7E7FF03A902AB0022184600F077
:10424400D2F900BF05B05DF804FB30B585B001902C
:104254000091019C0098FFF777FF054602AB009997
:10426400184600F0D9F902AB1A462946204600F058
:10427400E1F902AB1846FEF7E7FD009800F006FAF4
:104284000446009800F009FA0146019B1A6803AB42
:10429400204600F009FA0246019B5A60019B184629
:1042A40005B030BD82B001900091019B1B68009A5B
:1042B4009A4206D3019B5B68009A9A4201D2012379
:1042C40000E00023184602B0704700B585B00190A5
:1042D40002AB01991846FFF775FF03AB0199184625
:1042E400FFF780FF03AA02AB11461846FFF795FFBC
:1042F400019B1846FEF7B2FF019B184605B05DF816
:1043040004FB30B58FB00590049103920293129987
:10431400059800F0D9F903460793059B08330799DC
:1043240007AA184600F00FFA0C900C9B0D93059BFE
:10433400186809AB00932B460C9A049900F014FA00
:104344000D90129B012B07D103990D98FFF7B9F932
:104354000D9B0C330D9305E0039A12990D9800F010
:104364002BFA0D909DF84C3083F00103DBB2002B47
:1043740009D0059B59680BAB009323460D9A04980A
:1043840000F0F2F90D90059800F032FA079A1346FE
:104394005B0013449B001A460C9B13440D9A0C9922
:1043A400059800F04FFA00BF0FB030BD82B0019005
:1043B4004FF0FF33184602B0704700B585B0039044
:1043C400029101920093019A0299039800F04CFA29
:1043D4000346184605B05DF804FB82B00190184608
:1043E40002B070471846704782B001900091019B5B
:1043F40000221A7000BF02B0704700B583B001906C
:10440400019B1846FFF717FD0346184603B05DF8F5
:1044140004FB00B587B00390029101920093019BC5
:104424000593029A039BD31A0493049B002B0DDD7E
:104434000399059800F044FA039B01330393059B09
:1044440001330593049B013B0493EEE7059B184657
:1044540007B05DF804FB00B587B0039002910192A8
:104464000093019B0593029A039BD31A0493049B24
:10447400002B0DDD0399059800F022FA039B01330C
:104484000393059B01330593049B013B0493EEE7DF
:10449400059B184607B05DF804FB82B001906FF0ED
:1044A4004043184602B0704700B587B003900291AC
:1044B40001920398FFF7F1FF0246029B93428CBFDF
:1044C40001230023DBB2002B05D00D48FCF74AFC86
:1044D4000120FCF7E2F8029B002B0CD0029B9B000E
:1044E40005930598FCF7E6FD0490059B9A08019B4B
:1044F4001A60049B00E00023184607B05DF804FB33
:10450400FC8B010882B00190019B5B68184602B0E5
:10451400704782B001900091019B009A1A60019B40
:10452400184602B0704700B589B003900291019219
:1045340005AB03991846FFF7E4FD06AB029918464C
:10454400FFF7DFFD07AB06A905A8019A00F0CBF938
:1045540000BF09B05DF804FB82B001906FF04043E6
:10456400184602B07047000000B587B0039002916E
:1045740001920398FFF7F0FF0246029B93428CBF1F
:1045840001230023DBB2002B05D00D48FCF7EAFB26
:104594000120FCF782F8029B002B0CD0029B9B00AD
:1045A40005930598FCF786FD0490059B9A08019BEA
:1045B4001A60049B00E00023184607B05DF804FB72
:1045C400FC8B010882B00190019B5B68184602B025
:1045D400704782B001900091019B009A1A60019B80
:1045E400184602B0704700B589B003900291019259
:1045F40005AB03991846FFF705FE06AB029918466A
:10460400FFF700FE07AB06A905A8019A00F073F9AD
:1046140000BF09B05DF804FB00B583B001900091C0
:10462400009B083319460198FFF754FC019803B026
:104634005DF804FB00B585B0039002910192039BE1
:1046440000221A60039B00225A60039B0833002255
:1046540001991846FFF7F4F8039B0833029902AA5C
:104664001846FFF740FB0246039B1A60039B1A6837
:10467400039B5A60039B1A68029B9B001A44039B8A
:104684009A60039B184605B05DF804FB82B0019064
:10469400019B1B68184602B0704782B00190019BD1
:1046A4005B68184602B0704700B585B0039002916C
:1046B40001920093019A02990398FCF726FD0346A0
:1046C400184605B05DF804FB00B585B00190009173
:1046D400019800F019F903460293019800F024F9B7
:1046E4000246029BD21A009B9A4234BF0123002344
:1046F400DBB2002B03D0019B184600F02DF902AA6F
:104704006B4611461846FFF7BDFC03461A68029B28
:1047140013440393019800F007F90246039B934264
:1047240003D8029B039A9A4201D2012300E000239A
:10473400002B03D0019800F0F7F80390039B184670
:1047440005B05DF804FB00B587B0039002910192B7
:1047540005AB019A0299039800F00AF9034618463A
:1047640007B05DF804FB000000B587B00390029128
:1047740001928DF80030029A039BD31A9B100D4AC4
:1047840002FB03F30593059B002B0DDD03990198B0
:1047940000F0FEF8039B0C330393019B0C3301934D
:1047A400059B013B0593EEE7019B184607B05DF8B6
:1047B40004FB00BFABAAAAAA00B589B00590049176
:1047C4000392049A13465B0013449B001A46059B0C
:1047D4001344079306AA002300931346039A0799E8
:1047E400059800F0E9F8079B184609B05DF804FB4A
:1047F40000B585B0019002AB0199184600F000F9AC
:1048040003AB0199184600F00BF903AA02AB114659
:10481400184600F020F9019B03F10800019B196878
:10482400019B9A68019B1B68D31A9B10044A02FBE4
:1048340003F31A46FFF738F800BF05B05DF804FB30
:10484400ABAAAAAA84B00390029101920093039B9D
:10485400029A1A60039B019A5A60039B009A9A6019
:1048640000BF04B07047000000B587B00390029108
:1048740001920398FFF79AFD0246029B93428CBF74
:1048840001230023DBB2002B05D00C48FCF76AFAA5
:104894000120FBF702FF029B002B0AD0029B059329
:1048A4000598FCF707FC0490019B059A1A60049B89
:1048B40000E00023184607B05DF804FBFC8B0108F8
:1048C40000B585B0019000910198FFF786FDFFF7D0
:1048D40089FD03AB1A460099019800F0D4F800BF93
:1048E40005B05DF804FB84B003900291019200933B
:1048F40000BF04B0704784B003900291019200930A
:1049040000BF04B07047000082B00190019B5A6858
:10491400019B1B68D31A9B10024A02FB03F318463F
:1049240002B07047ABAAAAAA00B585B00190094BA2
:104934000393019B0833184600F0B0F80290029AE2
:10494400039B9A4201D2029B00E0039B184605B0E8
:104954005DF804FB5555551500B583B00190034827
:10496400FCF70AFC00BF03B05DF804FBB48D01083A
:1049740000B585B00390029101920093019A0299C7
:10498400039800F093F80346184605B05DF804FB5D
:1049940000B585B0019000910198FFF700FAFFF788
:1049A40003FA03AB1A460099019800F0B5F800BF6A
:1049B40005B05DF804FB000000B587B003900291D8
:1049C40001920093039B0593029A039BD31A9B10B5
:1049D4000A4A02FB03F30493049B002B0ADD0199AA
:1049E400059800F0B1F8049B013B0493059B0C333C
:1049F4000593F1E700BF07B05DF804FBABAAAAAAD0
:104A040000B583B001900091009800F0B0F803461F
:104A14001946019800F0B2F8019803B05DF804FB60
:104A240000B583B0019000910098FFF743F8034666
:104A34001946019800F0A2F8019803B05DF804FB50
:104A440082B001900091009B1A68019B1A60019B3F
:104A5400184602B0704700B585B00190009102ABD2
:104A640001991846FFF7ECFF03AB00991846FFF7CE
:104A7400E7FF03A902AB0022184600F089F800BF43
:104A840005B05DF804FB84B0039002910192029B8F
:104A94001A78039B1A7000BF04B0704782B001906B
:104AA400014B184602B070475555551500B587B0EF
:104AB4000390029101920398FFF7F0FF0246029BD4
:104AC40093428CBF01230023DBB2002B05D0104896
:104AD400FCF748F90120FBF7E0FD029B002B12D004
:104AE400029A13465B0013449B0005930598FCF758
:104AF400E1FA0490059B074AA2FB0323DA08019B11
:104B04001A60049B00E00023184607B05DF804FB1C
:104B1400FC8B0108ABAAAAAA00B587B00390029146
:104B24000192029800F04DF803460593039B194641
:104B34000C20FCF796FA03460599184600F04EF847
:104B440000BF07B05DF804FB00B585B0019000918B
:104B54000198FFF724F9FFF727F903AB1A460099E8
:104B6400019800F053F800BF05B05DF804FB82B073
:104B74000190019B5B68184602B0704782B00190B7
:104B84000091019B009A1A60019B184602B070477D
:104B940000B589B003900291019205AB03991846C0
:104BA400FFF74EFF06AB02991846FFF749FF07AB24
:104BB40006A905A8019A00F03CF800BF09B05DF809
:104BC40004FB00B585B0019003AB0199184600F0D1
:104BD40038F8039B184605B05DF804FB10B584B0A3
:104BE40001900091019C6B46184600F034F803468E
:104BF4001A4603AB1146184600F034F803992046D0
:104C040000F03AF8019B184604B010BD00B585B019
:104C1400039002910192039B19460C20FCF721FAA0
:104C2400034602991846FFF710FB00BF05B05DF874
:104C340004FB84B0039002910192009300BF04B07E
:104C4400704782B001900091019B009A1A60019B09
:104C5400184602B0704782B00190019B1B68184649
:104C640002B0704782B001900091019B009A1A60D3
:104C7400019B184602B0704730B585B00190009191
:104C84006B46184600F038F803461A68019B1A6010
:104C94006B46184600F030F803465A68019B5A6088
:104CA400019B03F108046B46184600F025F80346FF
:104CB40003F1080203AB1146184600F024F80399E7
:104CC400204600F02AF86B46184600F015F8054611
:104CD40000232B606B46184600F00EF804462B6840
:104CE400A3606B46184600F007F80246A3685360B9
:104CF400019B184605B030BD82B00190019B1B6832
:104D0400184602B0704782B001900091019B009A4E
:104D14001A60019B184602B0704700B583B0019039
:104D240000916B46184600F01EF80346184600F042
:104D340021F80346184600F023F803461946019863
:104D4400FFF7C8F86B46184600F00DF803461846FE
:104D540000F01CF803461A68019B1A60019B184670
:104D640003B05DF804FB82B00190019B1B681846F8
:104D740002B0704782B00190019B184602B07047A0
:104D840082B00190019B184602B0704782B0019036
:104D9400019B184602B0704700B583B00190019B97
:104DA4001846FCF7F5F9019B184603B05DF804FBBF
:104DB40010B582B00190054C054B9C4204D01C3CBC
:104DC4002046FFF7E9FFF7E702B010BD4C080024C6
:104DD4000405002410B582B00190054C054B9C429B
:104DE40004D0283C2046FCF76EFDF7E702B010BD66
:104DF400F4350224F430022430B589B001900091D6
:104E0400019B012B40F09280009B4FF6FF7293426E
:104E140040F08C80474B1D241D46002C05DB2846A2
:104E2400FCF7C2F91C35013CF7E7434A434900202B
:104E340012F010FE02AB1846FDF7E6FF02AB19466E
:104E44003F48FDF7EDFF02AB1846FDF7E3FF3A4A92
:104E54003C493B4812F0FEFD03AB1846FDF7EEFF5C
:104E640003AB19463848FDF7F5FF03AB1846FDF7C9
:104E7400EBFF314A3549344812F0ECFD04AB1846D7
:104E8400FDF7DCFF04AB19463148FDF7E3FF04AB43
:104E94001846FDF7D9FF284A2C492D4812F0DAFDAF
:104EA40005AB1846FDF7CAFF05AB19462948FDF7BF
:104EB400D1FF05AB1846FDF7C7FF1F4A2349254814
:104EC40012F0C8FD06AB1846FDF7B8FF06AB19464D
:104ED4002148FDF7BFFF06AB1846FDF7B5FF164A9C
:104EE4001A491D4812F0B6FD07AB1846FDF7C0FF7E
:104EF40007AB19461948FDF7C7FF07AB1846FDF77E
:104F0400BDFF0D4A1649154812F0A4FD154B1F2488
:104F14001D46002C05DB2846FCF7C0FC2835013C67
:104F2400F7E7054A1049002012F094FD00BF09B0CC
:104F340030BD00BF04050024A4D20224B54D0008EE
:104F440030AE0124714F00083CAE0124CF4200086A
:104F540048AE012454AE012460AE01246CAE012499
:104F6400A94F0008F4300224D94D000800B585B0DB
:104F7400019002AB01991846FFF7A3F803AB01991E
:104F84001846FFF7AEF803AA02AB11461846FFF71E
:104F9400C3F8019B1846FEF721F9019B184605B09A
:104FA4005DF804FB00B585B0019002AB0199184689
:104FB400FFF726FD03AB01991846FFF731FD03AA5D
:104FC40002AB1146184600F009F8019B1846FEF79B
:104FD40085F9019B184605B05DF804FB00B585B062
:104FE4000190009102AB01991846FFF729FD03AB2C
:104FF40000991846FFF724FD03A902AB00221846C6
:1050040000F004F800BF05B05DF804FB00B589B0FA
:1050140003900291019205AB03991846FFF710FD26
:1050240006AB02991846FFF70BFD07AB06A905A8C6
:10503400019A00F004F800BF09B05DF804FB00B564
:1050440087B003900291019200930299039800F0B3
:1050540014F80346002B0CD0039800F02AF80246FB
:1050640005AB1946104600F030F8039800F015F827
:10507400EBE700BF07B05DF804FB00B583B0019017
:1050840000910099019800F02BF8034683F0010386
:10509400DBB2184603B05DF804FB82B00190019BBB
:1050A4001B68A3F10C02019B1A60019B184602B015
:1050B400704784B00190019B1B680393039B0C3BD6
:1050C4000393039B184604B0704700B583B0019066
:1050D40000910198FFF7F9F800BF03B05DF804FBF5
:1050E40010B582B001900091019800F00DF80446CB
:1050F400009800F009F803469C420CBF01230023EA
:10510400DBB2184602B010BD82B00190019B1B684F
:10511400184602B0704708B54FF6FF710120FFF73B
:105124006BFE08BD82B00190034A019B1A60019B8B
:10513400184602B0704700BFD48D010800B583B093
:1051440001900B468DF80330064A019B1A609DF8C6
:1051540003300199184602F0AFF9019B184603B0D9
:105164005DF804FBD48D010882B00190034A019BD1
:105174001A60019B184602B0704700BFD48D010825
:1051840000B583B00190019B00211846FFF7D6FFBC
:10519400034A019B1A60019B184603B05DF804FBA7
:1051A400008E010800B583B001900091019B184660
:1051B400FFF7B8FF054A019B1A60019B009A5A60E9
:1051C400019B184603B05DF804FB00BF008E010884
:1051D40082B001900091019B009A5A6000BF02B016
:1051E4007047000000B583B00190064A019B1A6025
:1051F400019B1846FFF7B8FF019B184603B05DF802
:1052040004FB00BF008E010800B583B00190019833
:10521400FFF7E8FF019813F00DF8019B184603B05F
:105224005DF804FB84B0039002910192009300BFE7
:1052340004B0704784B003900291019200BF04B09F
:10524400704782B00190009100BF02B0704784B0F3
:10525400039002910192009300BF04B0704710B50F
:1052640082B00190102012F0CDFF03461C46204668
:10527400FFF786FF2346184602B010BD10B582B072
:1052840001900091102012F0BDFF03461C460099C6
:105294002046FFF787FF2346184602B010BD0000E2
:1052A40000B583B001900091019B012B0CD1009BB0
:1052B4004FF6FF72934207D10548FFF761FF054A95
:1052C4000549034812F0C6FB00BF03B05DF804FBB8
:1052D400B8CA0224A4D20224E951000808B54FF642
:1052E400FF710120FFF7DCFF08BD000084B01E4BF6
:1052F4000022C3F88420BFF34F8F1B4BD3F88030B8
:105304000193019B5B0BC3F30E030393019BDB0827
:10531400C3F309030293039B5A0143F6E07313405A
:10532400029A920710491343C1F87432029B5A1E21
:105334000292002B14BF01230023DBB2002B00D008
:10534400E9E7039B5A1E0392002B14BF0123002399
:10535400DBB2002B00D0D9E7BFF34F8FBFF36F8FC1
:1053640000BF04B0704700BF00ED00E084B00390BC
:10537400029113468DF807304FF0FF33184604B0FE
:105384007047000000B583B0019001980BF092FCC7
:10539400034B01221A7200BF03B05DF804FB00BF87
:1053A400C8CA022400B583B00190019B02211846AB
:1053B40002F0F6FC064A019B1A60019B00221A7255
:1053C400019B0022DA60019B184603B05DF804FBE0
:1053D4002C8E010800B583B00190064A019B1A6027
:1053E400019B184602F0F2FC019B184603B05DF8DD
:1053F40004FB00BF2C8E010800B583B00190019816
:10540400FFF7E8FF019812F015FF019B184603B05F
:105414005DF804FB84B0039002910192009300BFF5
:1054240004B0704784B0039002910192009300BFCE
:1054340004B0704784B0039002910192009300BFBE
:1054440004B0704700B587B00390029101920093B5
:1054540001238DF81730002304939DF81730002B97
:1054640019D0FFF743FF039BD868009B029A019968
:105474000AF0E0FE03468DF81730039BDB681846FC
:105484000BF018FC049B01330493049B642BE4D1BC
:1054940064230493E1E7039B00221A72039BDB68F5
:1054A40093F83030DBB2012B14BF01230023DBB2AD
:1054B400002B00D0F2E79DF81730184607B05DF8CE
:1054C40004FB00B587B0039002910192009301237D
:1054D4008DF81730002304939DF81730002B19D052
:1054E400FFF704FF039BD868009B029A01990AF016
:1054F400A1FE03468DF81730039BDB6818460BF0BA
:10550400D9FB049B01330493049B632BE4D96423E8
:105514000493F9E7039B00221A72039BDB6893F858
:105524003030DBB2012B14BF01230023DBB2002B8C
:1055340000D0F2E79DF81730184607B05DF804FB79
:1055440082B00190019B184602B0704782B001906E
:105554000091019B009ADA6000BF02B0704700001E
:1055640000B583B001900091019B012B0CD1009BED
:105574004FF6FF72934207D10548FFF713FF054A20
:105584000549034812F066FA00BF03B05DF804FB56
:10559400C8CA0224A4D20224D953000808B54FF67D
:1055A400FF710120FFF7DCFF08BD82B00190019B71
:1055B400DB68002B03D0019BDB680193F7E7019BB9
:1055C400184602B0704782B001900091019B009A86
:1055D4001A60019B184602B0704700B585B003906D
:1055E40002910192019A0299039812F0E7FA034694
:1055F400184605B05DF804FB00B583B00190019B2B
:10560400184600F0C6FE019B184603B05DF804FB83
:1056140000B585B0019000912E4A019B1A60019B50
:105624006033184600F084FE019B0022DA67019B78
:105634000022C3F88020019B0022C3F88420019B30
:105644000022C3F88820019B0022C3F88C20019B10
:105654000022C3F89020019B0F22C3F89420019BE1
:10566400009A9A67019BD3F894301A4613469B011B
:105674001344DB00184611F0CFFC0246019BC3F82B
:105684009820019BD3F89830039300230293019B45
:10569400D3F89430029A9A4210DA039B0022C3F89A
:1056A4000422039B4FF0FF32C3F80022039B03F54F
:1056B40002730393029B01330293E8E7019800F01D
:1056C400B1FB019800F0FBFB019B184605B05DF8A7
:1056D40004FB00BF808E010800B583B00190064A28
:1056E400019B1A60019B60331846FFF785FF019BFD
:1056F400184603B05DF804FB808E010800B583B042
:1057040001900198FFF7E8FF019812F093FD019BC7
:10571400184603B05DF804FB30B5A1B00B900A91B4
:105724000992089315AB0A991846FDF7BBFB0DAA1D
:1057340015AB19460B9800F095FA1D9015AB184659
:10574400FBF726FD249B1F9300231E931D9BB3F19F
:10575400FF3F6AD00B9BB3F80F309BB2013B1A4654
:10576400089B13401C930B9BB3F80F309BB21A4653
:10577400249BB3FBF2F102FB01F29A1A1C9B134423
:105784000B9AB2F80F2092B2934218D90B9BB3F83C
:105794000F309BB21A46249BB3FBF2F302330B9AED
:1057A400B2F80F2092B202FB03F31E930B9BB3F8E3
:1057B4000F309BB21A461F9B13441F930FE00B9BA1
:1057C400B3F80F309BB21A46249BB3FBF2F30133B8
:1057D4000B9AB2F80F2092B202FB03F31E931E98A9
:1057E40011F01AFC1B901F9B0793089B06931B9BAD
:1057F40005936D4610AC0FCC0FC523682B600DAB21
:105804000ECB0B9800F014F81B9A1C9B13441B93AB
:10581400249A1B99099812F06DFA1C9B5B421B9AFF
:1058240013441B931B9811F0E7FB00BF21B030BD5C
:1058340084B0F0B5ADF5257D09AC2060ABA880E857
:105844000E0009AB1B685B7C9A9309AB1B68B3F829
:105854000F309BB21A46B59BB3FBF2F3013309AA8E
:105864001268B2F80F2092B202FB03F3999309ABCA
:105874001B68B3F80F309BB21A46B49BB3FBF2F328
:1058840009AA1268B2F80F2092B202FB03F39893AC
:1058940009AB1B68B3F80F309BB21A46989BB3FB55
:1058A400F2F39A9AB3FBF2F29A9901FB02F29B1A71
:1058B400A393BDF8C0321B04BDF8C62213439793CB
:1058C40009AB1B68D3F88420979B023B9A9901FB90
:1058D40003F313449693999BA29309AB1B68D3F8E3
:1058E4009030B49AB2FBF3F3959309AB1B68D3F8E9
:1058F4009030B59AB2FBF3F3949309AB1B68B3F8F9
:105904000F309BB21A46B49BB3FBF2F39393B39B51
:10591400A19309AB1B68B3F80F309BB21A469A9B4C
:1059240002FB03F39293B59AB49BD31A013B09AAE1
:105934001268B2F80F2092B2B3FBF2F39A9A013ACA
:10594400B3FBF2F102FB01F29B1A9193BDF8C03252
:105954001B04BDF8C6221343909309AB1B68D3F80C
:105964008420909B023B9A9901FB03F313448F9389
:10597400989A929B9A4249D2929A989BD31A09AACE
:105984001268B2F80F2092B2B3FBF2F3A09309AB02
:105994001B68B3F80F309BB21A46999BB3FBF2F322
:1059A400A09A9A4209D909AB1B68B3F80F309BB28D
:1059B4001A46999BB3FBF2F3A09309AB1B68986F4B
:1059C40009AB1B689B6F1B6818331C68969AA39BD2
:1059D400D118A09BA19AA04709AB1B68B3F80F305C
:1059E4009BB21A46A09B03FB02F3A19A1344A19312
:1059F40009AB1B68B3F80F309BB21A46A09B03FB9C
:105A040002F3A29AD31AA2930023A393A29B002B7E
:105A140000F0C5800BAF09AE6D46ADAC0FCC0FC521
:105A240094E8030085E80300ABAB0CCB316838463F
:105A340000F0BCF80BAB1A680DA909AB186800F0AC
:105A44001DFC0BAB5B689B089F930DAB9F9A53F8AF
:105A540022309E930BAB1B689D9301239C93989AD1
:105A6400929BB2FBF3F29C9B9A4228D90BAC06A8FA
:105A740009AB9E9A196800F0CCF806AA234692E86E
:105A8400030083E803000BAB1B689D9A9A4209D07C
:105A94000BAB1A680DA909AB186800F0EFFB0BAB50
:105AA4001B689D930BAB5B689B089F930DAB9F9A00
:105AB40053F822309E939C9B01339C93CFE7A29B87
:105AC400002B6CD00DAB9F9A53F822308E9309AB08
:105AD4001B68D3F884208E9B023B9A9901FB03F345
:105AE40013448D9309AB1B68B3F80F309BB21A466D
:105AF400A29BB3FBF2F39B939B9A9A9B9A4201D984
:105B04009A9B9B9309AB1B68986F09AB1B689B6FAF
:105B14001B6818331C688D9AA39BD1189B9BA19A70
:105B2400A04709AB1B68B3F80F309BB21A469B9B86
:105B340003FB02F3A29AD31AA29309AB1B68B3F82E
:105B44000F309BB21A469B9B03FB02F3A19A1344AA
:105B5400A1930BAC06A809AB9E9A196800F059F8FA
:105B640006AA234692E8030083E803000BAB1B68F4
:105B74009D9A9A4209D00BAB1A680DA909AB186813
:105B840000F07CFB0BAB1B689D930BAB5B689B0825
:105B94009F930DAB9F9A53F822309E938FE700BFDB
:105BA4000DF5257DBDE8F04004B0704782B086B0A5
:105BB4000190009106A981E80C00BDF82C301B046B
:105BC400BDF8322013430593009BDB6F009A528A81
:105BD4001A44059B9B000099B1F80F1089B2B3FBDE
:105BE400F1F313440493059B9B00009AB2F80F2031
:105BF40092B2B3FBF2F102FB01F29B1A0393019BF5
:105C0400049A1A60019B039A5A60019806B002B084
:105C1400704786B0039002910192029BDB6F029A57
:105C2400528A1A44019B9B000299B1F80F1089B261
:105C3400B3FBF1F313440593019B9B00029AB2F862
:105C44000F2092B2B3FBF2F102FB01F29B1A049310
:105C5400039B059A1A60039B049A5A60039806B042
:105C64007047000030B5ADF5137D03AB186002AB8F
:105C7400196001AB1A6003AB1B6803F160018AA8C9
:105C840002AB1A6800F099FB03AB1B6803F16002D6
:105C94008CAB1146184600F0AFFB8CAA8BAB1146B7
:105CA400184600F0B7FB8AAB8B99184600F0C2FB8C
:105CB4000346002B0DD08AAB184600F0C9FB0346FF
:105CC40003F1180101AB2022186812F03FF80425F3
:105CD400A1E00023919300238E9303AB1B68986F7C
:105CE40003AB1B689B6F1B6814331C6803AB1B68F6
:105CF400D3F88420919BD1180AAA0123A04700233A
:105D040090930AAB8F938F9B1B78052B40F2818075
:105D14008F9BDB7A0F2B22D18F9B20338F93909B09
:105D240001339093909B0F2BF2D9919B0133919364
:105D340003AB1B68986F03AB1B689B6F1B68143322
:105D44001C6803AB1B68D3F88420919BD1180AAA62
:105D54000123A0470AAB8F9300239093D8E78DAB20
:105D64001846FDF718F88DAA04AB2D491846FDF71F
:105D740058F98DAB1846FDF714F88F9A04AB114609
:105D8400184600F070FB04AA02AB1146186800F034
:105D94007EFB0346002B0CBF01230023DBB2002B48
:105DA4000DD001AB20228F99186811F0A3FF919BAD
:105DB4000133909A02FB03F31D46002422E08F9BDB
:105DC40020338F93909B01339093909B0F2B18D982
:105DD400919B0133919303AB1B68986F03AB1B68D2
:105DE4009B6F1B6814331C6803AB1B68D3F88420B7
:105DF400919BD1180AAA0123A0470AAB8F930023D1
:105E04009093012404AB1846FBF7C2F9012C02D18C
:105E140079E74FF0FF352B4618460DF5137D30BD5D
:105E2400648E010810B5ADF5047D01AB1860002344
:105E3400839301AB1B68986F01AB1B689B6F1B6856
:105E440014331C6802AA01238399A04702AB8293EE
:105E5400829B93F84230292B11D0839B03F5805306
:105E6400839301AB1B68986F01AB1B689B6F1B6826
:105E740014331C6802AA01238399A047E8E701AB05
:105E84001B6804335A228299184611F033FF01AB80
:105E94001B68839ADA6701AB1B685B7C1A4601AB0B
:105EA4001B68B3F80F309BB203FB02F31A4601AB35
:105EB4001B68C3F8902000BF0DF5047D10BD84B0AD
:105EC4000190019BB3F815309BB25A01019BB3F8C2
:105ED4000F309BB2013B1344019AB2F80F2092B2E7
:105EE40093FBF2F31A46019BC3F88020019BD3F87D
:105EF4008030002B02D064230393F7E7019BDB6F10
:105F0400019A528A1A44019B1B7D1946019B9B6A84
:105F140003FB01F31A44019BD3F880301A44019B1C
:105F2400C3F8842000BF04B0704700B583B001906B
:105F3400019B1846FBF72CF9019B184603B05DF84A
:105F440004FB00B583B00190019B1846FBF720F9D0
:105F5400019B184603B05DF804FB10B5ADF5347D24
:105F640003AC206002A8016001A90A606A461360BC
:105F74000023B3930023B29303AB1B68986F03AB66
:105F84001B689B6F1B6814331C6803AB1B68D3F836
:105F94008420B39BD1180BAA0123A0470023B193FB
:105FA4000BABB0936B46B29A1B689A4280F0D480D4
:105FB400B09BDB7A0F2B22D1B09B2033B093B19BE3
:105FC4000133B193B19B0F2BF2D9B39B0133B3933C
:105FD40003AB1B68986F03AB1B689B6F1B68143380
:105FE4001C6803AB1B68D3F88420B39BD1180BAA9D
:105FF4000123A0470BABB0930023B193D8E7B09B28
:106004001B78052B40F28480B09B1B78E52B7FD056
:106014008BAB1846FCF7BFFE8BAA05AB114618469E
:10602400FCF7C5FE8BAB1846FCF7BBFEB09A05AB7C
:106034001146184600F017FA05AB00222E21184627
:1060440000F062FA0346002B0CBF01230023DBB2ED
:10605400002B01D0002454E08CA805A903230822B6
:1060640000F036FA8CAA02AB1146186800F00FFA59
:106074000346002B0CBF01230023DCB28CAB184673
:10608400FBF786F8002C3BD0B29A1346DB009B1A30
:106094009B001A4601AB1B6813441A4605AB19460C
:1060A4001046FCF73FFFB29A1346DB009B1A9B0095
:1060B4001A4601AB1B681344B09AD2699A6103ABC8
:1060C4001B6803F1600405A9A2ABB09A184600F05E
:1060D4002EFAA2AA94AB1146184600F045FA92ABE8
:1060E40094AA2146184600F059FA94AB1846FFF7D3
:1060F40028FFA2AB1846FFF718FFB29B0133B293F7
:10610400012405AB1846FBF743F8012C24D100BF4A
:10611400B09B2033B093B19B0133B193B19B0F2B50
:106124007FF640AFB39B0133B39303AB1B68986F07
:1061340003AB1B689B6F1B6814331C6803AB1B68A1
:10614400D3F88420B39BD1180BAA0123A0470BAB2F
:10615400B0930023B19325E70DF5347D10BD84B0D1
:1061640001900091019BD3F898300393002302938C
:10617400019BD3F89430029A9A420FDA039BD3F826
:106184000032009A9A4201D1029B09E0039B03F575
:1061940002730393029B01330293E9E74FF0FF3349
:1061A400184604B0704782B000B589B001900091E0
:1061B4000AA981E80C006FF00043079300230393BE
:1061C400019BD3F898300693019BD3F8983005933C
:1061D40000230493019BD3F89430049A9A4215DA6D
:1061E400069BD3F80422079B9A4207D2069BD3F856
:1061F40004320793049B0393069B0593069B03F5C4
:1062040002730693049B01330493E3E7059B4FF465
:1062140000720099184611F099FD8A9A059BC3F8FB
:106224000022059B0122C3F8042200BF09B05DF8D7
:1062340004EB02B0704770B5ADF5836D83AB1860A5
:1062440082AB196081AB1A6084AB81AA1268C3F86F
:10625400002284AC82AE83AD684604F108034FF497
:106264000072194611F046FD94E80C003168286864
:10627400FFF799FF00BF0DF5836D70BD10B586B0B3
:1062840003900291019201990398FFF768FF034676
:106294000593039BD3F898300493059BB3F1FF3F18
:1062A40019D0059A13469B011344DB001A46049B3C
:1062B40013440493049BD3F804325A1C049BC3F87C
:1062C40004220499039BB3F80F309BB21A46029838
:1062D40011F03CFD0FE0039B986F039B9B6F1B68C1
:1062E40014331C680123029A0199A047019A029968
:1062F4000398FFF7A0FF00BF06B010BD82B0019065
:106304000091009B1A68019B1B689A4201DA009B6A
:1063140000E0019B184602B0704700B583B00190BD
:10632400019800F04AF9019B184603B05DF804FB9C
:1063340010B584B00190019C03AB184600F043F9FA
:1063440003AA02AB1946204600F049F903AB1846EC
:1063540000F03FF902AB1846FFF7DFFF019B184638
:1063640004B010BD00B583B00190019800F049F964
:10637400019B184603B05DF804FB00B583B001909F
:10638400019B1846FFF7EEFF019B184603B05DF82A
:1063940004FB00B583B00190019800F038F9019B2B
:1063A40014331846FFF7B9FF019B1846FFF7E5FFC2
:1063B400019B184603B05DF804FB00B585B003905B
:1063C400029101920299039B019A184600F048F940
:1063D400039805B05DF804FB00B583B0019000910B
:1063E400019A009B1B6819461046FFF7ECF8019BC5
:1063F400184603B05DF804FB00B583B0019000912A
:10640400009A019B1146184600F03CF9019803B02C
:106414005DF804FB00B583B001900091019A009BE4
:106424001B6819461046FFF7CEF8019B184603B0C7
:106434005DF804FB82B001900091019B1A68009BF7
:106444009A4214BF01230023DBB2184602B07047FE
:1064540000B583B00190019800F021F90346184675
:1064640003B05DF804FB00B583B00190009100987F
:10647400FAF736FE0246009B13441A460099019827
:10648400FDF781FA0346184603B05DF804FB70B5C6
:1064940082B001900091019B1846FCF729FE044646
:1064A400019B1846FCF75FFF0546009B1846FCF766
:1064B4001FFE0646009B1846FCF755FF034632466E
:1064C4002946204600F0F3F80346184602B070BD92
:1064D40000B589B0059004910392029307AB049927
:1064E4001846FCF71FFF07AB0093029B039A04991D
:1064F400059800F00FF907AB1846FCF752FC00BFF3
:10650400059809B05DF804FB00B585B003900B460F
:1065140001928DF80B309DF80B30019A19460398BF
:1065240000F046F90346184605B05DF804FB30B5A3
:1065340085B0039002910192039B02991846FCF7DF
:10654400B1FC039B019A03F1180415462868696895
:10655400AA68EB680FC428696969AA69EB690FC462
:10656400039B184605B030BD30B583B0019000914F
:10657400019B009A11461846FCF794FC019A009B73
:1065840002F1180403F118050FCD0FC495E80F00AC
:1065940084E80F00019B184603B030BD00B585B0F8
:1065A4000390029101920299039B019A184600F00C
:1065B40054F9039805B05DF804FB82B00190019B87
:1065C400184602B0704782B00190019B184602B091
:1065D400704782B00190019B184602B0704700B525
:1065E40085B0039002910192039B0199184600F033
:1065F400E5F9039B00221A61039B184605B05DF878
:1066040004FB82B00190019B184602B0704700B5AC
:1066140083B00190019B1B69002B1DD0019800F0F1
:106624001FFA03461B681946019800F0EFF9019818
:1066340000F01DFA0246019B1360019800F010FA65
:10664400024600231360019800F018FA0246019BE9
:106654001360019B00221A6100BF03B05DF804FBC4
:1066640000B585B00390029101920199029800F05F
:106674000CFA03461946039800F04FFA039805B044
:106684005DF804FB00B583B001900091009B1946AE
:10669400019800F042FA019803B05DF804FB82B05F
:1066A4000190019B1B681033184602B0704700B577
:1066B40089B00390029101920093029A039BD31A2A
:1066C4000693009A019BD31A059305AA06AB1146BB
:1066D4001846FFF713FE03461B681A4601990398F0
:1066E400FEF77BFF0790079B002B0ED1069A059BB4
:1066F4009A4207DB069A059B9A4201DD012305E0D5
:10670400002303E04FF0FF3300E0079B184609B075
:106714005DF804FB30B587B00390029101920093B9
:10672400039B0A991846FCF70BFE0298FCF746FEF9
:106734000246019B93428CBF01230023DBB2002B52
:1067440004D0039B184600F0F7F922E0029B184698
:10675400FCF7CEFC0246019BD418029B1846FCF7BA
:10676400C7FC05460298FCF729FE0246019BD31A92
:10677400059305AA6B4611461846FCF7F1FA034641
:106784001A68019B13442B441A4621460398FCF7CC
:10679400F1FD039B184607B030BD00B583B00190EE
:1067A400019800F0E2F9019B184603B05DF804FB80
:1067B40030B587B003900B4601928DF80B300398E7
:1067C400FCF7FCFD0246019B93422CBF01230023EE
:1067D400DBB2002B02D04FF0FF3330E0039B1846AE
:1067E400FCF786FC0246019BD418039B1846FCF771
:1067F400BAFD05469DF80B2004AB1146184600F07F
:10680400A7F904AB1A462946204600F0B4F90590CE
:1068140004AB1846FFF7C1FF039B1846FCF7A3FD22
:106824000246059B934207D0039B1846FCF760FC85
:106834000246059B9B1A01E04FF0FF3300BF184648
:1068440007B030BD00B583B00190019800F0ACF9F9
:10685400019B184603B05DF804FB30B593B0059076
:1068640004910392049B1193049800F0F9F80346F1
:106874001B68109301238DF83F30109B002B2BD005
:10688400109B1193049B03F1140408AB039918465D
:1068940000F090F90546109800F093F903461A4663
:1068A4002946204600F0A3F903468DF83F3008AB93
:1068B4001846FFF7C7FF9DF83F30002B05D010980E
:1068C40000F0A3F903461B6804E0109800F0A4F953
:1068D40003461B681093D0E707AB1199184600F0E4
:1068E4001CF99DF83F30002B2BD00AAB04991846B5
:1068F40000F099F90AAA09AB11461846FFF78AFD78
:1069040007AB0999184600F09FF90346002B14D0F1
:106914000BA800230193119B0093039B119A0499E4
:1069240000F0A0F901238DF833300DF133020BABE5
:106934001946059800F035FA3DE007AB184600F01B
:1069440043FA049B03F11404079B184600F039F939
:1069540005460DAB0399184600F02CF903461A4678
:106964002946204600F043F903461C460DAB184661
:10697400FFF768FF002C14D00EA800230193109B8E
:106984000093039B119A049900F06CF901238DF88C
:106994003D300DF13D020EAB1946059800F001FAA9
:1069A40009E000238DF83E300DF13E0207AB194695
:1069B400059800F0F6F9059813B030BD30B58BB0EA
:1069C40003900291039C05AB0299184600F00CFA5F
:1069D40006AB00221A605A609A60DA6005AD6A4616
:1069E40008AB93E8030082E8030006AB0CCB29460E
:1069F400204600F000FA05AB1846FFF702FE0398A4
:106A040000F012FA039B18460BB030BD00B585B0F8
:106A140001900091009B002B1ED0009800F0FCF820
:106A240003461B6819460198FFF7F0FF009800F031
:106A3400ECF803461B680393009800F006FA03463B
:106A4400184600F009FA019B01220099184600F04B
:106A54000FFA039B0093DDE700BF05B05DF804FB6C
:106A640082B00190019B0433184602B0704782B093
:106A74000190019B0833184602B0704782B0019020
:106A8400019B0C33184602B0704710B584B00190D6
:106A94000091019B0393019800F0FFF90290029B7F
:106AA400002B21D0019B03F11404029800F089F813
:106AB4000346009A1946204600F099F8034683F0ED
:106AC4000103DBB2002B08D0029B0393029800F071
:106AD4009CF803461B680293E1E7029800F09CF8D7
:106AE40003461B680293DAE7019B039A9A4210D08B
:106AF400019B03F11404039800F063F803461A465B
:106B04000099204600F073F80346002B01D0019B46
:106B14000393039B184604B010BD00B583B00190E5
:106B24000091019B00991846FEF74DFD019B184604
:106B340003B05DF804FB000000B583B00190034886
:106B4400FAF70EFB00BF03B05DF804FB688E010882
:106B540082B001900B468DF80330019B9DF8032011
:106B64001A70019B184602B0704782B00190019BD5
:106B7400184602B0704710B586B003900291019296
:106B8400019B1B788DF8103005AB04AA0299039879
:106B940000F08AF9044600BF04AB1846FFF7FDFD78
:106BA4002346184606B010BD82B00190019B1846DA
:106BB40002B0704782B001900091009B184602B069
:106BC400704710B584B00190019800F03EF9024678
:106BD40003AB11461846FFF7EDFF044600BF03ABB5
:106BE4001846FFF72FFE2346184604B010BD00B523
:106BF40085B00390029101920199029800F0C6F9C0
:106C04000346184605B05DF804FB82B00190019B71
:106C14000833184602B0704782B00190019B0C33D0
:106C2400184602B0704700B583B0019000910098F7
:106C3400FFF71DFF03461B6819460198FFF76DFF18
:106C4400019803B05DF804FB82B001900091019BB0
:106C54001A68009B9A420CBF01230023DBB218463A
:106C640002B0704770B586B0039002910192009310
:106C7400029B019A9A4217D10099029800F0A5F953
:106C840005900198FFF7C1FF0246059B1360029827
:106C9400FFF7E6FE0246059B13600298FFF7EEFE3F
:106CA4000246059B136064E000250B9B002B1AD160
:106CB4000A9B002B15D1029B03F11404012504AB9C
:106CC40000991846FFF776FF06460198FFF779FF0B
:106CD40003461A4631462046FFF789FF0346002B38
:106CE40001D0012400E00024002D03D004AB184699
:106CF400FFF7A8FD002C1ED00099029800F065F95A
:106D040005900198FFF781FF0246059B13600298E6
:106D1400FFF7ADFE03461B68019A9A420CBF01239C
:106D24000023DBB2002B24D00298FFF7A0FE02461A
:106D3400059B13601DE00099029800F046F9059048
:106D44000198FFF769FF0246059B13600298FFF75D
:106D540095FE03461B68019A9A420CBF0123002347
:106D6400DBB2002B05D00298FFF788FE0246059B94
:106D74001360059800F04AF90246019B1360029BD8
:106D840004331946059800F048F9029B1B695A1C04
:106D9400029B1A6105990398FFF7BFFE039806B09A
:106DA40070BD00B585B0039002910192039B0299D6
:106DB4001846FFF711FB019B1A78039B1A71039B7A
:106DC400184605B05DF804FB00B583B00190019B43
:106DD4001B68184600F0C0F90246019B1A60019B2B
:106DE400184603B05DF804FB82B001900091019B4A
:106DF400184602B0704782B010B582B0019000917D
:106E040004A981E80C000099019800F0D9F9019BCC
:106E14001C4604AB0FCB84E80F00019B184602B05C
:106E2400BDE8104002B0704782B00190019B00227F
:106E34001A70019B00225A60019A019B9A60019A80
:106E4400019BDA6000BF02B0704782B00190019BE1
:106E54001033184602B0704700B585B0019003ABFB
:106E64001946019800F0B3F900BF05B05DF804FBC2
:106E740000B585B0039002910192029B002B08D0CB
:106E8400019A1346DB001344DB0019460298FAF713
:106E94001CF900BF05B05DF804FB82B00190019BB2
:106EA4005B68184602B0704700B587B00390029142
:106EB40001920093029A039BD31A9B100593059B9E
:106EC400002B33DD0399019800F08CF90346002B65
:106ED40001D0039B56E0039B01330393039901986C
:106EE40000F080F90346002B01D0039B4AE0039B8A
:106EF400013303930399019800F074F90346002BBE
:106F040001D0039B3EE0039B013303930399019853
:106F140000F068F90346002B01D0039B32E0039B89
:106F240001330393059B013B0593C8E7029A039B36
:106F3400D31A022B10D0032B02D0012B18D020E03F
:106F44000399019800F04EF90346002B01D0039BEE
:106F540018E0039B013303930399019800F042F96D
:106F64000346002B01D0039B0CE0039B01330393E6
:106F74000399019800F036F90346002B01D0039BD6
:106F840000E0029B184607B05DF804FB70B582B0C0
:106F940001900091019800F033F90446019800F043
:106FA4003BF90546009800F02BF90646009800F0DE
:106FB40033F90346324629462046FFF778FB034659
:106FC400DB0FDBB2184602B070BD00B585B001908E
:106FD4000091019B0121184600F02AF90390039BBC
:106FE40010330099184600F031F90398FFF70DFEAD
:106FF4000246002313600398FFF70EFE02460023A7
:107004001360039B184605B05DF804FB82B0019041
:10701400019B0433184602B0704700B585B0019057
:107024000091019B00221A70009B1B68019A9A42EE
:1070340000F08A80019B5B681B78002B40F0848001
:10704400019B5A68019B5B685B689B689A423DD1CF
:10705400019B5B685B68DB680393039B002B17D081
:10706400039B1B7883F00103DBB2002B10D0019B40
:107074005B6801221A70039B01221A70019B5B68F2
:107084005B6800221A70019B5B685B6801935AE09D
:10709400019B5B68DB68019A9A4206D1019B5B689D
:1070A40001930099019800F0E4F8019B5B680122C8
:1070B4001A70019B5B685B6800221A70019B5B6815
:1070C4005B680099184600F00BF9ADE7019B5B681B
:1070D4005B689B680293029B002B17D0029B1B7872
:1070E40083F00103DBB2002B10D0019B5B6801220B
:1070F4001A70029B01221A70019B5B685B68002274
:107104001A70019B5B685B6801931CE0019B5B68E0
:107114009B68019A9A4206D1019B5B68019300998E
:10712400019800F0DDF8019B5B6801221A70019B55
:107134005B685B6800221A70019B5B685B6800995E
:10714400184600F096F86FE7009B1B6801221A703E
:1071540000BF05B05DF804FB00B585B00190019B4C
:107164001B7883F00103DBB2002B09D0019B5B6821
:107174005B68019A9A4203D1019BDB6801931AE090
:10718400019B9B68002B06D0019B9B681846FEF769
:107194000CFA01900FE0019B5B680393039B9B68CF
:1071A400019A9A4205D1039B0193039B5B68039365
:1071B400F4E7039B0193019B184605B05DF804FBBB
:1071C40082B001900091019B184602B0704700B54F
:1071D40083B0019000910198FEF7B3FE00BF03B0A5
:1071E4005DF804FB00B583B001900091019B194642
:1071F400009800F0ACF80346184603B05DF804FBB1
:1072040000B583B00190019B1846FBF771FF03465C
:10721400184603B05DF804FB00B583B00190019BF0
:107224001846FCF7A0F80346184603B05DF804FBC3
:1072340000B583B00190009100220099019800F0FC
:1072440095F80346184603B05DF804FB00B585B015
:1072540001900091019800F0B7F800F0BAF803AB80
:107264001A460099019800F0B6F800BF05B05DF821
:1072740004FB84B001900091019BDB680393039BA2
:107284009A68019BDA60039B9B68002B03D0039BE5
:107294009B68019A5A60019B5A68039B5A60009B41
:1072A4001B68019A9A4203D1009B039A1A600EE06C
:1072B400019B5B689B68019A9A4204D1019B5B68BD
:1072C400039A9A6003E0019B5B68039ADA60039B6C
:1072D400019A9A60019B039A5A6000BF04B07047F8
:1072E40084B001900091019B9B680393039BDA682F
:1072F400019B9A60039BDB68002B03D0039BDB6834
:10730400019A5A60019B5A68039B5A60009B1B6850
:10731400019A9A4203D1009B039A1A600EE0019BE2
:107324005B68DB68019A9A4204D1019B5B68039A0B
:10733400DA6003E0019B5B68039A9A60039B019AFD
:10734400DA60019B039A5A6000BF04B0704782B0B0
:1073540001900091019B1A78009B1B789A420CBF04
:1073640001230023DBB2184602B0704700B587B092
:10737400039002910192039800F040F80246029BA8
:1073840093428CBF01230023DBB2002B05D00D48B0
:10739400F9F7E8FC0120F9F780F9029B002B0BD0E8
:1073A400029A1346DB001344DB0005930598F9F7B2
:1073B40081FE0490049B00E00023184607B05DF8AA
:1073C40004FB00BF548E010882B00190184602B03D
:1073D40070471846704700B585B00390029101923A
:1073E400039B19463820F9F73CFE034602991846D8
:1073F40000F00CF800BF05B05DF804FB82B001900A
:10740400014B184602B07047E3388E0330B583B0A1
:1074140001900091019B009A11461846FBF742FD2A
:10742400019A009B02F1180403F118050FCD0FC453
:1074340095E80F0084E80F00019B184603B030BDA7
:1074440000B583B00190019B184600F091F8019BB0
:10745400184603B05DF804FB08B5134B1B78BFF363
:107464005B8FDBB203F00103002B0CBF012300236D
:10747400DBB2002B15D00C4806F00EF90346002BA6
:1074840014BF01230023DBB2002B0AD0074800F00D
:107494003EF8054806F008F9054A0649034810F085
:1074A400D9FA024B184608BDF0CA0224D8CA0224ED
:1074B400A4D202244574000800B58BB003460091A1
:1074C4008DF80730FFF7C8FF09906A460DF10701F0
:1074D40007AB184600F060F807AA05AB114618463A
:1074E40000F06AF803AB05AA0999184600F073F88E
:1074F40000BF0BB05DF804FB00B583B001900198A8
:1075040000F078F8019B184603B05DF804FB10B551
:1075140084B00190019C03AB184600F071F803AAF3
:1075240002AB1946204600F077F803AB184600F08A
:107534006DF802AB1846FFF7DFFF019B184604B055
:1075440010BD00B583B00190019800F077F8019B5D
:10755400184603B05DF804FB00B583B00190019BAD
:107564001846FFF7EEFF019B184603B05DF804FBD5
:1075740000B583B00190019800F066F8019B1433C4
:107584001846FFF7B9FF019B1846FFF7E5FF019B7B
:10759400184603B05DF804FB84B003900291019295
:1075A400029B1A78039B1A70019B1A68039B5A600A
:1075B400039B184604B0704782B001900091009B71
:1075C4001A78019B1A70009B5A68019B5A60019BB0
:1075D400184602B0704700B585B00390029101923D
:1075E4000299039B019A184600F072F8039805B0BB
:1075F4005DF804FB82B00190019B184602B070470D
:1076040082B00190019B184602B0704782B001908D
:10761400019B184602B0704700B585B003900291F3
:107624000192039B0199184600F003F9039B002281
:107634001A61039B184605B05DF804FB82B0019003
:10764400019B184602B0704700B583B00190019BBE
:107654001B69002B1DD0019800F03DF903461B68FF
:107664001946019800F00DF9019800F03BF9024623
:10767400019B1360019800F02EF902460023136069
:10768400019800F036F90246019B1360019B002229
:107694001A6100BF03B05DF804FB00B583B001902C
:1076A4000091019A009B1B6819461046FDF78BFF59
:1076B400019B184603B05DF804FB00B583B001904C
:1076C400019800F02BF9019B184603B05DF804FB08
:1076D40030B593B0059004910392049B11930498E0
:1076E40000F0F9F803461B68109301238DF83F302E
:1076F400109B002B2BD0109B1193049B03F11404BB
:1077040008AB0399184600F00FF90546109800F0ED
:1077140012F903461A462946204600F022F9034688
:107724008DF83F3008AB1846FFF7C7FF9DF83F3090
:10773400002B05D0109800F024F903461B6804E0E0
:10774400109800F025F903461B681093D0E707ABA7
:107754001199184600F0D4F89DF83F30002B2BD037
:107764000AAB0499184600F01AF90AAA09AB1146A3
:10777400184600F025F907AB0999184600F030F9CE
:107784000346002B14D00BA800230193119B0093F4
:10779400039B119A049900F031F901238DF83330D9
:1077A4000DF133020BAB1946059800F0C6F93DE024
:1077B40007AB184600F0D4F9049B03F11404079BAB
:1077C400184600F0B8F805460DAB0399184600F0CA
:1077D400ABF803461A462946204600F0C2F8034691
:1077E4001C460DAB1846FFF768FF002C14D00EA8FA
:1077F40000230193109B0093039B119A049900F0BA
:10780400FDF801238DF83D300DF13D020EAB194614
:10781400059800F092F909E000238DF83E300DF14F
:107824003E0207AB1946059800F087F9059813B096
:1078340030BD30B58BB003900291039C05AB029927
:10784400184600F09DF906AB00221A605A609A604F
:10785400DA6005AD6A4608AB93E8030082E80300EA
:1078640006AB0CCB2946204600F091F905AB18462F
:10787400FFF7E4FE039800F0A3F9039B18460BB04E
:1078840030BD00B585B001900091009B002B1ED047
:10789400009800F07DF803461B6819460198FFF72D
:1078A400F0FF009800F06DF803461B6803930098FE
:1078B40000F097F90346184600F09AF9019B01225B
:1078C4000099184600F0A0F9039B0093DDE700BF80
:1078D40005B05DF804FB82B00190019B04331846A7
:1078E40002B0704782B00190019B0833184602B081
:1078F400704782B00190019B0C33184602B0704768
:1079040000B583B001900091019B00991846FDF7E2
:107914005AFE019B184603B05DF804FB82B0019047
:10792400019B184602B0704782B001900091009B01
:10793400184602B0704710B584B00190019800F069
:1079440050F9024603AB11461846FFF7EDFF044613
:1079540000BF03AB1846FFF7B0FE2346184604B039
:1079640010BD84B0039002910192029B1A78019B8E
:107974001B789A4234BF01230023DBB2184604B0BB
:10798400704782B00190019B0833184602B07047DB
:1079940082B00190019B0C33184602B0704700B5C9
:1079A40083B0019000910098FFF79CFF03461B6889
:1079B40019460198FFF7A4FF019803B05DF804FB92
:1079C40000B583B001900091019A009B1B68194691
:1079D4001046FDF7F8FD019B184603B05DF804FB63
:1079E40082B001900091019B1A68009B9A420CBFDF
:1079F40001230023DBB2184602B0704770B586B08D
:107A04000390029101920093029B019A9A4217D12A
:107A14000099029800F00DF905900198FFF7B1FF65
:107A24000246059B13600298FFF755FF0246059B2B
:107A340013600298FFF75DFF0246059B136064E044
:107A440000250B9B002B1AD10A9B002B15D1029BFE
:107A540003F11404012504AB00991846FFF764FFF1
:107A640006460198FFF767FF03461A46314620464B
:107A7400FFF777FF0346002B01D0012400E0002428
:107A8400002D03D004AB1846FFF717FE002C1ED0C0
:107A94000099029800F0CDF805900198FFF771FF66
:107AA4000246059B13600298FFF71CFF03461B6800
:107AB400019A9A420CBF01230023DBB2002B24D08D
:107AC4000298FFF70FFF0246059B13601DE0009923
:107AD400029800F0AEF805900198FFF759FF0246AE
:107AE400059B13600298FFF704FF03461B68019A85
:107AF4009A420CBF01230023DBB2002B05D002986D
:107B0400FFF7F7FE0246059B1360059800F0B2F8F4
:107B14000246019B1360029B043319460598FFF744
:107B24007CFA029B1B695A1C029B1A6105990398F3
:107B3400FFF7E6FE039806B070BD00B585B003906C
:107B440002910192039B02991846FFF7A6FD019B3F
:107B54001A78039B1A71039B184605B05DF804FB61
:107B640000B583B00190019B1B681846FFF7F4FA37
:107B74000246019B1A60019B184603B05DF804FBA2
:107B840082B001900091019B184602B0704782B008
:107B940010B582B00190009104A981E80C0000990D
:107BA400019800F06EF8019B1C4604AB0FCB84E8EF
:107BB4000F00019B184602B0BDE8104002B07047A8
:107BC40082B00190019B00221A70019B00225A602E
:107BD400019A019B9A60019A019BDA6000BF02B08E
:107BE400704782B00190019B1033184602B0704771
:107BF40000B585B0019003AB1946019800F048F830
:107C040000BF05B05DF804FB00B585B00390029198
:107C14000192029B002B08D0019A13465B00134487
:107C2400DB0019460298F9F750FA00BF05B05DF879
:107C340004FB00B585B001900091019B0121184619
:107C440000F02CF80390039B10330099184600F0C1
:107C540033F80398FFF795FE024600231360039858
:107C6400FFF796FE024600231360039B184605B0F7
:107C74005DF804FB82B00190019B0433184602B006
:107C8400704782B001900091019B184602B0704782
:107C940082B00190009100BF02B0704700B583B07C
:107CA4000190009100220099019800F019F8034610
:107CB400184603B05DF804FB00B585B0019000914F
:107CC400019800F03BF800F03EF803AB1A46009927
:107CD400019800F03AF800BF05B05DF804FB00001D
:107CE40000B587B0039002910192039800F040F828
:107CF4000246029B93428CBF01230023DBB2002B7C
:107D040005D00D48F9F72EF80120F8F7C6FC029BC0
:107D1400002B0BD0029A13465B001344DB0005933F
:107D24000598F9F7C7F90490049B00E0002318466E
:107D340007B05DF804FB00BF888E010882B0019093
:107D4400184602B070471846704700B585B00390D6
:107D540002910192039B19460820F9F782F9034620
:107D64000299184600F00CF800BF05B05DF804FB5A
:107D740082B00190014B184602B07047AAAAAA0A21
:107D840082B001900091009B1A78019B1A70009BAD
:107D94005A68019B5A60019B184602B07047000064
:107DA40000B583B001900B468DF80330064A019B61
:107DB4001A609DF803300199184600F06FF8019B92
:107DC400184603B05DF804FBA08E010882B0019050
:107DD400034A019B1A60019B184602B0704700BF1A
:107DE400A08E010800B583B00190019B184600F0F5
:107DF400B1F8019B184603B05DF804FB08B5134BBA
:107E04001B78BFF35B8FDBB203F00103002B0CBFC5
:107E140001230023DBB2002B15D00C4805F03CFCF9
:107E24000346002B14BF01230023DBB2002B0AD02E
:107E3400074800F05EF8054805F036FC054A064997
:107E440003480FF007FE024B184608BD0CCB022472
:107E5400F4CA0224A4D20224E97D000800B587B044
:107E640003468DF80730FFF7C9FF059003AB0DF10A
:107E740007020599184600F081F803AB184600F094
:107E84008CF803465B681A681C32126818469047DF
:107E94000490049B184607B05DF804FB00B58BB052
:107EA400034600918DF80730FFF7A8FF09906A4652
:107EB4000DF1070107AB184600F07AF807AA05ABE5
:107EC4001146184600F084F803AB05AA0999184630
:107ED40000F08DF800BF0BB05DF804FB00B583B073
:107EE4000190019800F092F8019B184603B05DF8E8
:107EF40004FB10B584B00190019C03AB184600F05C
:107F04008BF803AA02AB1946204600F091F803ABA4
:107F1400184600F087F802AB1846FFF7DFFF019B15
:107F2400184604B010BD00B583B00190019800F06C
:107F340091F8019B184603B05DF804FB00B583B0CB
:107F44000190019B1846FFF7EEFF019B184603B012
:107F54005DF804FB00B583B00190019800F080F84F
:107F6400019B14331846FFF7B9FF019B1846FFF72E
:107F7400E5FF019B184603B05DF804FB00B585B02E
:107F84000390029101920299039B019A184600F012
:107F940090F8039805B05DF804FB00B583B0019038
:107FA400019800F0A8F80346184603B05DF804FBF6
:107FB40084B0039002910192029B1A78039B1A7079
:107FC400019B1A68039B5A60039B184604B07047D0
:107FD40082B001900091009B1A78019B1A70009B5B
:107FE4005A68019B5A60019B184602B0704700B55D
:107FF40085B00390029101920299039B019A18465D
:1080040000F08CF8039805B05DF804FB82B0019091
:10801400019B184602B0704782B00190019B18463C
:1080240002B0704782B00190019B184602B07047BD
:1080340000B585B0039002910192039B0199184603
:1080440000F01DF9039B00221A61039B184605B03A
:108054005DF804FB82B00190019B184602B07047A2
:1080640000B583B00190019B1B69002B1DD00198C2
:1080740000F057F903461B681946019800F027F9E8
:10808400019800F055F90246019B1360019800F035
:1080940048F9024600231360019800F050F90246A3
:1080A400019B1360019B00221A6100BF03B05DF8BD
:1080B40004FB00B585B003900291019201990298E6
:1080C40000F044F903461946039800F087F9039831
:1080D40005B05DF804FB00B583B001900091019AEE
:1080E400009B1B6819461046FDF76DFA019B184664
:1080F40003B05DF804FB82B00190019B1B68103350
:10810400184602B0704700B583B00190019800F0A2
:1081140073F9019B184603B05DF804FB30B593B0C6
:10812400059004910392049B1193049800F0F9F8CC
:1081340003461B68109301238DF83F30109B002BDE
:108144002BD0109B1193049B03F1140408AB0399E7
:10815400184600F057F90546109800F05AF90346FE
:108164001A462946204600F06AF903468DF83F3046
:1081740008AB1846FFF7C7FF9DF83F30002B05D02A
:10818400109800F06CF903461B6804E0109800F0A6
:108194006DF903461B681093D0E707AB1199184695
:1081A40000F01CF99DF83F30002B2BD00AAB04994A
:1081B400184600F062F90AAA09AB1146184600F005
:1081C4006DF907AB0999184600F078F90346002BBE
:1081D40014D00BA800230193119B0093039B119AC5
:1081E400049900F079F901238DF833300DF133024D
:1081F4000BAB1946059800F00EFA3DE007AB1846A4
:1082040000F01CFA049B03F11404079B184600F0C9
:1082140000F905460DAB0399184600F0F3F8034640
:108224001A462946204600F00AF903461C460DABBF
:108234001846FFF768FF002C14D00EA80023019302
:10824400109B0093039B119A049900F045F90123B4
:108254008DF83D300DF13D020EAB1946059800F046
:10826400DAF909E000238DF83E300DF13E0207AB48
:108274001946059800F0CFF9059813B030BD30B514
:108284008BB003900291039C05AB0299184600F051
:10829400E5F906AB00221A605A609A60DA6005AD0F
:1082A4006A4608AB93E8030082E8030006AB0CCBF4
:1082B4002946204600F0D9F905AB1846FFF7CAFE57
:1082C400039800F0EBF9039B18460BB030BD00B5E2
:1082D40085B001900091009B002B1ED0009800F007
:1082E400C5F803461B6819460198FFF7F0FF00988C
:1082F40000F0B5F803461B680393009800F0DFF91B
:108304000346184600F0E2F9019B01220099184641
:1083140000F0E8F9039B0093DDE700BF05B05DF8CA
:1083240004FB82B00190019B0433184602B07047ED
:1083340082B00190019B0833184602B0704782B0A6
:108344000190019B0C33184602B0704710B584B0FD
:1083540001900091019B0393019800F0D8F90290D9
:10836400029B002B21D0019B03F11404029800F01E
:1083740050F80346009A1946204600F060F8034678
:1083840083F00103DBB2002B08D0029B0393029815
:1083940000F065F803461B680293E1E7029800F0D9
:1083A40065F803461B680293DAE7019B039A9A4235
:1083B40010D0019B03F11404039800F02AF803463B
:1083C4001A460099204600F03AF80346002B01D0E3
:1083D400019B0393039B184604B010BD00B583B002
:1083E40001900091019B00991846FDF7ECF8019B60
:1083F400184603B05DF804FB82B00190019B184657
:1084040002B0704782B001900091009B184602B000
:10841400704710B584B00190019800F050F90246FD
:1084240003AB11461846FFF7EDFF044600BF03AB4C
:108434001846FFF768FE2346184604B010BD84B002
:10844400039002910192029B1A78019B1B789A4235
:1084540034BF01230023DBB2184604B0704782B056
:108464000190019B0833184602B0704782B0019016
:10847400019B0C33184602B0704700B583B00190DD
:1084840000910098FFF754FF03461B6819460198B2
:10849400FFF7A4FF019803B05DF804FB00B583B0B7
:1084A40001900091019A009B1B6819461046FDF744
:1084B4008AF8019B184603B05DF804FB82B0019072
:1084C4000091019B1A68009B9A420CBF0123002370
:1084D400DBB2184602B0704770B586B003900291C3
:1084E40001920093029B019A9A4217D10099029833
:1084F40000F014F905900198FFF7B1FF0246059BBF
:1085040013600298FFF70DFF0246059B1360029863
:10851400FFF715FF0246059B136064E000250B9BE3
:10852400002B1AD10A9B002B15D1029B03F11404D2
:10853400012504AB00991846FFF764FF064601982D
:10854400FFF767FF03461A4631462046FFF777FFD9
:108554000346002B01D0012400E00024002D03D0A9
:1085640004AB1846FFF7CFFD002C1ED000990298EB
:1085740000F0D4F805900198FFF771FF0246059BBF
:1085840013600298FFF7D4FE03461B68019A9A42CF
:108594000CBF01230023DBB2002B24D00298FFF789
:1085A400C7FE0246059B13601DE00099029800F087
:1085B400B5F805900198FFF759FF0246059B136033
:1085C4000298FFF7BCFE03461B68019A9A420CBF4F
:1085D40001230023DBB2002B05D00298FFF7AFFE86
:1085E4000246059B1360059800F0B9F80246019B0A
:1085F4001360029B043319460598FEF70EFD029B97
:108604001B695A1C029B1A6105990398FFF7E6FE41
:10861400039806B070BD00B585B003900291019235
:10862400039B02991846FFF756FD019B1A78039B9A
:108634001A71039B184605B05DF804FB00B583B0BE
:108644000190019B1B681846FEF786FD0246019BBC
:108654001A60019B184603B05DF804FB82B00190D8
:108664000091019B184602B0704782B010B582B0E9
:108674000190009104A981E80C000099019800F090
:1086840075F8019B1C4604AB0FCB84E80F00019BDB
:10869400184602B0BDE8104002B0704782B00190A5
:1086A400019B00221A70019B00225A60019A019BCF
:1086B4009A60019A019BDA6000BF02B0704782B0F1
:1086C4000190019B1033184602B0704700B585B085
:1086D400019003AB1946019800F04FF800BF05B0B4
:1086E4005DF804FB00B585B0039002910192029BF2
:1086F400002B08D0019A13465B001344DB00194693
:108704000298F8F7E2FC00BF05B05DF804FB82B004
:108714000190019B5B68184602B0704700B585B0B4
:1087240001900091019B0121184600F02CF8039060
:10873400039B10330099184600F033F80398FFF7B1
:108744008EFE0246002313600398FFF78FFE024655
:1087540000231360039B184605B05DF804FB82B048
:108764000190019B0433184602B0704782B0019017
:108774000091019B184602B0704782B001900091AD
:1087840000BF02B0704700B583B001900091002291
:108794000099019800F018F80346184603B05DF8F4
:1087A40004FB00B585B001900091019800F03AF8FF
:1087B40000F03DF803AB1A460099019800F039F82F
:1087C40000BF05B05DF804FB00B587B003900291CB
:1087D4000192039800F040F80246029B93428CBF3A
:1087E40001230023DBB2002B05D00D48F8F7BAFAB9
:1087F4000120F7F752FF029B002B0BD0029A13467D
:108804005B001344DB0005930598F8F753FC0490D0
:10881400049B00E00023184607B05DF804FB00BF8A
:10882400C88E010882B00190184602B070471846FD
:10883400704700B585B0039002910192039B1946DD
:108844000820F8F70EFC03460299184600F00CF8CD
:1088540000BF05B05DF804FB82B00190014B1846DF
:1088640002B07047AAAAAA0A82B001900091009BA4
:108874001A78019B1A70009B5A68019B5A60019BED
:10888400184602B07047000000B583B00190019B08
:1088940000211846FFF784FA104A019B1A60019BD5
:1088A40000229A60019B0C332022002118460FF00D
:1088B40023FC019B002283F82C20019B002283F8D7
:1088C4002D20019B002283F82E20019B0022C3F857
:1088D4003025019B184603B05DF804FBE08E0108C7
:1088E40030B58DB00190019B93F82E30DBB203F0CC
:1088F4003F02019913469B0013449B000B44303301
:1089040007AC1D460FCD0FC42B682360079A089B44
:10891400DB001344043393E80600019800F0BEF929
:10892400019B93F82E30DBB20133DAB2019B83F85A
:108934002E20019B93F82E30DBB203F03F02019905
:1089440013469B0013449B000B44303302AC1D467A
:108954000FCD0FC42B682360029A039BDB001344E2
:10896400043393E80600019800F083F9029B1B6826
:1089740093F88130DBB2012B14BF01230023DBB257
:10898400002B00D0F2E7029B18680499059B9AB269
:10899400069B9BB212FB03F39BB21A4609F0DCFD63
:1089A400019B93F82D30DBB21A46019B93F82E30CD
:1089B400DBB201339A42D4BF01230023DBB2002B84
:1089C40007D0019B002283F82D20019B002283F80D
:1089D4002E2000BF0DB030BD00B589B003900291C8
:1089E40001920093039B9A68029BDB00134405AA3F
:1089F400043393E8030082E80300039B9B681B682D
:108A04000793039B93F82D30DBB203F03F02039BE3
:108A14009968039813469B0013449B000344303326
:108A24001960039B93F82D30DBB203F03F020399E6
:108A340013469B0013449B000B443433029A1A6080
:108A4400039B93F82D30DBB203F03F0200990B46F1
:108A54005B001944039813469B0013449B00034492
:108A64003C331960039B93F82D30DBB203F03F02D3
:108A7400039913469B0013449B000B443833019A1B
:108A84001A60039B93F82D30DBB203F03F02039985
:108A940013469B0013449B000B44403301221A608D
:108AA4000598BDF818109DF81A30C3F30003DBB223
:108AB4001A4605F063FA039B9B681868009B9BB2F7
:108AC4001A46520013449AB26423019908F034FE02
:108AD4000598BDF818109DF81A30C3F30003DBB2F3
:108AE400DB43DBB21A4605F049FA00BF09B05DF872
:108AF40004FB00B589B00390029101920093039B9B
:108B04009A68029BDB00134406AA043393E803002B
:108B140082E8030005AB00210A461A800A469A70CF
:108B2400019B1B881B0A9BB2DBB28DF81530019B9D
:108B34001B88DBB28DF8163006AB93E80600039869
:108B440000F097F8039B9B681868009B9BB21A4639
:108B5400520013449AB26423019908F0EDFD06AB68
:108B640093E80600039800F099F800BF09B05DF897
:108B740004FB00B587B00390029101920093039B1C
:108B84009A68029BDB00134404AA043393E80300AD
:108B940082E8030004AB93E80600039800F069F848
:108BA400039B9B681868009B9AB26423019908F0A0
:108BB400C3FD04AB93E80600039800F06FF800BF10
:108BC40007B05DF804FB00B587B0039002910192F1
:108BD4000093039B9A68029BDB00134404AA0433AA
:108BE40093E8030082E8030004AB93E806000398CB
:108BF40000F03FF8039B9B681868009B9AB26423BB
:108C0400019908F093FF04AB93E80600039800F081
:108C140045F80023184607B05DF804FB00B587B09B
:108C24000390029101920093039B9A68029BDB00DC
:108C3400134404AA043393E8030082E8030004AB5A
:108C440093E80600039800F014F8039B9B681868E7
:108C5400009B9AB26423019908F068FF04AB93E87F
:108C64000600039800F01AF80023184607B05DF8D0
:108C740004FB00B585B0039001AB83E806000198BE
:108C8400BDF808109DF80A30C3F30003DBB21A469E
:108C940005F074F900BF05B05DF804FB00B585B0BC
:108CA400039001AB83E806000198BDF808109DF815
:108CB4000A30C3F30003DBB2DB43DBB21A4605F030
:108CC4005DF900BF05B05DF804FB000000B583B09A
:108CD4000190064A019B1A60019B1846FFF776F83B
:108CE400019B184603B05DF804FB00BFE08E010849
:108CF40000B583B001900198FFF7E8FF01980FF0E9
:108D040099FA019B184603B05DF804FB82B0019008
:108D1400019B184602B0704782B001900091019BFC
:108D2400009A9A6000BF02B0704786B00390029127
:108D340013468DF80730039B93F92C30062B02DD84
:108D44004FF0FF3316E000230593039A059B02338B
:108D54009B0013445B68002B03D0059B01330593F0
:108D6400F3E7039A059B02339B001344029A5A606B
:108D7400059B5BB2184606B07047000000B583B08F
:108D840001900091019B012B0CD1009B4FF6FF72C7
:108D9400934207D10548FFF777FD054A0549034883
:108DA4000EF058FE00BF03B05DF804FB10CB0224A4
:108DB400A4D20224D18C000808B54FF6FF7101201B
:108DC400FFF7DCFF08BD000000B585B00190019BF2
:108DD4000121184600F084FA044A019B1A606423B6
:108DE4000393019B184605B05DF804FB108F01083E
:108DF40000B583B00190064A019B1A60019B184696
:108E040000F084FA019B184603B05DF804FB00BF30
:108E1400108F010800B583B001900198FFF7E8FFB7
:108E240001980FF007FA019B184603B05DF804FBA4
:108E340086B0039001A880E806000093642305939C
:108E44000A23049300BF06B0704782B001900091DA
:108E540000BF02B0704700B587B00390684680E851
:108E64000E009DF80630002B07D19DF80830002B2A
:108E740003D19DF80730002B23D064238DF81730DD
:108E8400039B5B689DF817100322184603F0EFF963
:108E9400039B5B689DF817100022184603F0E7F95E
:108EA400039B5B689DF817100222184603F0DFF954
:108EB400039B5B689DF817100122184603F0D7F94D
:108EC4001BE0039B5B6803220021184603F0CFF9E3
:108ED400039B5B6800220021184603F0C8F9039B3A
:108EE4005B6802220021184603F0C1F9039B5B680A
:108EF40001220021184603F0BAF9039B9868039BEA
:108F04009B681B6808331B68BDF9002091B20022DE
:108F14009847039B9868039B9B681B6808331B68EE
:108F2400BDF9022091B20122984700BF07B05DF855
:108F340004FB82B00190009100BF02B070470000B2
:108F440000B583B001900091019B012B0CD1009BD3
:108F54004FF6FF72934207D10548FFF735FF054AE4
:108F6400054903480EF076FD00BF03B05DF804FB2D
:108F740044D00224A4D20224F58D000808B54FF68B
:108F8400FF710120FFF7DCFF08BD000000B583B0CE
:108F940001900B468DF80330019B9DF80320114688
:108FA400184600F07BF9074A019B1A600020FEF77F
:108FB40055FF0246019B5A60019B184603B05DF8B9
:108FC40004FB00BF308F010800B583B0019000910D
:108FD400019B5A68019B5B681B6820331B680099DE
:108FE4001046984700BF03B05DF804FB00B583B09A
:108FF4000190064A019B1A60019B184600F064F92F
:10900400019B184603B05DF804FB00BF308F0108D4
:1090140000B583B001900198FFF7E8FF01980FF0C5
:1090240009F9019B184603B05DF804FB10B586B03E
:1090340001900B46ADF8023013468DF80130BDF8AF
:1090440002309B010593059B1B0CDBB243F04003EC
:109054008DF81330059B1B0A8DF81230059B8DF893
:1090640011309DF813308DF80C309DF812308DF8C6
:109074000D309DF811308DF80E30019B5868019B1E
:109084005B681B6808331C689DF8013003F001011C
:1090940003AA0123A04700BF06B010BD00B583B0EA
:1090A40001900091019B012B0DD1009B4FF6FF72A3
:1090B400934208D101210648FFF768FF054A064993
:1090C40003480EF0C7FC00BF03B05DF804FB00BF0B
:1090D40050D00224A4D20224F18F000808B54FF620
:1090E400FF710120FFF7DAFF08BD000010B584B05E
:1090F400039001A880E806000093294A039B1A60A4
:10910400039B042283F84420039B00229A66039B5A
:109114000022DA66039B01221A67039B002283F86C
:109124007420039B002283F87520039B0022DA67D6
:10913400039B0022C3F88020039B0022C3F88420F1
:1091440001AB93E8030000F08DF90246039BDA605B
:10915400039B009A1A61E0200FF054F803461C4662
:10916400204602F0C3F9039B5C604FF48E700FF04D
:1091740049F803461C46204602F040FD039B9C60D0
:10918400039B9B684FF07E51184602F0E4FE0021D9
:10919400039800F048F8039B184604B010BD00BFC4
:1091A400488F010810B588B003900291029A05AB6C
:1091B4001068516803C3127A1A70039B9968684651
:1091C40005AB0CCB02F02EFF05AB6A4610681860A5
:1091D40092889A80039BD868039BDB681B681033D2
:1091E4001C6805AB0ECBA04700BF08B010BD00B58E
:1091F40085B00390029101920093039B9B680299AE
:10920400184602F0A8FE039B9B680199184602F0D9
:10921400D4FE039B9B680099184602F06EFE00BFC3
:1092240005B05DF804FB00B583B001900B46ADF8C2
:109234000230019BDB685B68BDF8022011461846CA
:1092440003F02EF800BF03B05DF804FB00B583B053
:1092540001900A4A019B1A60019B5B68002B08D0AD
:10926400019B5A68019B5B681B6804331B681046AA
:109274009847019B184603B05DF804FB488F01082A
:1092840000B583B001900198FFF7E0FF01980EF05C
:10929400D1FF019B184603B05DF804FB00B583B011
:1092A40001900B468DF80330064A019B1A609DF825
:1092B40003300199184600F016F9019B184603B0D3
:1092C4005DF804FB588F010882B00190034A019BAA
:1092D4001A60019B184602B0704700BF588F0108FE
:1092E40000B583B001900B468DF80330064A019B0C
:1092F4001A609DF803300199184600F02CF9019B7F
:10930400184603B05DF804FB708F010882B0019029
:10931400034A019B1A60019B184602B0704700BFC4
:10932400708F010882B001900091019B009A5A60ED
:1093340000BF02B0704700B585B00390029101925E
:10934400039B029A9A60039B9A68039B9B681B6821
:109354000C331B6801991046984700BF05B05DF8AF
:1093640004FB00B583B00190019B184600F049F955
:10937400019B184603B05DF804FB00B583B001906F
:10938400019B184600F08DF9019B184603B05DF867
:1093940004FB00B583B00190019B184600F0D1F99D
:1093A400019B184603B05DF804FB00B583B001903F
:1093B400019B184600F0F4F8019B1833184600F09E
:1093C4003FF9019B3033184600F08AF9019B184697
:1093D40003B05DF804FB00B583B00190019B30330A
:1093E4001846FFF7D6FF019B18331846FFF7C5FF51
:1093F400019B1846FFF7B5FF019B184603B05DF8C3
:1094040004FB000008B5134B1B78BFF35B8FDBB282
:1094140003F00103002B0CBF01230023DBB2002B5C
:1094240015D00C4804F038F90346002B14BF01236F
:109434000023DBB2002B0AD00748FFF7B6FF05482C
:1094440004F032F9054A064903480EF003FB024BC7
:10945400184608BDA0D0022458D00224A4D2022465
:10946400DB93000800B589B06B4683E80300FFF77F
:10947400C9FF0790079903A86B4602331A4600F008
:1094840074F903AB184600F07FF903465B68069352
:10949400079B03F1300104A86B4601331A4600F020
:1094A4007EF904AB184600F089F903465B68019A1B
:1094B40019460698FFF73FFF079B03F1180105AB18
:1094C4006A46184600F085F905AB184600F090F995
:1094D40003465B6819460698FFF724FF069B184667
:1094E40009B05DF804FB10B588B0034600918DF80F
:1094F4000730FFF787FF0790079B03F130046A46A4
:109504000DF1070105AB184600F07DF903AB05AA80
:109514002146184600F087F900BF08B010BD10B509
:1095240088B0034600918DF80730FFF76BFF079072
:10953400079B03F118046A460DF1070105AB1846B1
:1095440000F080F903AB05AA2146184600F08AF919
:1095540000BF08B010BD10B588B0034600918DF867
:109564000730FFF74FFF0790079C6A460DF107018C
:1095740005AB184600F085F903AB05AA2146184649
:1095840000F08FF900BF08B010BD00B583B00190A2
:10959400019800F095F9019B184603B05DF804FBAF
:1095A40010B584B00190019C03AB184600F08EF90D
:1095B40003AA02AB1946204600F094F903AB1846FF
:1095C40000F08AF902AB1846FFF7DFFF019B18464B
:1095D40004B010BD00B583B00190019800F094F977
:1095E400019B184603B05DF804FB00B583B00190FD
:1095F400019B1846FFF7EEFF019B184603B05DF888
:1096040004FB00B583B00190019800F083F9019B3D
:1096140014331846FFF7B9FF019B1846FFF7E5FF1F
:10962400019B184603B05DF804FB00B583B00190BC
:10963400019800F098F9019B184603B05DF804FB0B
:1096440010B584B00190019C03AB184600F091F969
:1096540003AA02AB1946204600F097F903AB18465B
:1096640000F08DF902AB1846FFF7DFFF019B1846A7
:1096740004B010BD00B583B00190019800F097F9D3
:10968400019B184603B05DF804FB00B583B001905C
:10969400019B1846FFF7EEFF019B184603B05DF8E7
:1096A40004FB00B583B00190019800F086F9019B9A
:1096B40014331846FFF7B9FF019B1846FFF7E5FF7F
:1096C400019B184603B05DF804FB00B583B001901C
:1096D400019800F09BF9019B184603B05DF804FB68
:1096E40010B584B00190019C03AB184600F094F9C6
:1096F40003AA02AB1946204600F09AF903AB1846B8
:1097040000F090F902AB1846FFF7DFFF019B184603
:1097140004B010BD00B583B00190019800F09AF92F
:10972400019B184603B05DF804FB00B583B00190BB
:10973400019B1846FFF7EEFF019B184603B05DF846
:1097440004FB00B583B00190019800F089F9019BF6
:1097540014331846FFF7B9FF019B1846FFF7E5FFDE
:10976400019B184603B05DF804FB00B585B0039077
:10977400029101920299039B019A184600F099F90B
:10978400039805B05DF804FB00B583B0019001981F
:1097940000F0B1F90346184603B05DF804FB00B5C8
:1097A40085B00390029101920299039B019A184695
:1097B40000F0A9F9039805B05DF804FB00B583B087
:1097C4000190019800F0C1F90346184603B05DF812
:1097D40004FB00B585B00390029101920299039BAA
:1097E400019A184600F0B9F9039805B05DF804FB36
:1097F40000B583B00190019800F0D1F903461846F2
:1098040003B05DF804FB84B0039002910192029BC3
:109814001A78039B1A70019B1A68039B5A60039B76
:10982400184604B0704700B585B0039002910192C8
:109834000299039B019A184600F0C4F9039805B0F5
:109844005DF804FB84B0039002910192029B1A78A4
:10985400039B1A70019B1A68039B5A60039B18466A
:1098640004B0704700B585B003900291019202994B
:10987400039B019A184600F061FA039805B05DF85D
:1098840004FB84B0039002910192029B1A78039B1B
:109894001A70019B1A68039B5A60039B184604B014
:1098A400704700B585B00390029101920299039B21
:1098B400019A184600F0FEFA039805B05DF804FB1F
:1098C40082B00190019B184602B0704782B00190AB
:1098D400019B184602B0704782B00190019B184664
:1098E40002B0704700B585B0039002910192039BCA
:1098F4000199184600F08FFB039B00221A61039B19
:10990400184605B05DF804FB82B00190019B18462F
:1099140002B0704700B583B00190019B1B69002B16
:109924001DD0019800F0C9FB03461B681946019835
:1099340000F099FB019800F0C7FB0246019B1360FD
:10994400019800F0BAFB024600231360019800F06E
:10995400C2FB0246019B1360019B00221A6100BFF7
:1099640003B05DF804FB82B00190019B184602B07D
:10997400704782B00190019B184602B0704782B0D4
:109984000190019B184602B0704700B585B0039062
:1099940002910192039B0199184600F0A3FB039BDB
:1099A40000221A61039B184605B05DF804FB82B0DF
:1099B4000190019B184602B0704700B583B0019036
:1099C400019B1B69002B1DD0019800F0DDFB0346B1
:1099D4001B681946019800F0ADFB019800F0DBFB11
:1099E4000246019B1360019800F0CEFB024600235F
:1099F4001360019800F0D6FB0246019B1360019BA3
:109A040000221A6100BF03B05DF804FB82B001902C
:109A1400019B184602B0704782B00190019B184622
:109A240002B0704782B00190019B184602B07047A3
:109A340000B585B0039002910192039B01991846E9
:109A440000F0B7FB039B00221A61039B184605B084
:109A54005DF804FB82B00190019B184602B0704788
:109A640000B583B00190019B1B69002B1DD00198A8
:109A740000F0F1FB03461B681946019800F0C1FB96
:109A8400019800F0EFFB0246019B1360019800F07F
:109A9400E2FB024600231360019800F0EAFB024651
:109AA400019B1360019B00221A6100BF03B05DF8A3
:109AB40004FB00B585B003900291019201990298CC
:109AC40000F0DEFB03461946039800F021FC0398DE
:109AD40005B05DF804FB00B583B001900091019AD4
:109AE400009B1B6819461046FBF76DFD019B184649
:109AF40003B05DF804FB82B00190019B1B68103336
:109B0400184602B0704700B585B0039002910192E7
:109B14000199029800F00AFC03461946039800F0E4
:109B24004DFC039805B05DF804FB00B583B00190CB
:109B34000091019A009B1B6819461046FBF743FDF0
:109B4400019B184603B05DF804FB82B00190019BB1
:109B54001B681033184602B0704700B585B00390F7
:109B6400029101920199029800F036FC03461946CD
:109B7400039800F079FC039805B05DF804FB00B588
:109B840083B001900091019A009B1B68194610460E
:109B9400FBF719FD019B184603B05DF804FB82B086
:109BA4000190019B1B681033184602B0704700B542
:109BB40083B00190019800F065FC019B184603B046
:109BC4005DF804FB30B593B0059004910392049BB7
:109BD4001193049800F03FFB03461B681093012384
:109BE4008DF83F30109B002B2BD0109B1193049BBE
:109BF40003F1140408AB0399184600F049FC054628
:109C0400109800F04CFC03461A462946204600F002
:109C14005CFC03468DF83F3008AB1846FFF7C7FFDE
:109C24009DF83F30002B05D0109800F05EFC0346F1
:109C34001B6804E0109800F05FFC03461B68109357
:109C4400D0E707AB1199184600F0B8FB9DF83F30F8
:109C5400002B2BD00AAB0499184600F054FC0AAA36
:109C640009AB1146184600F05FFC07AB099918468A
:109C740000F06AFC0346002B14D00BA800230193C8
:109C8400119B0093039B119A049900F06BFC012330
:109C94008DF833300DF133020BAB1946059800F003
:109CA40000FD3DE007AB184600F00EFD049B03F1F8
:109CB4001404079B184600F0F2FB05460DAB03990C
:109CC400184600F0E5FB03461A462946204600F0F4
:109CD400FCFB03461C460DAB1846FFF768FF002C3F
:109CE40014D00EA800230193109B0093039B119A98
:109CF400049900F037FC01238DF83D300DF13D024D
:109D04000EAB1946059800F0CCFC09E000238DF851
:109D14003E300DF13E0207AB1946059800F0C1FC38
:109D2400059813B030BD00B583B00190019800F0E0
:109D3400DBFC019B184603B05DF804FB30B593B01F
:109D4400059004910392049B1193049800F01CFA6B
:109D540003461B68109301238DF83F30109B002BA2
:109D64002BD0109B1193049B03F1140408AB0399AB
:109D7400184600F0BFFC0546109800F0C2FC0346EC
:109D84001A462946204600F0D2FC03468DF83F309F
:109D940008AB1846FFF7C7FF9DF83F30002B05D0EE
:109DA400109800F0D4FC03461B6804E0109800F0FF
:109DB400D5FC03461B681093D0E707AB11991846EE
:109DC40000F052FB9DF83F30002B2BD00AAB0499D6
:109DD400184600F0CAFC0AAA09AB1146184600F05E
:109DE400D5FC07AB0999184600F0E0FC0346002BAC
:109DF40014D00BA800230193119B0093039B119A89
:109E0400049900F0E1FC01238DF833300DF13302A5
:109E14000BAB1946059800F076FD3DE007AB1846FC
:109E240000F084FD049B03F11404079B184600F022
:109E340068FC05460DAB0399184600F05BFC03462D
:109E44001A462946204600F072FC03461C460DAB18
:109E54001846FFF768FF002C14D00EA800230193C6
:109E6400109B0093039B119A049900F0ADFC01230D
:109E74008DF83D300DF13D020EAB1946059800F00A
:109E840042FD09E000238DF83E300DF13E0207ABA0
:109E94001946059800F037FD059813B030BD00B59C
:109EA40083B00190019800F051FD019B184603B066
:109EB4005DF804FB30B593B0059004910392049BC4
:109EC4001193049800F0F9F803461B6810930123DA
:109ED4008DF83F30109B002B2BD0109B1193049BCB
:109EE40003F1140408AB0399184600F035FD054648
:109EF400109800F038FD03461A462946204600F023
:109F040048FD03468DF83F3008AB1846FFF7C7FFFE
:109F14009DF83F30002B05D0109800F04AFD034611
:109F24001B6804E0109800F04BFD03461B68109377
:109F3400D0E707AB1199184600F0EAF99DF83F30D5
:109F4400002B2BD00AAB0499184600F040FD0AAA56
:109F540009AB1146184600F04BFD07AB09991846AA
:109F640000F056FD0346002B14D00BA800230193E8
:109F7400119B0093039B119A049900F057FD012350
:109F84008DF833300DF133020BAB1946059800F010
:109F9400ECFD3DE007AB184600F0FAFD049B03F12D
:109FA4001404079B184600F0DEFC05460DAB03992C
:109FB400184600F0D1FC03461A462946204600F014
:109FC400E8FC03461C460DAB1846FFF768FF002C5F
:109FD40014D00EA800230193109B0093039B119AA5
:109FE400049900F023FD01238DF83D300DF13D026D
:109FF4000EAB1946059800F0B8FD09E000238DF872
:10A004003E300DF13E0207AB1946059800F0ADFD58
:10A01400059813B030BD30B58BB003900291039C0A
:10A0240005AB0299184600F0C3FD06AB00221A6086
:10A034005A609A60DA6005AD6A4608AB93E803009B
:10A0440082E8030006AB0CCB2946204600F0B7FD9E
:10A0540005AB1846FFF758FC039800F0C9FD039BB5
:10A0640018460BB030BD00B585B001900091009B3F
:10A07400002B1ED0009800F0A3FC03461B68194671
:10A084000198FFF7F0FF009800F093FC03461B686B
:10A094000393009800F0BDFD0346184600F0C0FD90
:10A0A400019B01220099184600F0C6FD039B009312
:10A0B400DDE700BF05B05DF804FB82B00190019BB1
:10A0C4000433184602B0704782B00190019B0833F4
:10A0D400184602B0704782B00190019B0C331846B9
:10A0E40002B0704730B58BB003900291039C05AB6E
:10A0F4000299184600F0B5FD06AB00221A605A60BA
:10A104009A60DA6005AD6A4608AB93E8030082E81A
:10A11400030006AB0CCB2946204600F0A9FD05AB95
:10A124001846FFF744FC039800F0BBFD039B184658
:10A134000BB030BD00B585B001900091009B002BA1
:10A144001ED0009800F00AFB03461B6819460198CC
:10A15400FFF7F0FF009800F0FAFA03461B68039338
:10A16400009800F0AFFD0346184600F0B2FD019BD5
:10A1740001220099184600F0B8FD039B0093DDE727
:10A1840000BF05B05DF804FB82B00190019B04336D
:10A19400184602B0704782B00190019B08331846FC
:10A1A40002B0704782B00190019B0C33184602B094
:10A1B400704730B58BB003900291039C05AB0299B4
:10A1C400184600F0A7FD06AB00221A605A609A6098
:10A1D400DA6005AD6A4608AB93E8030082E8030041
:10A1E40006AB0CCB2946204600F09BFD05AB184678
:10A1F400FFF730FC039800F0ADFD039B18460BB04D
:10A2040030BD00B585B001900091009B002B1ED09D
:10A21400009800F071F903461B6819460198FFF78E
:10A22400F0FF009800F061F903461B68039300985F
:10A2340000F0A1FD0346184600F0A4FD019B012295
:10A244000099184600F0AAFD039B0093DDE700BFC8
:10A2540005B05DF804FB82B00190019B04331846FD
:10A2640002B0704782B00190019B0833184602B0D7
:10A27400704782B00190019B0C33184602B07047BE
:10A2840010B584B001900091019B0393019800F0F4
:10A294009AFD0290029B002B21D0019B03F1140430
:10A2A400029800F060FB0346009A1946204600F02D
:10A2B40070FB034683F00103DBB2002B08D0029B42
:10A2C4000393029800F075FB03461B680293E1E7D1
:10A2D400029800F075FB03461B680293DAE7019BC2
:10A2E400039A9A4210D0019B03F11404039800F0DE
:10A2F4003AFB03461A460099204600F04AFB0346FF
:10A30400002B01D0019B0393039B184604B010BD9E
:10A3140000B583B001900091019B00991846FBF7AA
:10A3240052F9019B184603B05DF804FB10B584B0E4
:10A3340001900091019B0393019800F04BFD029062
:10A34400029B002B21D0019B03F11404029800F01E
:10A35400A6F80346009A1946204600F0B6F80346CC
:10A3640083F00103DBB2002B08D0029B0393029815
:10A3740000F0BBF803461B680293E1E7029800F083
:10A38400BBF803461B680293DAE7019B039A9A42DF
:10A3940010D0019B03F11404039800F080F80346E5
:10A3A4001A460099204600F090F80346002B01D08D
:10A3B400019B0393039B184604B010BD00B583B002
:10A3C40001900091019B00991846FBF7FCF8019B52
:10A3D400184603B05DF804FB10B584B001900091F9
:10A3E400019B0393019800F0FCFC0290029B002B5C
:10A3F40021D0019B03F11404029800F082F9034672
:10A40400009A1946204600F092F9034683F00103AE
:10A41400DBB2002B08D0029B0393029800F097F95B
:10A4240003461B680293E1E7029800F097F903469C
:10A434001B680293DAE7019B039A9A4210D0019BAE
:10A4440003F11404039800F05CF903461A460099DA
:10A45400204600F06CF90346002B01D0019B0393C6
:10A46400039B184604B010BD00B583B00190009161
:10A47400019B00991846FBF7A6F8019B184603B008
:10A484005DF804FB82B00190019B184602B070474E
:10A4940082B001900091009B184602B0704710B53D
:10A4A40084B00190019800F066FC024603AB1146AB
:10A4B4001846FFF7EDFF044600BF03AB1846FFF74D
:10A4C40076FB2346184604B010BD84B00390029175
:10A4D4000192029B1A78019B1B789A4234BF012394
:10A4E4000023DBB2184604B0704782B00190019B90
:10A4F4000833184602B0704782B00190019B0C33B8
:10A50400184602B0704700B583B0019000910098DE
:10A51400FFF7A8FE03461B6819460198FFF74EFF94
:10A52400019803B05DF804FB00B583B0019000917D
:10A53400019A009B1B6819461046FBF744F8019BDF
:10A54400184603B05DF804FB82B001900091019BB2
:10A554001A68009B9A420CBF01230023DBB2184601
:10A5640002B0704770B586B00390029101920093D7
:10A57400029B019A9A4217D10099029800F038FC84
:10A5840005900198FFF7B1FF0246059B13600298FE
:10A59400FFF761FE0246059B13600298FFF769FE10
:10A5A4000246059B136064E000250B9B002B1AD127
:10A5B4000A9B002B15D1029B03F11404012504AB63
:10A5C40000991846FFF764FF06460198FFF767FFF6
:10A5D40003461A4631462046FFF777FF0346002B11
:10A5E40001D0012400E00024002D03D004AB184660
:10A5F400FFF7DDFA002C1ED00099029800F0F8FB5A
:10A6040005900198FFF771FF0246059B13600298BD
:10A61400FFF728FE03461B68019A9A420CBF0123E8
:10A624000023DBB2002B24D00298FFF71BFE024666
:10A63400059B13601DE00099029800F0D9FB05907A
:10A644000198FFF759FF0246059B13600298FFF734
:10A6540010FE03461B68019A9A420CBF0123002393
:10A66400DBB2002B05D00298FFF703FE0246059BE0
:10A674001360059800F0DDFB0246019B1360029B0A
:10A68400043319460598FCF7C8FC029B1B695A1C45
:10A69400029B1A6105990398FFF790FE039806B090
:10A6A40070BD00B585B0039002910192039B02999D
:10A6B4001846FFF73AFA019B1A78039B1A71039B19
:10A6C400184605B05DF804FB00B583B00190019B0A
:10A6D4001B681846FCF740FD0246019B1A60019B6B
:10A6E400184603B05DF804FB82B00190019B184644
:10A6F40002B0704782B001900091009B184602B0EE
:10A70400704710B584B00190019800F0DBFA02465E
:10A7140003AB11461846FFF7EDFF044600BF03AB39
:10A724001846FFF700FB2346184604B010BD84B05A
:10A73400039002910192029B1A78019B1B789A4222
:10A7440034BF01230023DBB2184604B0704782B043
:10A754000190019B0833184602B0704782B0019003
:10A76400019B0C33184602B0704700B583B00190CA
:10A7740000910098FFF70FFD03461B6819460198E6
:10A78400FFF772FE019803B05DF804FB00B583B0D7
:10A7940001900091019A009B1B6819461046FAF734
:10A7A40012FF019B184603B05DF804FB82B00190D0
:10A7B4000091019B1A68009B9A420CBF012300235D
:10A7C400DBB2184602B0704770B586B003900291B0
:10A7D40001920093029B019A9A4217D10099029820
:10A7E40000F02EFB05900198FFF7B1FF0246059B90
:10A7F40013600298FFF7C8FC0246059B1360029899
:10A80400FFF7D0FC0246059B136064E000250B9B18
:10A81400002B1AD10A9B002B15D1029B03F11404BF
:10A82400012504AB00991846FFF764FF064601981A
:10A83400FFF767FF03461A4631462046FFF777FFC6
:10A844000346002B01D0012400E00024002D03D096
:10A8540004AB1846FFF767FA002C1ED00099029843
:10A8640000F0EEFA05900198FFF771FF0246059B90
:10A8740013600298FFF78FFC03461B68019A9A4203
:10A884000CBF01230023DBB2002B24D00298FFF776
:10A8940082FC0246059B13601DE00099029800F0BB
:10A8A400CFFA05900198FFF759FF0246059B136004
:10A8B4000298FFF777FC03461B68019A9A420CBF83
:10A8C40001230023DBB2002B05D00298FFF76AFCBA
:10A8D4000246059B1360059800F0D3FA0246019BDB
:10A8E4001360029B043319460598FCF796FB029B00
:10A8F4001B695A1C029B1A6105990398FFF7B4FD62
:10A90400039806B070BD00B585B003900291019222
:10A91400039B02991846FFF732F9019B1A78039BAF
:10A924001A71039B184605B05DF804FB00B583B0AB
:10A934000190019B1B681846FCF70EFC0246019B24
:10A944001A60019B184603B05DF804FB82B00190C5
:10A95400019B184602B0704782B001900091009BA1
:10A96400184602B0704710B584B00190019800F009
:10A9740050F9024603AB11461846FFF7EDFF0446B3
:10A9840000BF03AB1846FFF78AFA2346184604B003
:10A9940010BD84B0039002910192029B1A78019B2E
:10A9A4001B789A4234BF01230023DBB2184604B05B
:10A9B400704782B00190019B0833184602B070477B
:10A9C40082B00190019B0C33184602B0704700B569
:10A9D40083B0019000910098FFF776FB03461B6853
:10A9E40019460198FFF794FC019803B05DF804FB45
:10A9F40000B583B001900091019A009B1B68194631
:10AA04001046FAF7E0FD019B184603B05DF804FB1D
:10AA140082B001900091019B1A68009B9A420CBF7E
:10AA240001230023DBB2184602B0704770B586B02C
:10AA34000390029101920093029B019A9A4217D1CA
:10AA44000099029800F024FA05900198FFF7B1FFED
:10AA54000246059B13600298FFF72FFB0246059BF5
:10AA640013600298FFF737FB0246059B136064E00E
:10AA740000250B9B002B1AD10A9B002B15D1029B9E
:10AA840003F11404012504AB00991846FFF764FF91
:10AA940006460198FFF767FF03461A4631462046EB
:10AAA400FFF777FF0346002B01D0012400E00024C8
:10AAB400002D03D004AB1846FFF7F1F9002C1ED08B
:10AAC4000099029800F0E4F905900198FFF771FFEE
:10AAD4000246059B13600298FFF7F6FA03461B68CB
:10AAE400019A9A420CBF01230023DBB2002B24D02D
:10AAF4000298FFF7E9FA0246059B13601DE00099EE
:10AB0400029800F0C5F905900198FFF759FF024635
:10AB1400059B13600298FFF7DEFA03461B68019A4F
:10AB24009A420CBF01230023DBB2002B05D002980C
:10AB3400FFF7D1FA0246059B1360059800F0C9F9A6
:10AB44000246019B1360029B043319460598FCF7E7
:10AB540064FA029B1B695A1C029B1A6105990398AB
:10AB6400FFF7D6FB039806B070BD00B585B003901F
:10AB740002910192039B02991846FEF7ACFF019BD8
:10AB84001A78039B1A71039B184605B05DF804FB01
:10AB940000B583B00190019B1B681846FCF7DCFAF2
:10ABA4000246019B1A60019B184603B05DF804FB42
:10ABB40082B001900091019B184602B0704782B0A8
:10ABC40010B582B00190009104A981E80C000099AD
:10ABD400019800F085F9019B1C4604AB0FCB84E877
:10ABE4000F00019B184602B0BDE8104002B0704748
:10ABF40082B00190019B00221A70019B00225A60CE
:10AC0400019A019B9A60019A019BDA6000BF02B02D
:10AC1400704782B00190019B1033184602B0704710
:10AC240000B585B0019003AB1946019800F05FF9B7
:10AC340000BF05B05DF804FB00B585B00390029138
:10AC44000192029B002B08D0019A13465B00134427
:10AC5400DB0019460298F6F738FA00BF05B05DF834
:10AC640004FB82B001900091019B184602B070472A
:10AC740082B010B582B00190009104A981E80C0063
:10AC84000099019800F039F9019B1C4604AB0FCBE5
:10AC940084E80F00019B184602B0BDE8104002B0E2
:10ACA400704782B00190019B00221A70019B002220
:10ACB4005A60019A019B9A60019A019BDA6000BF75
:10ACC40002B0704782B00190019B1033184602B065
:10ACD400704700B585B0019003AB1946019800F0A8
:10ACE40013F900BF05B05DF804FB00B585B003900F
:10ACF40002910192029B002B08D0019A13465B003B
:10AD04001344DB0019460298F6F7DFF900BF05B0DB
:10AD14005DF804FB82B001900091019B184602B0DB
:10AD2400704782B010B582B00190009104A981E807
:10AD34000C000099019800F0EDF8019B1C4604AB4F
:10AD44000FCB84E80F00019B184602B0BDE8104009
:10AD540002B0704782B00190019B00221A70019BDF
:10AD640000225A60019A019B9A60019A019BDA6061
:10AD740000BF02B0704782B00190019B10331846A7
:10AD840002B0704700B585B0019003AB1946019835
:10AD940000F0C7F800BF05B05DF804FB00B585B04E
:10ADA400039002910192029B002B08D0019A134652
:10ADB4005B001344DB0019460298F6F786F900BFDE
:10ADC40005B05DF804FB82B00190019B5B681846F6
:10ADD40002B0704782B00190019B5B68184602B0D4
:10ADE400704782B00190019B5B68184602B07047BF
:10ADF40000B585B001900091019B0121184600F037
:10AE040096F80390039B10330099184600F09DF8C0
:10AE14000398FFF76AFB0246002313600398FFF7C9
:10AE24006BFB024600231360039B184605B05DF8D4
:10AE340004FB82B00190019B0433184602B07047B2
:10AE440000B585B001900091019B0121184600F0E6
:10AE54008FF80390039B10330099184600F096F87E
:10AE64000398FFF774FC0246002313600398FFF76E
:10AE740075FC024600231360039B184605B05DF879
:10AE840004FB82B00190019B0433184602B0704762
:10AE940000B585B001900091019B0121184600F096
:10AEA40088F80390039B10330099184600F08FF83C
:10AEB4000398FFF77EFD0246002313600398FFF713
:10AEC4007FFD024600231360039B184605B05DF81E
:10AED40004FB82B00190019B0433184602B0704712
:10AEE40082B001900091019B184602B0704782B075
:10AEF4000190009100BF02B0704782B001900091B0
:10AF0400019B184602B0704782B00190009100BFC7
:10AF140002B0704782B001900091019B184602B0C4
:10AF2400704782B00190009100BF02B0704700B535
:10AF340083B00190009100220099019800F05AF822
:10AF44000346184603B05DF804FB00B585B00190D4
:10AF54000091019800F07CF800F07FF803AB1A46EA
:10AF64000099019800F07BF800BF05B05DF804FB80
:10AF740000B583B00190009100220099019800F07F
:10AF840081F80346184603B05DF804FB00B585B0AC
:10AF940001900091019800F0A3F800F0A6F803AB2B
:10AFA4001A460099019800F0A2F800BF05B05DF8B8
:10AFB40004FB00B583B00190009100220099019830
:10AFC40000F0A8F80346184603B05DF804FB00B58A
:10AFD40085B001900091019800F0CAF800F0CDF816
:10AFE40003AB1A460099019800F0C9F800BF05B0F8
:10AFF4005DF804FB00B587B00390029101920398B9
:10B0040000F0D0F80246029B93428CBF0123002338
:10B01400DBB2002B05D00D48F5F7A4FE0120F5F7AF
:10B024003CFB029B002B0BD0029A13465B0013449B
:10B03400DB0005930598F6F73DF80490049B00E0C7
:10B044000023184607B05DF804FB00BF888F010891
:10B0540082B00190184602B070471846704700B598
:10B0640085B0039002910192039B19460820F5F7DD
:10B07400F8FF03460299184600F09CF800BF05B09B
:10B084005DF804FB00B587B0039002910192039828
:10B0940000F0A0F80246029B93428CBF01230023D8
:10B0A400DBB2002B05D00D48F5F75CFE0120F5F767
:10B0B400F4FA029B002B0BD0029A13465B00134454
:10B0C400DB0005930598F5F7F5FF0490049B00E079
:10B0D4000023184607B05DF804FB00BF888F010801
:10B0E40082B00190184602B070471846704700B508
:10B0F40085B0039002910192039B19460820F5F74D
:10B10400B0FF03460299184600F06CF800BF05B082
:10B114005DF804FB00B587B0039002910192039897
:10B1240000F070F80246029B93428CBF0123002377
:10B13400DBB2002B05D00D48F5F714FE0120F5F71E
:10B14400ACFA029B002B0BD0029A13465B0013440B
:10B15400DB0005930598F5F7ADFF0490049B00E030
:10B164000023184607B05DF804FB00BF888F010870
:10B1740082B00190184602B070471846704700B577
:10B1840085B0039002910192039B19460820F5F7BC
:10B1940068FF03460299184600F03CF800BF05B06A
:10B1A4005DF804FB82B00190014B184602B0704771
:10B1B400AAAAAA0A82B001900091009B1A78019B66
:10B1C4001A70009B5A68019B5A60019B184602B092
:10B1D4007047000082B00190014B184602B07047DE
:10B1E400AAAAAA0A82B001900091009B1A78019B36
:10B1F4001A70009B5A68019B5A60019B184602B062
:10B204007047000082B00190014B184602B07047AD
:10B21400AAAAAA0A82B001900091009B1A78019B05
:10B224001A70009B5A68019B5A60019B184602B031
:10B234007047000000B583B001900B468DF80330D1
:10B24400019B00211846FEF74BF8044A019B1A6043
:10B25400019B184603B05DF804FB00BFA08F0108F2
:10B2640000B583B00190064A019B1A60019B184601
:10B27400FEF74CF8019B184603B05DF804FB00BFD1
:10B28400A08F010800B583B001900198FFF7E8FF93
:10B2940001980CF0CFFF019B184603B05DF804FB46
:10B2A40084B0039001A880E80600009300BF04B0B6
:10B2B400704782B00190009100BF02B0704700B5A2
:10B2C40085B00390684680E80E00039B5B689DF898
:10B2D40008100122184600F0CAFF039B5B689DF822
:10B2E40007100022184600F0C2FF039B5B689DF81C
:10B2F40006100222184600F0BAFF039B9868039BCD
:10B304009B681B6808331B68BDF9002091B20122B9
:10B314009847039B9868039B9B681B6808331B68CA
:10B32400BDF9022091B20022984700BF05B05DF834
:10B3340004FB82B00190009100BF02B0704700008E
:10B3440000B583B001900091019B012B0DD1009BAE
:10B354004FF6FF72934208D100210648FFF76AFFB7
:10B36400054A064903480CF075FB00BF03B05DF8BD
:10B3740004FB00BFA4D00224A4D2022465B20008B6
:10B3840008B54FF6FF710120FFF7DAFF08BD000092
:10B3940000B583B001900B468DF80330019B9DF8F6
:10B3A400032011461846FDF779FF074A019B1A60EE
:10B3B4000020FCF753FD0246019B5A60019B18468E
:10B3C40003B05DF804FB00BFC08F010800B583B073
:10B3D40001900091019B5A68019B5B681B682033B4
:10B3E4001B68009910469847019B5868019B5B684D
:10B3F4001B6824331B6801220099984700BF03B0DF
:10B404005DF804FB00B583B00190064A019B1A6005
:10B41400019B1846FDF758FF019B184603B05DF8E1
:10B4240004FB00BFC08F010800B583B001900198F0
:10B43400FFF7E8FF01980CF0FDFE019B184603B0EE
:10B444005DF804FB10B584B001900B46ADF80230F2
:10B4540013468DF8013003AB00210A461A800A46D0
:10B464009A70BDF802301B0A9BB2DBB28DF80D3026
:10B47400BDF80230DBB28DF80E30019B5868019B99
:10B484005B681B6808331C689DF8013003F00101F8
:10B4940003AA0123A04700BF04B010BD00B583B0C8
:10B4A40001900091019B012B0DD1009B4FF6FF727F
:10B4B400934208D100210648FFF76AFF054A06496E
:10B4C40003480CF0C7FA00BF03B05DF804FB00BFEB
:10B4D400B0D00224A4D2022409B4000808B54FF65F
:10B4E400FF710120FFF7DAFF08BD000000B583B04B
:10B4F40001901B4A019B1A60019B08221A71019B4F
:10B5040006225A71019B0A229A71019B0822DA7160
:10B51400019B1B791A46019B9A60019B5B791A4631
:10B52400019BDA60019B00221A61019B00225A618F
:10B53400019B9B791A46019B9A61019BDB791A4610
:10B54400019BDA61019B074A20331146C022184649
:10B554000CF0D0FB019B184603B05DF804FB00BF60
:10B5640098900108D08F010882B00190034A019B92
:10B574001A60019B184602B0704700BF98900108FA
:10B5840000B583B001900198FFF7EEFF01980CF02D
:10B5940051FE019B184603B05DF804FB84B082B0F1
:10B5A400019003A880E80E009DF813301A46019B11
:10B5B400023253F82230184602B004B0704700003B
:10B5C40082B000B587B003900291019209930023E1
:10B5D40005939DF82B30052B42D801A252F823F095
:10B5E400FDB5000817B6000865B6000865B6000882
:10B5F40031B600084BB60008039B1B791A46119B11
:10B6040003FB02F3019A0299039800F031F80590C4
:10B6140026E0039B5B791A46119B03FB02F3019A14
:10B624000299039800F0D6F8059019E0039B9B79E2
:10B634001A46119B03FB02F3019A0299039800F046
:10B6440067F905900CE0039BDB791A46119B03FB19
:10B6540002F3019A0299039800F0F7F9059000BFEC
:10B66400059B184607B05DF804EB02B0704700BFB5
:10B6740088B0039002910192009300238DF81B304F
:10B6840000238DF81A30009B059300230793039B36
:10B694001B791A46009BB3FBF2F2079B9A4240F2D5
:10B6A4009580029B1B781B021AB2019B1A80029B95
:10B6B40001330293019BB3F900301AB2029B1B7849
:10B6C4001BB213431AB2019B1A80029B01330293EB
:10B6D400029B1B781B021AB2019B5A80029B013306
:10B6E4000293019BB3F902301AB2029B1B781BB27E
:10B6F40013431AB2019B5A80029B01330293029BAB
:10B704001B781B021AB2019B9A80029B013302939D
:10B71400019BB3F904301AB2029B1B781BB213438A
:10B724001AB2019B9A80029B01330293029B1B78FD
:10B734008DF81A30029B01330293029B1B788DF81B
:10B744001B30029B013302939DF81A3003F040032F
:10B75400002B0CBF01230023DBB28DF819309DF8B8
:10B764001B20039913465B0013440B4422331B78BC
:10B774009DF8192012FB03F3DAB2019B1A729DF8AB
:10B784001B20039913465B0013440B4421331B789D
:10B794009DF8192012FB03F3DAB2019BDA719DF8CC
:10B7A4001B20039913465B0013440B4420331B787E
:10B7B4009DF8192012FB03F3DAB2019B9A71019BE5
:10B7C40009330193079B0133079360E7002318466D
:10B7D40008B0704786B00390029101920093002351
:10B7E4008DF8133000238DF8123000230593039B4A
:10B7F4005B791A46009BB3FBF2F2059B9A4240F236
:10B804008380029B1B781B021AB2019B1A80029B45
:10B8140001330293019BB3F900301AB2029B1B78E7
:10B824001BB213431AB2019B1A80029B0133029389
:10B83400029B1B781B021AB2019B5A80029B0133A4
:10B844000293019BB3F902301AB2029B1B781BB21C
:10B8540013431AB2019B5A80029B01330293029B49
:10B864001B788DF81230029B01330293029B1B78E4
:10B874008DF81330029B013302939DF8123003F0CC
:10B884004003002B0CBF01230023DBB28DF81130E1
:10B894009DF81320039913465B0013440B44223391
:10B8A4001B789DF8112012FB03F3DAB2019B1A7284
:10B8B4009DF81320039913465B0013440B44213372
:10B8C4001B789DF8112012FB03F3DAB2019BDA71A5
:10B8D4009DF81320039913465B0013440B44203353
:10B8E4001B789DF8112012FB03F3DAB2019B9A71C5
:10B8F400019B00221A7100225A71019B09330193A2
:10B90400059B0133059372E70023184606B0704780
:10B9140086B0039002910192009300238DF81330B6
:10B9240000238DF8123000230593039B9B791A465C
:10B93400009BB3FBF2F2059B9A4240F28280029B89
:10B944001B781B021AB2019B1A80029B01330293DB
:10B95400019BB3F900301AB2029B1B781BB213434C
:10B964001AB2019B1A80029B01330293029B1B783B
:10B974001B021AB2019B5A80029B01330293019B62
:10B98400B3F902301AB2029B1B781BB213431AB2EA
:10B99400019B5A80029B01330293029B1B781B027A
:10B9A4001AB2019B9A80029B01330293019BB3F963
:10B9B40004301AB2029B1B781BB213431AB2019BC8
:10B9C4009A80029B01330293029B1B788DF81230FC
:10B9D400029B013302939DF8123003F04003002BC5
:10B9E4000CBF01230023DBB28DF81130029B1B78BE
:10B9F4009DF8112012FB03F3DAB2019B1A72029B29
:10BA040001330293029B1B789DF8112012FB03F370
:10BA1400DAB2019BDA71029B01330293029B1B7819
:10BA24009DF8112012FB03F3DAB2019B9A71029B79
:10BA340001330293019B09330193059B0133059361
:10BA440073E70023184606B0704786B0039002914E
:10BA54000192009300238DF8133000238DF81230E7
:10BA640000230593039BDB791A46009BB3FBF2F298
:10BA7400059B9A426FD9029B1B781B021AB2019B49
:10BA84001A80029B01330293019BB3F900301AB26E
:10BA9400029B1B781BB213431AB2019B1A80029BB0
:10BAA40001330293029B1B781B021AB2019B5A803A
:10BAB400029B01330293019BB3F902301AB2029B39
:10BAC4001B781BB213431AB2019B5A80029B0133A9
:10BAD4000293029B1B788DF81230029B0133029370
:10BAE4009DF8123003F04003002B0CBF0123002308
:10BAF400DBB28DF81130029B1B789DF8112012FBEC
:10BB040003F3DAB2019B1A72029B01330293029B84
:10BB14001B789DF8112012FB03F3DAB2019BDA7152
:10BB2400029B01330293029B1B789DF8112012FBA8
:10BB340003F3DAB2019B9A71029B01330293019BD6
:10BB440000221A7100225A71019B09330193059B4B
:10BB54000133059386E70023184606B0704700B505
:10BB640085B00390029101922022019903980CF070
:10BB7400C1F8039B1B8B9BB21B0A9BB21AB2039B9B
:10BB84001B8B9BB21B021BB213431BB29AB2039BC7
:10BB94001A83039B9B8B9BB21B0A9BB21AB2039B17
:10BBA4009B8B9BB21B021BB213431BB29AB2039B27
:10BBB4009A83039B5B8B9BB21B0A9BB21AB2039BB7
:10BBC4005B8B9BB21B021BB213431BB29AB2039B47
:10BBD4005A8300BF039805B05DF804FB00B583B039
:10BBE4000190019B184640231A4600210CF084FA68
:10BBF400019B184603B05DF804FB000000B583B058
:10BC040001904B4A019B1A60019B04331846FFF7CD
:10BC1400E5FF019B44331846FFF7E0FF019B8433A3
:10BC24001846FFF7DBFF019BC4331846FFF7D6FF26
:10BC3400019B404AC3F80421019B3F4AC3F80821F1
:10BC4400019B3E4AC3F80C21019B3D4AC3F81021D5
:10BC5400019B4FF07E52C3F81421019BD3ED447A2B
:10BC6400B6EE007A67EE877ADFED366A87EEA67A5B
:10BC7400019BD3ED417A67EE277A17EE900A0BF019
:10BC8400F7FC06EE900AB7EE007AC7EE267A019B1F
:10BC9400C3ED467A019B93ED457A019BD3ED467A39
:10BCA40067EE277A019BC3ED017A019BD3F8182133
:10BCB400019B9A61019BD3ED436A019B93ED437A07
:10BCC400019BD3ED427A37EE677AC6EE877A019B01
:10BCD400C3ED0B7A019BD3ED437AB1EE677A019BF6
:10BCE400D3ED427A67EE276A019B93ED437A019B79
:10BCF400D3ED427A37EE677AC6EE877A019BC3EDBD
:10BD04000F7A019B4FF07E521A63019B4FF00002A1
:10BD14001A644FF00001019800F0EFF84FF00001B1
:10BD2400019800F018F9019B184603B05DF804FB74
:10BD3400A8900108DB0F4940CDCCCC3D00FE7F47E5
:10BD44000000B4420000344382B00190034A019BD6
:10BD54001A60019B184602B0704700BFA890010802
:10BD640000B583B001900198FFF7EEFF01980CF045
:10BD740061FA019B184603B05DF804FB86B003909A
:10BD8400029101920093029B93ED007A009BD3ED04
:10BD9400007A27EE277A029BD3ED016A009BD3ED4C
:10BDA400047A66EEA77A37EE277A029BD3ED026A0D
:10BDB400009BD3ED087A66EEA77A37EE277A009BCC
:10BDC400D3ED0C7A77EE277A019BC3ED007A029BC0
:10BDD40093ED007A009BD3ED017A27EE277A029B3C
:10BDE400D3ED016A009BD3ED057A66EEA77A37EEB0
:10BDF400277A029BD3ED026A009BD3ED097A66EEA3
:10BE0400A77A37EE277A009BD3ED0D7A77EE277A5F
:10BE1400019BC3ED017A029B93ED007A009BD3ED65
:10BE2400027A27EE277A029BD3ED016A009BD3EDB9
:10BE3400067A66EEA77A37EE277A029BD3ED026A7A
:10BE4400009BD3ED0A7A66EEA77A37EE277A009B39
:10BE5400D3ED0E7A77EE277A019BC3ED027A029B2B
:10BE640093ED007A009BD3ED037A27EE277A029BA9
:10BE7400D3ED016A009BD3ED077A66EEA77A37EE1D
:10BE8400277A029BD3ED026A009BD3ED0B7A66EE10
:10BE9400A77A37EE277A009BD3ED0F7A77EE277ACD
:10BEA400CDED057A4FF000030593DDED057AF5EE4F
:10BEB400407AF1EE10FA1DD0019BD3ED006A9DED9E
:10BEC400057AC6EE877A019BC3ED007A019BD3ED18
:10BED400016A9DED057AC6EE877A019BC3ED017A6E
:10BEE400019BD3ED026A9DED057AC6EE877A019B2C
:10BEF400C3ED027A00BF06B0704700B583B001906D
:10BF0400009100980BF036FA0246019B5A6400989F
:10BF14000BF00CFB0246019B9A6400980BF006FBA5
:10BF2400034607EE903AF1EE677A019BC3ED157A6A
:10BF340000980BF01FFA0246019B9A65019B4FF093
:10BF44007E52DA66019B4FF07E52C3F8802000BF18
:10BF540003B05DF804FB00B583B001900091019B30
:10BF64004FF07E52C3F8842000980BF003FA024687
:10BF7400019BC3F8982000980BF0D8FA0246019B65
:10BF8400C3F89C2000980BF0D1FA034607EE903AD0
:10BF9400F1EE677A019BC3ED2A7A00980BF0EAF977
:10BFA4000246019BC3F8AC20019B4FF07E52C3F8BC
:10BFB400C02000BF03B05DF804FB00B583B001905E
:10BFC400009100980BF0D6F90246019BC3F8C420F7
:10BFD40000980BF0ABFA0246019BC3F8CC20009802
:10BFE4000BF0A4FA034607EE903AF1EE677A019B50
:10BFF400C3ED397A019B4FF07E52C3F8D8200098E4
:10C004000BF0B8F90246019BC3F8EC20019B4FF0FA
:10C014007E52C3F8002100BF03B05DF804FB0000AA
:10C024000000000000B58DB003900291694681E8DC
:10C034000C00039B00221A7000225A70039B0022FA
:10C044009A700022DA70039B00221A7100225A713E
:10C05400624B0B93BDF9003007EE903AF8EEE76AB5
:10C064009DED0B7AC6EE877ACDED087ABDF90230E4
:10C0740007EE903AF8EEE76A9DED0B7AC6EE877A02
:10C08400CDED097ABDF9043007EE903AF8EEE76A8F
:10C094009DED0B7AC6EE877ACDED0A7A05AB08AA38
:10C0A40007CA83E80700029B443305AA08A902983B
:10C0B400FFF764FE029B843308AA05A90298FFF7E0
:10C0C4005DFE029BC43305AA08A90298FFF756FE39
:10C0D400029B043308AA05A90298FFF74FFE05AB9B
:10C0E40008AA07CA83E80700DDED057AB7EEE77A08
:10C0F4009FED366B27EE067BF7EEC77BCDED057A19
:10C10400DDED067AB7EEE77A9FED326B27EE067B1C
:10C11400F7EEC77BCDED067ADDED057ABFEE007A4A
:10C12400F4EEC77AF1EE10FA3FDBDDED057AB7EEF7
:10C13400007AF4EEC77AF1EE10FA36D8DDED067A1D
:10C14400BFEE007AF4EEC77AF1EE10FA2DDBDDEDE6
:10C15400067AB7EE007AF4EEC77AF1EE10FA24D834
:10C164009DED057ADDED0B7A27EE277ADDED0B7A6E
:10C1740077EE277AFCEEE77A17EE903A9BB21AB282
:10C18400039B1A809DED067ADDED0B7A27EE277A64
:10C19400DDED0B7A77EE277AFCEEE77A17EE903A2C
:10C1A4009BB21AB2039B5A8009E0039B00221A70C7
:10C1B40000225A70039B00229A700022DA7000BF9A
:10C1C40003980DB05DF804FBAFF300806666666605
:10C1D4006666E6BF666666666666E63F00FEFF461E
:10C1E40000B583B001900449019800F021F8019B47
:10C1F400184603B05DF804FBA804002482B0019043
:10C20400034A019B1A60019B184602B0704700BFA5
:10C21400B890010800B583B001900198FFF7EEFFD4
:10C2240001980CF007F8019B184603B05DF804FB75
:10C2340000B583B001900091074A019B1A600099F0
:10C24400019800F00BF801990020FDF768F9019BB3
:10C25400184603B05DF804FBB890010882B0019061
:10C264000091019B009A5A6000BF02B0704784B0ED
:10C2740001900B468DF8033013468DF80230019B74
:10C284005B681B6803F134029DF802309B00134481
:10C2940003939DF80320039B1A6000BF04B070470A
:10C2A40084B001900B46ADF80230019B5B681B68BB
:10C2B40028330393BDF80220039B1A6000BF04B027
:10C2C4007047000000B583B001900091019B012BE1
:10C2D4000CD1009B4FF6FF72934207D10548FFF73C
:10C2E4007FFF054A054903480BF0B4FB00BF03B0C8
:10C2F4005DF804FBB8D00224A4D2022401C20008D1
:10C3040008B54FF6FF710120FFF7DCFF08BD000000
:10C31400994B1B68984A43F002031360974B1B68C0
:10C32400964A23F003031360944B1B68934A43F02B
:10C3340001031360924B1B68914A43F0030313609B
:10C34400904B1B688F4A23F0010313608E4B1B68CC
:10C354008D4A23F0030313608B4B1B688A4A43F016
:10C3640001031360894B4FF480321A60834B1B68BE
:10C37400824A23F440431360804B1B687F4A43F492
:10C38400804313607E4B1B687D4A43F44043136033
:10C394007C4B1B687B4A23F0800313607A4B1B6839
:10C3A400794A23F440431360774B1B68764A43F47D
:10C3B40080431360754B4FF400021A606F4B1B6887
:10C3C4006E4A23F0405313606C4B1B686B4A43F076
:10C3D400805313606A4B1B68694A43F040531360EF
:10C3E400684B1B68674A23F480431360664B1B68E1
:10C3F400654A23F040531360634B1B68624A43F061
:10C4040080531360614B4FF080421A60604B1B688D
:10C414005F4A23F0300313605D4B1B685C4A43F0B2
:10C42400100313605B4B1B685A4A43F030031360DC
:10C43400594B1B68584A23F004031360574B1B687D
:10C44400564A23F030031360544B1B68534A43F09D
:10C4540010031360524B4FF480221A604C4B1B683C
:10C464004B4A23F003031360494B1B68484A43F0CB
:10C4740001031360474B1B68464A43F003031360F0
:10C48400454B1B68444A23F001031360434B1B686C
:10C49400424A23F003031360404B1B683F4A43F0B6
:10C4A400010313603E4B4FF480321A60384B1B6813
:10C4B400374A23F00C031360354B1B68344A43F0AE
:10C4C40004031360334B1B68324A43F00C031360BC
:10C4D400314B1B68304A23F0020313602F4B1B6857
:10C4E4002E4A23F00C0313602C4B1B682B4A43F099
:10C4F400040313602A4B4FF400321A60244B1B6868
:10C50400234A23F040631360244B1B68234A23F01F
:10C5140040631360234B1B68224A23F0405313608B
:10C52400214B1B68204A23F0405313601F4B1B68A8
:10C534001E4A23F4402313601D4B1B681C4A23F43A
:10C54400402313601A4B1B68194A43F48023136079
:10C55400164B1B68154A23F440431360144B1B68A5
:10C56400134A23F440431360114B1B68104A43F4ED
:10C57400804313601EE000BFE044025800040258E8
:10C5840008040258040402580C04025818040258FF
:10C594000018025808180258041802580C180258B7
:10C5A40018180258001002580C10025800000258C3
:10C5B4000C000258984B1B68974A23F440331360CD
:10C5C400964B1B68954A23F440331360934B1B68C6
:10C5D400924A43F4803313608F4B1B688E4A23F4D2
:10C5E400405313608D4B1B688C4A23F440531360F3
:10C5F4008A4B1B68894A43F480531360864B1B683B
:10C60400854A23F440631360844B1B68834A23F4F4
:10C6140040631360814B1B68804A43F4806313605A
:10C624007F4B1B687E4A23F0030313607D4B1B681A
:10C634007C4A23F0030313607A4B1B68794A43F066
:10C6440001031360764B1B68754A23F00C031360D7
:10C65400744B1B68734A23F00C031360714B1B6803
:10C66400704A43F0040313606F4B1B686E4A23F453
:10C67400405313606D4B1B686C4A23F440531360A2
:10C684006A4B1B68694A43F480531360664B1B680A
:10C69400654A23F030031360644B1B68634A23F03C
:10C6A40030031360614B1B68604A43F0100313604E
:10C6B4005D4B1B685C4A23F4407313605B4B1B683F
:10C6C4005A4A23F440731360584B1B68574A43F487
:10C6D40080731360544B1B68534A23F44063136004
:10C6E400524B1B68514A23F4406313604F4B1B6841
:10C6F4004E4A43F4806313604B4B1B684A4A23F051
:10C70400C0031360494B1B68484A23F0C0031360FD
:10C71400464B1B68454A43F040031360444B1B6877
:10C72400434A23F040431360414B1B68404A43F0A3
:10C73400804313603F4B1B683E4A43F04043136001
:10C744003D4B1B683C4A23F4004313603B4B1B687E
:10C754003A4A23F040431360384B1B68374A43F08E
:10C7640080431360364B1B6803F40042344B1B6850
:10C77400334953400B602E4B1B682D4A23F0405322
:10C7840013602B4B1B682A4A43F080531360294BD8
:10C794001B68284A43F040531360274B1B68264A02
:10C7A40023F480431360254B1B68244A23F0405331
:10C7B4001360224B1B68214A43F080531360204BC3
:10C7C4001B6803F480421E4B1B681D4953400B60D9
:10C7D4001C4B1B681B4A23F440531360194B1B6802
:10C7E400184A43F480531360174B1B68164A43F4EA
:10C7F40040531360154B1B68144A23F04003136025
:10C80400134B1B68124A23F440531360104B1B68EC
:10C814000F4A43F480531DE0000002580C000258F4
:10C82400001402580C140258001002580C1002583C
:10C834000018025808180258041802580C18025814
:10C8440014180258000C0258080C0258040C025820
:10C854000C0C02581360324B1B6803F04002304B3F
:10C864001B682F4953400B602E4B1B682D4A23F441
:10C87400404313602B4B1B682A4A43F480431360E4
:10C88400294B1B68284A43F440431360274B1B6819
:10C89400264A23F080031360254B1B68244A23F4A3
:10C8A40040431360224B1B68214A43F480431360C6
:10C8B4001B4B1B6803F08002194B1B68184953403B
:10C8C4000B601C4B1B681B4A23F040631360194B1D
:10C8D4001B68184A43F080631360174B1B68164AA1
:10C8E40043F040631360154B1B68144A23F4005350
:10C8F4001360134B1B68124A23F040631360104B00
:10C904001B680F4A43F0806313600E4B1B6803F4EB
:10C9140000520C4B1B680B4953400B6000BF70471F
:10C92400140C0258000C0258080C0258040C02584B
:10C934000C0C02580018025808180258041802581F
:10C944000C1802581418025882B00190019B002B55
:10C9540006D1134B1B68124A83F0010313601CE0D9
:10C96400019B012B06D10E4B1B680D4A83F08003FB
:10C97400136012E0019B022B06D1094B1B68084A85
:10C9840083F48043136008E0019B032B05D1054B1E
:10C994001B68044A83F00403136000BF02B07047AD
:10C9A4001404025814180258044B1B685B0BDBB2C6
:10C9B40003F00103DBB21846704700BF10080258A9
:10C9C40082B0054B1B689B0B03F001030193019B91
:10C9D400DBB2184602B0704710100258024B1B68B5
:10C9E4009BB21846704700BF10140258024B1B68D4
:10C9F4009B089BB2184670471010025810B584B0BB
:10CA040001901B4A019B1A60019B1C1D02AB184636
:10CA140000F062F902AB1946204600F069F902AB56
:10CA2400184600F05FF9019B03F1100403AB1846AC
:10CA3400F6F7B1F903AB19462046F6F7B8F903AB9C
:10CA44001846F6F7AEF9019B002283F82820019BD3
:10CA5400002283F82920019B002283F82A20019BCD
:10CA6400202283F82B20019B184604B010BD00BF80
:10CA74000891010800B583B00190094A019B1A602E
:10CA8400019B10331846F4F783FB019B04331846CB
:10CA940000F03CF9019B184603B05DF804FB00BFAD
:10CAA4000891010800B583B001900198FFF7E2FFF7
:10CAB40001980BF0BFFB019B184603B05DF804FB23
:10CAC40010B596B001900091019B0433184600F014
:10CAD40039F91590002220210098F9F715FD034635
:10CAE40009A800220099F9F7F3FC019B04331846C6
:10CAF40000F02FF90246159B934214BF0123002333
:10CB0400DBB2002B34D0159A09AB11461846F9F75D
:10CB1400BEFC0346002B0CBF01230023DBB2002B19
:10CB240022D0002220210098F9F7EEFC03465C1C79
:10CB34000098F6F7DDF9034603A822460099F9F7B1
:10CB4400C7FC159B1C6A03AA0FAB11461846F6F7DF
:10CB5400A9F90FAB1846A0470FAB1846F4F718FB1A
:10CB640003AB1846F4F714FB159B3C331593BCE751
:10CB740009AB1846F4F70CFB00BF16B010BD10B596
:10CB840084B00190019C02AB1846F6F704F902AB9D
:10CB940019462046F6F70BF902AB1846F6F701F9E9
:10CBA400019B03F1240403AB1846F6F7F4F803AB36
:10CBB40019462046F6F7FBF803AB1846F6F7F1F8EA
:10CBC400019B184604B010BD00B583B00190019BD1
:10CBD40024331846F4F7DCFA019B1846F4F7D8FA24
:10CBE400019B184603B05DF804FB00B595B00390B3
:10CBF40002910192009305AB1846FFF7C0FF05AB05
:10CC0400243300991846F6F78DF905AB01991846B7
:10CC1400F6F788F9029B0D93039B043305AA11468A
:10CC2400184600F09DF805AB1846FFF7CDFF00BF8E
:10CC340015B05DF804FB000000B58BB00190F4F76B
:10CC440057F80346012B0CBF01230023DBB2002B52
:10CC540039D00DF10F03012219460020F3F7ACFF80
:10CC64009DF80F300A2B08D0019B10339DF80F203C
:10CC74001146184600F09BF825E0019B93F82A30F2
:10CC8400002B1AD1019B10331846F6F778F80346A7
:10CC940019460F48F4F74DF8019B03F1100204AB59
:10CCA40011461846F6F7FEF804AB19460198FFF74B
:10CCB40007FF04AB1846F4F76BFA019B10330549E0
:10CCC400184600F0ADF800BF0BB05DF804FB00BFE0
:10CCD400D4900108D090010882B00190019B1846BD
:10CCE40002B0704782B00190019B184602B07047B1
:10CCF40000B583B001900091019B0099184600F0A3
:10CD0400AEF8019B184603B05DF804FB00B585B08E
:10CD1400019002AB0199184600F0DCF803AB0199CD
:10CD2400184600F0E7F803AA02AB1146184600F0D3
:10CD3400FCF8019B184600F0A9F8019B184605B0C1
:10CD44005DF804FB82B00190019B1B68184602B099
:10CD5400704782B00190019B5B68184602B070472F
:10CD640000B587B003900291039B5A68039B9B68AC
:10CD74009A420CD0039B5B680299184600F0EDF8C8
:10CD8400039B5B6803F13C02039B5A600BE0039B2B
:10CD9400596805AA01230193012300931346029ABB
:10CDA400039800F0EDF800BF07B05DF804FB00B590
:10CDB40083B001900B468DF80330019B1846F7F7BA
:10CDC400ABF80346012B0CBF01230023DBB2002B7D
:10CDD40008D001210198F7F7B8F8034619460198DD
:10CDE40000F0E4F8019B1846F6F7E3FC0346013330
:10CDF40019460198F6F7D2FC019B1846F6F7D9FCC0
:10CE040002460DF1030319461046F4F774F9019B29
:10CE14001B695A1C019B1A6100BF03B05DF804FB37
:10CE240000B583B0019000910098F4F759F90246D7
:10CE3400009B13441A4600990198F6F7D7FA034663
:10CE4400184603B05DF804FB00B583B00190019867
:10CE5400FFF748FF019B184603B05DF804FB00B5DB
:10CE640083B001900091019B00221A60019B002273
:10CE74005A60019B083300220099184600F0C5F857
:10CE8400019B184603B05DF804FB000000B583B0B5
:10CE94000190019B1B68002B10D0019B03F108003B
:10CEA400019B1968019B9A68019B1B68D31A9B100C
:10CEB400074A02FB03F31A4600F0B8F8019B083353
:10CEC4001846FFF7C1FF019B184603B05DF804FB49
:10CED400EFEEEEEE00B583B0019000910098FFF7FD
:10CEE40038FF03461946019800F0B5F8019803B0DD
:10CEF4005DF804FB00B583B0019000910098FFF742
:10CF040021FF03461946019800F0A5F8019803B0E3
:10CF14005DF804FB82B001900091009B1A68019BAC
:10CF24001A60019B184602B0704700B585B00190A5
:10CF3400009102AB01991846FFF7ECFF03AB00998F
:10CF44001846FFF7E7FF03A902AB0022184600F0DA
:10CF54008CF800BF05B05DF804FB00B585B0019006
:10CF64000091019800F09AF800F09DF803AB1A467E
:10CF74000099019800F0BDF800BF05B05DF804FB0E
:10CF840000B589B0059004910392029307AA9DF815
:10CF94002C3001930A9B00931346039A0499059835
:10CFA40000F0BAF800BF09B05DF804FB10B584B016
:10CFB40001900091019B143300996A461846F6F7D4
:10CFC40054FF0390019B1846F6F709FA0446019BA7
:10CFD4001846F6F7EEFB0346039A19462046F6F781
:10CFE400F4FF029002990198F6F7D8FB019B1846CA
:10CFF400F6F7ADF80198009B039A1344029A03993B
:10D00400F7F70BF800BF04B010BD00B585B003906E
:10D01400029101920299039800F0D3F8039B019ABC
:10D024001A60039B184605B05DF804FB00B585B093
:10D03400039002910192029B002B08D0019A13469F
:10D044001B019B1A9B0019460298F4F73EF800BF97
:10D0540005B05DF804FB82B001900091019B009A39
:10D064001A60019B184602B0704700B589B003905E
:10D074000291019205AB03991846FFF74BFF06ABEB
:10D0840002991846FFF746FF07AB06A905A8019ABF
:10D0940000F09EF800BF09B05DF804FB82B0019077
:10D0A400184602B070471846704700B583B0019027
:10D0B4000091019B009A11461846F5F7F3FE009B78
:10D0C4001A7E019B1A76009BDA69019BDA61009B48
:10D0D4001A6A019B1A62019B03F12402009B243308
:10D0E40019461046F5F7DEFE019B184603B05DF8BD
:10D0F40004FB00B585B0039002910192039B19468D
:10D104003C20F3F7AEFF034602991846FFF7CDFF24
:10D1140000BF05B05DF804FB30B58FB005900491F5
:10D12400039202931299059800F070F8034607934E
:10D13400059B0833079907AA184600F0A6F80C9037
:10D144000C9B0D93059B186809AB00932B460C9A16
:10D15400049900F0AAF80D90129B012B07D10399B2
:10D164000D98FFF7FAFE0D9B3C330D9305E0039AEF
:10D1740012990D9800F0ABF80D909DF84C3083F0A7
:10D184000103DBB2002B09D0059B59680BAB00935C
:10D1940023460D9A049800F088F80D90059800F045
:10D1A400B3F8079A13461B019B1A9B001A460C9B63
:10D1B40013440D9A0C99059800F0D0F800BF0FB0F5
:10D1C40030BD82B001900091019B184602B07047B7
:10D1D40000B587B0039002910192009302990398DD
:10D1E40000F0CDF80346002B0CD0039800F0E3F8D0
:10D1F400024605AB1946104600F0E9F8039800F022
:10D20400CEF8EBE700BF07B05DF804FB00B585B0CE
:10D2140001900091019800F0E5F80346029301980B
:10D2240000F0F0F80246029BD21A009B9A4234BFE7
:10D2340001230023DBB2002B03D0019B184600F02E
:10D24400F9F802AA6B4611461846F6F71BFF034687
:10D254001A68029B13440393019800F0D3F8024622
:10D26400039B934203D8029B039A9A4201D201235F
:10D2740000E00023002B03D0019800F0C3F80390D2
:10D28400039B184605B05DF804FB00B587B0039016
:10D294000291019205AB019A0299039800F0D6F825
:10D2A4000346184607B05DF804FB00B585B003904B
:10D2B400029101928DF800306B46019A029903980D
:10D2C40000F0D4F80346184605B05DF804FB00B539
:10D2D40089B0059004910392049A13461B019B1A8A
:10D2E4009B001A46059B1344079306AA0023009348
:10D2F4001346039A0799059800F0CEF8079B184641
:10D3040009B05DF804FB000000B585B0019002ABE4
:10D3140001991846FFF7DEFD03AB01991846FFF7A4
:10D32400E9FD03AA02AB1146184600F0D9F8019BA7
:10D3340003F10800019B1968019B9A68019B1B6813
:10D34400D31A9B10044A02FB03F31A46FFF76EFE3E
:10D3540000BF05B05DF804FBEFEEEEEE84B0039081
:10D36400029101920093039B029A1A60039B019A13
:10D374005A60039B009A9A6000BF04B0704700B5DE
:10D3840083B0019000910099019800F0C1F8034620
:10D3940083F00103DBB2184603B05DF804FB82B0EE
:10D3A4000190019B1B68A3F13C02019B1A60019B45
:10D3B400184602B0704784B00190019B1B68039328
:10D3C400039B3C3B0393039B184604B0704700B592
:10D3D40083B0019000910198FFF7F6FB00BF03B002
:10D3E4005DF804FB82B00190019B5A68019B1B68A5
:10D3F400D31A9B10024A02FB03F3184602B070478B
:10D40400EFEEEEEE00B585B00190094B0393019B5E
:10D414000833184600F090F80290029A039B9A424F
:10D4240001D2029B00E0039B184605B05DF804FBA3
:10D434004444440400B583B001900348F3F79CFED0
:10D4440000BF03B05DF804FBF890010800B585B097
:10D454000390029101920093019A0299039800F0BB
:10D4640073F80346184605B05DF804FB00B589B0AF
:10D47400059004910392029307AA00230093134694
:10D48400039A0499059800F095F8034600BF1846DE
:10D4940009B05DF804FB000000B587B00390029169
:10D4A40001920093039B0593029A039BD31A9B104A
:10D4B4000A4A02FB03F30493049B002B0ADD01993F
:10D4C400059800F09FF8049B013B0493059B3C33B3
:10D4D4000593F1E700BF07B05DF804FBEFEEEEEE55
:10D4E40000B585B00190009102AB01991846FFF791
:10D4F40011FD03AB00991846FFF70CFD03A902AB1D
:10D504000022184600F091F800BF05B05DF804FB56
:10D5140010B582B001900091019800F09FF8044684
:10D52400009800F09BF803469C420CBF01230023A3
:10D53400DBB2184602B010BD82B00190014B184610
:10D5440002B070474444440400B587B0039002918C
:10D5540001920398FFF7F0FF0246029B93428CBFAF
:10D5640001230023DBB2002B05D01048F3F7FAFBAC
:10D574000120F3F792F8029B002B12D0029A134673
:10D584001B019B1A9B0005930598F3F793FD0490E8
:10D59400059B074AA2FB03235A09019B1A60049BBB
:10D5A40000E00023184607B05DF804FBC0900108B2
:10D5B4008988888800B587B003900291019200930E
:10D5C400019B0593029A039BD31A9B100C4A02FBFE
:10D5D40003F30493049B002B0DDD0399059800F0DD
:10D5E40011F8039B3C330393059B3C330593049B45
:10D5F400013B0493EEE7059B184607B05DF804FB76
:10D60400EFEEEEEE00B585B0019000910198FFF7C2
:10D6140045FDFFF748FD03AB1A460099019800F059
:10D6240024F800BF05B05DF804FB00B589B0039091
:10D634000291019205AB03991846FFF76BFC06AB08
:10D6440002991846FFF766FC07AB06A905A8019ADC
:10D65400FFF7BEFD00BF09B05DF804FB82B0019086
:10D66400019B1B68184602B0704700B585B0039053
:10D6740002910192039B19463C20F3F7F2FC034606
:10D6840002991846FFF711FD00BF05B05DF804FBD1
:10D6940070477047FEE7FEE7036813F0010F01D0FF
:10D6A4000020704701207047012303607047000089
:10D6B40008B5032000F0F0F801F00AFA0146144B13
:10D6C4009B691B0A03F00F03124AD35C03F01F0388
:10D6D40021FA03F3104A13600F4B1A680C4B9B6931
:10D6E40003F00F030B49CB5C03F01F0322FA03F38F
:10D6F4000A4A1360002007F0C9FA0346002B01D040
:10D70400012302E007F0F6F80023184608BD00BF25
:10D7140000440258A4080008000000240400002467
:10D72400044B1B781A46044B1B681344024A1360CB
:10D7340000BF704720000024C0D00224014B1B6AA4
:10D74400184670472800002400B583B00190019B5F
:10D75400184608F075F900BF03B05DF804FB00003B
:10D76400024B1B681B0C1846704700BF0010005C7E
:10D7740084B00190019B03F0070303930A4BDB6819
:10D784000293029A4FF6FF0313400293039B1A027B
:10D79400029B1A43054B13430293034A029BD36033
:10D7A40000BF04B0704700BF00ED00E00000FA05C0
:10D7B400034BDB681B0A03F007031846704700BFDE
:10D7C40000ED00E082B00346ADF80630BDF8063047
:10D7D40003F01F020549BDF906305B09012000FA78
:10D7E40002F241F8232000BF02B0704700E100E0DC
:10D7F40082B003460091ADF80630BDF90630002B27
:10D804000CDA009BDAB20C49BDF8063003F00F03C2
:10D81400043B1201D2B20B441A7609E0009BDAB23F
:10D824000649BDF906301201D2B20B4483F8002335
:10D8340000BF02B0704700BF00ED00E000E100E06F
:10D8440088B0039002910192039B03F007030793AE
:10D85400079BC3F10703042B28BF04230693079BEC
:10D864000433062B02D9079B033B00E000230593F6
:10D874000122069B02FA03F35A1E029B1A40059BDF
:10D884009A400121059B01FA03F3591E019B0B40A9
:10D894001343184608B0704700B583B0019001984F
:10D8A400FFF766FF00BF03B05DF804FB00B587B067
:10D8B400034602910192ADF80E30FFF779FF05900F
:10D8C400019A02990598FFF7BBFF0246BDF90E3095
:10D8D40011461846FFF78CFF00BF07B05DF804FB44
:10D8E40000B583B00346ADF80630BDF906301846DE
:10D8F400FFF768FF00BF03B05DF804FB00B585B017
:10D904000190019B002B01D1012389E1019B93F834
:10D914003530DBB2022B04D0019B80225A650123EF
:10D924007EE1019B1B688D4A93424AD0019B1B6890
:10D934008B4A934245D0019B1B688A4A934240D04C
:10D94400019B1B68884A93423BD0019B1B68874A12
:10D95400934236D0019B1B68854A934231D0019B88
:10D964001B68844A93422CD0019B1B68824A9342D1
:10D9740027D0019B1B68814A934222D0019B1B68DC
:10D984007F4A93421DD0019B1B687E4A934218D064
:10D99400019B1B687C4A934213D0019B1B687B4A02
:10D9A40093420ED0019B1B68794A934209D0019B94
:10D9B4001B68784A934204D0019B1B68764A9342C1
:10D9C40001D1012300E00023002B65D0019B042238
:10D9D40083F83520019B1B68604A93424AD0019B1F
:10D9E4001B685F4A934245D0019B1B685D4A934282
:10D9F40040D0019B1B685C4A93423BD0019B1B684F
:10DA04005A4A934236D0019B1B68594A934231D0FB
:10DA1400019B1B68574A93422CD0019B1B68564AB2
:10DA2400934227D0019B1B68544A934222D0019B06
:10DA34001B68534A93421DD0019B1B68514A934271
:10DA440018D0019B1B68504A934213D0019B1B685A
:10DA54004E4A93420ED0019B1B684D4A934209D013
:10DA6400019B1B684B4A934204D0019B1B684A4AA2
:10DA7400934208D1019B1B681A68019B1B6822F022
:10DA840001021A60CBE0019B1B681A68019B1B68AA
:10DA940022F001021A60C2E0019B1B681A68019B14
:10DAA4001B6822F00E021A60019B1B682B4A9342EA
:10DAB4004AD0019B1B682A4A934245D0019B1B68AC
:10DAC400284A934240D0019B1B68274A93423BD08B
:10DAD400019B1B68254A934236D0019B1B68244A4C
:10DAE400934231D0019B1B68224A93422CD0019B64
:10DAF4001B68214A934227D0019B1B681F4A93420B
:10DB040022D0019B1B681E4A93421DD0019B1B68B7
:10DB14001C4A934218D0019B1B681B4A934213D0A2
:10DB2400019B1B68194A93420ED0019B1B68184A3B
:10DB3400934209D0019B1B68164A934204D0019B6F
:10DB44001B68154A934229D1019B1B681A68019BE3
:10DB54001B6822F001021A6028E000BF1000024096
:10DB64002800024040000240580002407000024079
:10DB740088000240A0000240B800024010040240A5
:10DB84002804024040040240580402407004024049
:10DB940088040240A0040240B8040240019B1B68B0
:10DBA4001A68019B1B6822F001021A60019B1B6E1C
:10DBB4001A68019B1B6E22F480721A60019B9B6D94
:10DBC4000393019BDB6D03F01F0301229A40039B27
:10DBD4005A60019B5B6E019A926E5A60019BDB6EE8
:10DBE400002B0CD0019BDB6E1A68019BDB6E22F4C8
:10DBF40080721A60019B1B6F019A526F5A60019BDD
:10DC0400002283F83420019B012283F83520019BF4
:10DC14001B6D002B03D0019B1B6D019898470023BB
:10DC2400184605B05DF804FB88B00190009100230C
:10DC34000793894B059394E1009B1A680121079B84
:10DC440001FA03F313400493049B002B00F0868134
:10DC5400009B5B68022B03D0009B5B68122B23D1D3
:10DC6400079BDA08019B083253F822300693079B7E
:10DC740003F007039B000F2202FA03F3DB43069A27
:10DC840013400693009B1A69079B03F007039B004C
:10DC940002FA03F3069A13430693079BDA08019BDF
:10DCA4000832069943F82210019B1B680693079BD0
:10DCB4005B00032202FA03F3DB43069A1340069344
:10DCC400009B5B6803F00302079B5B0002FA03F30B
:10DCD400069A13430693019B069A1A60009B5B689D
:10DCE400012B0BD0009B5B68022B07D0009B5B6869
:10DCF400112B03D0009B5B68122B30D1019B9B68D6
:10DD04000693079B5B00032202FA03F3DB43069AA4
:10DD140013400693009BDA68079B5B0002FA03F347
:10DD2400069A13430693019B069A9A60019B5B68CB
:10DD340006930122079B02FA03F3DB43069A13407E
:10DD44000693009B5B681B0903F00102079B02FA20
:10DD540003F3069A13430693019B069A5A60019BA8
:10DD6400DB680693079B5B00032202FA03F3DB43A1
:10DD7400069A13400693009B9A68079B5B0002FA7D
:10DD840003F3069A13430693019B069ADA60009BF9
:10DD94005B6803F08053002B00F0E0802F4BD3F836
:10DDA400F4302E4A43F00203C2F8F4302B4BD3F87C
:10DDB400F43003F002030393039B294A079B9B0857
:10DDC400023352F823300693079B03F003039B00AE
:10DDD4000F2202FA03F3DB43069A13400693019BD6
:10DDE400204A934252D0019B1F4A934231D0019B57
:10DDF4001E4A93422BD0019B1D4A934225D0019B7E
:10DE04001C4A93421FD0019B1B4A934219D0019B89
:10DE14001A4A934213D0019B194A93420DD0019B95
:10DE2400184A934207D0019B174A934201D1092310
:10DE34002DE00A232BE0082329E0072327E006230B
:10DE440025E0052323E0042321E003231FE002232C
:10DE54001DE001231BE000BF80000058004402586D
:10DE64000004005800000258000402580008025838
:10DE7400000C0258001002580014025800180258EE
:10DE8400001C025800200258002402580023079A5C
:10DE940002F0030292009340069A13430693364914
:10DEA400079B9B080233069A41F82320059B1B68B5
:10DEB4000693049BDB43069A13400693009B5B681E
:10DEC40003F48033002B03D0069A049B1343069378
:10DED400059B069A1A60059B5B680693049BDB43CB
:10DEE400069A13400693009B5B6803F40033002BEF
:10DEF40003D0069A049B13430693059B069A5A6023
:10DF04004FF0B0431B680693049BDB43069A13400F
:10DF14000693009B5B6803F48013002B03D0069ADE
:10DF2400049B134306934FF0B042069B13604FF0DB
:10DF3400B0435B680693049BDB43069A1340069345
:10DF4400009B5B6803F40013002B03D0069A049B28
:10DF5400134306934FF0B042069B5360079B013373
:10DF64000793009B1A68079B22FA03F3002B7FF4A4
:10DF740063AE00BF08B070470004005882B001903F
:10DF84000B46ADF8023013468DF801309DF8013090
:10DF9400002B04D0BDF80220019B9A6104E0BDF877
:10DFA40002301A04019B9A6100BF02B0704700005E
:10DFB40000B585B00190184BDB6803F00403042B13
:10DFC40008D0154BDB6803F00703019A9A4201D08D
:10DFD40001231DE0104BDB6823F007020E49019B6F
:10DFE4001343CB60FFF7AAFB039009E0FFF7A6FBFE
:10DFF4000246039BD31AB3F57A7F01D9032307E0C2
:10E00400054B5B6803F40053B3F5005FEED10023C6
:10E01400184605B05DF804FB0048025800B58BB003
:10E024000190019B002B01D10123A5E3019B1B68F7
:10E0340003F00103002B00F087809B4B1B6903F066
:10E0440038030993984B9B6A0893099B102B07D0BC
:10E05400099B182B10D1089B03F00303022B0BD14F
:10E06400914B1B6803F40033002B6CD0019B5B685D
:10E07400002B68D101237FE3019B5B68B3F5803FEC
:10E0840006D1894B1B68884A43F4803313602EE021
:10E09400019B5B68002B0CD1834B1B68824A23F4E1
:10E0A40080331360804B1B687F4A23F48023136002
:10E0B4001DE0019B5B68B3F5A02F0CD17A4B1B6864
:10E0C400794A43F480231360774B1B68764A43F400
:10E0D400803313600BE0744B1B68734A23F4803362
:10E0E4001360714B1B68704A23F480231360019BF7
:10E0F4005B68002B13D0FFF721FB079008E0FFF7C4
:10E104001DFB0246079BD31A642B01D9032333E377
:10E11400654B1B6803F40033002BF0D014E0FFF7C9
:10E124000DFB079008E0FFF709FB0246079BD31A93
:10E13400642B01D903231FE35B4B1B6803F40033F7
:10E14400002BF0D100E000BF019B1B6803F0020329
:10E15400002B00F0B180544B1B6903F03803069385
:10E16400514B9B6A0593069B002B07D0069B182BEB
:10E1740049D1059B03F00303002B44D14A4B1B6890
:10E1840003F00403002B05D0019BDB68002B01D1B5
:10E194000123F1E2444B1B6823F01902019BDB6865
:10E1A400414913430B60FFF7C9FA079008E0FFF7F2
:10E1B400C5FA0246079BD31A022B01D90323DBE2DB
:10E1C400394B1B6803F00403002BF0D0FFF7C8FAA7
:10E1D400024641F203039A420AD8334B5B6823F4A4
:10E1E4007C32019B1B691B032F4913434B6063E083
:10E1F4002D4B5B6823F0FE42019B1B691B062A49D9
:10E2040013434B6058E0019BDB68002B38D0264B4E
:10E214001B6823F01902019BDB68234913430B603D
:10E22400FFF78CFA079008E0FFF788FA0246079B8D
:10E23400D31A022B01D903239EE21B4B1B6803F064
:10E244000403002BF0D0FFF78BFA024641F20303DC
:10E254009A420AD8144B5B6823F47C32019B1B69F5
:10E264001B03114913434B6026E00F4B5B6823F0FB
:10E27400FE42019B1B691B060B4913434B601BE0C9
:10E28400094B1B68084A23F001031360FFF756FA91
:10E2940007900BE0FFF752FA0246079BD31A022BB2
:10E2A40004D9032368E200BF00440258A04B1B6852
:10E2B40003F00403002BEDD1019B1B6803F0100352
:10E2C400002B00F08F809A4B1B6903F038030493F2
:10E2D400974B9B6A0393049B082B07D0049B182B32
:10E2E4002DD1039B03F00303012B28D1904B1B6812
:10E2F40003F48073002B05D0019BDB69802B01D0D4
:10E30400012339E2FFF72CFA024641F203039A4251
:10E314000AD8874B5B6823F0F842019B1B6A9B0673
:10E32400834913434B605DE0814BDB6823F07C52EF
:10E33400019B1B6A1B067E491343CB6052E0019B81
:10E34400DB69002B35D07A4B1B68794A43F0800394
:10E354001360FFF7F3F9079008E0FFF7EFF90246BF
:10E36400079BD31A022B01D9032305E2704B1B68C8
:10E3740003F48073002BF0D0FFF7F2F9024641F268
:10E3840003039A420AD86A4B5B6823F0F842019B64
:10E394001B6A9B06664913434B6023E0644BDB68AE
:10E3A40023F07C52019B1B6A1B0661491343CB601B
:10E3B40018E05F4B1B685E4A23F080031360FFF78D
:10E3C400BDF9079008E0FFF7B9F90246079BD31A95
:10E3D400022B01D90323CFE1554B1B6803F480734F
:10E3E400002BF0D1019B1B6803F00803002B36D0EF
:10E3F400019B5B69002B19D04D4B5B6F4C4A43F07A
:10E4040001035367FFF79AF9079008E0FFF796F9BD
:10E414000246079BD31A022B01D90323ACE1444BD8
:10E424005B6F03F00203002BF0D018E0404B5B6FEE
:10E434003F4A23F001035367FFF780F9079008E090
:10E44400FFF77CF90246079BD31A022B01D9032359
:10E4540092E1374B5B6F03F00203002BF0D1019B79
:10E464001B6803F02003002B36D0019B9B69002B13
:10E4740019D02F4B1B682E4A43F480531360FFF7C7
:10E484005DF9079008E0FFF759F90246079BD31A94
:10E49400022B01D903236FE1254B1B6803F40053BE
:10E4A400002BF0D018E0224B1B68214A23F4805340
:10E4B4001360FFF743F9079008E0FFF73FF90246BE
:10E4C400079BD31A022B01D9032355E1184B1B6870
:10E4D40003F40053002BF0D1019B1B6803F00403E9
:10E4E400002B00F08680134B1B68124A43F48073A0
:10E4F4001360FFF723F9079008E0FFF71FF90246BE
:10E50400079BD31A642B01D9032335E1094B1B68FC
:10E5140003F48073002BF0D0019B9B68012B0BD17B
:10E52400034B1B6F024A43F00103136732E000BF41
:10E534000044025800480258019B9B68002B0CD1F0
:10E544008F4B1B6F8E4A23F0010313678C4B1B6F99
:10E554008B4A23F0040313671CE0019B9B68052B83
:10E564000CD1874B1B6F864A43F004031367844B1B
:10E574001B6F834A43F0010313670BE0804B1B6F4F
:10E584007F4A23F0010313677D4B1B6F7C4A23F002
:10E5940004031367019B9B68002B15D0FFF7CEF88B
:10E5A40007900AE0FFF7CAF80246079BD31A41F224
:10E5B4008832934201D90323DEE0714B1B6F03F0D1
:10E5C4000203002BEED014E0FFF7B8F807900AE03E
:10E5D400FFF7B4F80246079BD31A41F288329342FC
:10E5E40001D90323C8E0664B1B6F03F00203002B21
:10E5F400EED1019B5B6A002B00F0BD80604B1B6970
:10E6040003F03803182B00F0B480019B5B6A022BE3
:10E6140040F095805A4B1B68594A23F0807313606D
:10E62400FFF78CF8079008E0FFF788F80246079B8D
:10E63400D31A022B01D903239EE0514B1B6803F02C
:10E644000073002BF0D14E4B9A6A4E4B1340019A43
:10E65400916A019AD26A12010A43494913438B62AF
:10E66400019B1B6B013BC3F30802019B5B6B013BEA
:10E674005B029BB21A43019B9B6B013B1B0403F49B
:10E68400FE031A43019BDB6B013B1B0603F0FE43B5
:10E694003B4913430B633A4BDB6A394A23F00103CA
:10E6A400D362374B5A6B384B1340019A926CD200A9
:10E6B400334913434B63324BDB6A23F00C02019B57
:10E6C4001B6C2F491343CB622D4BDB6A23F00202F0
:10E6D400019B5B6C2A491343CB62294BDB6A284AB2
:10E6E40043F48033D362264BDB6A254A43F4003378
:10E6F400D362234BDB6A224A43F48023D362204B48
:10E70400DB6A1F4A43F00103D3621D4B1B681C4A9A
:10E7140043F080731360FFF711F8079008E0FFF7E8
:10E724000DF80246079BD31A022B01D9032323E0D9
:10E73400134B1B6803F00073002BF0D01BE0104B4D
:10E744001B680F4A23F080731360FEF7F7FF0790EE
:10E7540008E0FEF7F3FF0246079BD31A022B01D908
:10E76400032309E0064B1B6803F00073002BF0D170
:10E7740001E0012300E0002318460BB05DF804FB20
:10E78400004402580CFCFFFF0700FFFF00B585B0F2
:10E7940001900091019B002B01D101238EE18B4B51
:10E7A4001B6803F00F03009A9A4210D9874B1B6829
:10E7B40023F00F028549009B13430B60834B1B68B6
:10E7C40003F00F03009A9A4201D0012376E1019BE2
:10E7D4001B6803F00403002B10D0019B1A697C4BC7
:10E7E4009B6903F070039A4208D9794B9B6923F023
:10E7F4007002019B1B69764913438B61019B1B6863
:10E8040003F00803002B10D0019B5A69704BDB699D
:10E8140003F070039A4208D96D4BDB6923F0700250
:10E82400019B5B696A491343CB61019B1B6803F03D
:10E834001003002B10D0019B9A69654BDB6903F42C
:10E84400E0639A4208D9624BDB6923F4E062019BDE
:10E854009B695F491343CB61019B1B6803F0200351
:10E86400002B10D0019BDA69594B1B6A03F070032B
:10E874009A4208D9564B1B6A23F07002019BDB694C
:10E88400534913430B62019B1B6803F00203002BE3
:10E8940010D0019BDA684E4B9B6903F00F039A4238
:10E8A40008D94B4B9B6923F00F02019BDB68484955
:10E8B40013438B61019B1B6803F00103002B55D0AC
:10E8C400434B9B6923F47062019B9B68404913434B
:10E8D4008B61019B5B68022B07D13D4B1B6803F4E2
:10E8E4000033002B21D10123E8E0019B5B68032B5B
:10E8F40007D1374B1B6803F00073002B15D101239C
:10E90400DCE0019B5B68012B07D1314B1B6803F4EE
:10E914008073002B09D10123D0E02D4B1B6803F039
:10E924000403002B01D10123C8E0294B1B6923F008
:10E934000702019B5B68264913430B61FEF7FEFE49
:10E9440003900AE0FEF7FAFE0246039BD31A41F253
:10E954008832934201D90323B0E01D4B1B6903F0B5
:10E964003802019B5B68DB009A42EBD1019B1B6878
:10E9740003F00203002B10D0019BDA68144B9B694F
:10E9840003F00F039A4208D2114B9B6923F00F0244
:10E99400019BDB680E4913438B610C4B1B6803F02E
:10E9A4000F03009A9A4215D2084B1B6823F00F02FA
:10E9B4000649009B13430B60044B1B6803F00F03D1
:10E9C400009A9A4206D0012378E000BF002000524A
:10E9D40000440258019B1B6803F00403002B10D071
:10E9E400019B1A69374B9B6903F070039A4208D262
:10E9F400344B9B6923F07002019B1B69314913431B
:10EA04008B61019B1B6803F00803002B10D0019B52
:10EA14005A692C4BDB6903F070039A4208D2294BE4
:10EA2400DB6923F07002019B5B6926491343CB61C8
:10EA3400019B1B6803F01003002B10D0019B9A6903
:10EA4400204BDB6903F4E0639A4208D21D4BDB6977
:10EA540023F4E062019B9B691A491343CB61019B38
:10EA64001B6803F02003002B10D0019BDA69154BBF
:10EA74001B6A03F070039A4208D2124B1B6A23F0FC
:10EA84007002019BDB690F4913430B6200F020F80D
:10EA940001460C4B9B691B0A03F00F030A4AD35C23
:10EAA40003F01F0321FA03F3084A1360002006F061
:10EAB400EDF803468DF80B309DF80B30184605B081
:10EAC4005DF804FB00440258A40800080000002478
:10EAD40088B0AF4B1B6903F03803182B00F2508148
:10EAE40001A252F823F000BF51EB000885ED0008A5
:10EAF40085ED000885ED000885ED000885ED00082A
:10EB040085ED000885ED000877EB000885ED000829
:10EB140085ED000885ED000885ED000885ED000809
:10EB240085ED000885ED00087DEB000885ED000803
:10EB340085ED000885ED000885ED000885ED0008E9
:10EB440085ED000885ED000883EB0008904B1B68F9
:10EB540003F02003002B09D08D4B1B68DB0803F066
:10EB640003038C4A22FA03F306930CE1894B0693C0
:10EB740009E1894B069306E1884B069303E1844B34
:10EB84009B6A03F003030593814B9B6A1B0903F003
:10EB94003F0304937E4BDB6A03F0010303937C4B36
:10EBA4005B6BDB08C3F30C03039A02FB03F307EE6E
:10EBB400903AF8EE677ACDED027A049B002B00F0D0
:10EBC400DC80059B012B5CD0059B002B03D0059BAF
:10EBD400022B78D099E06E4B1B6803F02003002BC6
:10EBE4002DD06B4B1B68DB0803F00303694A22FA40
:10EBF40003F30193019B07EE903AF8EE676A049BD6
:10EC040007EE903AF8EE677A86EEA77A604B1B6BB4
:10EC1400C3F3080307EE903AF8EE676A9DED026AC3
:10EC2400DFED5F5AC6EE257A76EEA77AF7EE006A34
:10EC340077EEA67A67EE277ACDED077A87E0049B14
:10EC440007EE903AF8EE677ADFED566A86EEA77A19
:10EC54004F4B1B6BC3F3080307EE903AF8EE676A59
:10EC64009DED026ADFED4E5AC6EE257A76EEA77A5E
:10EC7400F7EE006A77EEA67A67EE277ACDED077A8B
:10EC840065E0049B07EE903AF8EE677ADFED466A9A
:10EC940086EEA77A3E4B1B6BC3F3080307EE903A4C
:10ECA400F8EE676A9DED026ADFED3D5AC6EE257AFD
:10ECB40076EEA77AF7EE006A77EEA67A67EE277A01
:10ECC400CDED077A43E0049B07EE903AF8EE677ABD
:10ECD400DFED366A86EEA77A2D4B1B6BC3F3080370
:10ECE40007EE903AF8EE676A9DED026ADFED2C5A62
:10ECF400C6EE257A76EEA77AF7EE006A77EEA67A64
:10ED040067EE277ACDED077A21E0049B07EE903A6F
:10ED1400F8EE677ADFED246A86EEA77A1C4B1B6B4C
:10ED2400C3F3080307EE903AF8EE676A9DED026AB2
:10ED3400DFED1B5AC6EE257A76EEA77AF7EE006A67
:10ED440077EEA67A67EE277ACDED077A00BF104BEF
:10ED54001B6B5B0A03F07F0301330093009B07EEF8
:10ED6400903AB8EE677ADDED076AC6EE877AFCEE74
:10ED7400E77A17EE903A069305E00023069302E043
:10ED8400054B069300BF069B184608B0704700BFAA
:10ED9400004402580090D00300093D0000127A009C
:10EDA400000000460024744C0024744A0024F44AF1
:10EDB40008B500F0E1FF0146074B9B6903F00F0320
:10EDC400064AD35C03F01F0321FA03F3044A1360D9
:10EDD400034B1B68184608BD00440258A4080008E9
:10EDE4000400002408B5FFF7E3FF0146064BDB6986
:10EDF4001B0A03F00703054AD35C03F01F0321FA3F
:10EE040003F3184608BD00BF00440258A4080008D4
:10EE140082B001900091019B3F221A60194B1B693B
:10EE240003F00702019B5A60164B9B6903F470625E
:10EE3400019B9A60134B9B6903F00F02019BDA60FC
:10EE4400104B9B6903F07002019B1A610D4BDB6947
:10EE540003F07002019B5A610A4BDB6903F4E06220
:10EE6400019B9A61074B1B6A03F07002019BDA61F4
:10EE7400054B1B6803F00F02009B1A6000BF02B031
:10EE8400704700BF004402580020005200B587B00C
:10EE9400019000238DF8173000238DF81630019B64
:10EEA4001B6803F00063002B43D0019B5B6EB3F53A
:10EEB400801F13D0B3F5801F02D8002B07D021E0A8
:10EEC400B3F5001F14D0B3F5401F1FD01AE0B24BA6
:10EED400DB6AB14A43F40033D36218E0019B043384
:10EEE4000221184600F064FF03468DF817300EE047
:10EEF400019B24330221184601F00CF803468DF8D7
:10EF0400173004E001238DF8173000E000BF9DF8AE
:10EF14001730002B09D1A04B1B6D23F44012019B29
:10EF24005B6E9D4913430B6503E09DF817308DF824
:10EF34001630019B1B6803F48073002B42D0019BA5
:10EF44005B6D042B27D801A252F823F065EF00086B
:10EF540073EF000887EF0008A3EF0008A3EF000891
:10EF64008D4BDB6A8C4A43F40033D36218E0019B77
:10EF740004330021184600F01BFF03468DF81730B8
:10EF84000EE0019B24330021184600F0C3FF034622
:10EF94008DF8173004E001238DF8173000E000BF2E
:10EFA4009DF81730002B09D17B4B1B6D23F0070212
:10EFB400019B5B6D784913430B6503E09DF81730A3
:10EFC4008DF81630019B1B6803F40073002B44D0AA
:10EFD400019B9B6D802B1DD0802B04D8002B08D067
:10EFE400402B0DD020E0C02B22D0B3F5807F21D060
:10EFF4001AE0694BDB6A684A43F40033D3621AE0CF
:10F00400019B04330021184600F0D2FE03468DF81C
:10F01400173010E0019B24330021184600F07AFFDA
:10F0240003468DF8173006E001238DF8173002E00F
:10F0340000BF00E000BF9DF81730002B09D1564BEC
:10F044001B6D23F4E072019B9B6D534913430B65C5
:10F0540003E09DF817308DF81630019B1B6803F40C
:10F064008063002B4AD0019BD3F8A430B3F5800F02
:10F0740020D0B3F5800F05D8002B0AD0B3F5001FBC
:10F084000ED021E0B3F5C00F22D0B3F5000F21D08C
:10F094001AE0414BDB6A404A43F40033D3621AE07E
:10F0A400019B04330021184600F082FE03468DF8CC
:10F0B400173010E0019B24330021184600F02AFF8A
:10F0C40003468DF8173006E001238DF8173002E06F
:10F0D40000BF00E000BF9DF81730002B0AD12E4B73
:10F0E4009B6D23F46002019BD3F8A4302A49134397
:10F0F4008B6503E09DF817308DF81630019B1B6873
:10F1040003F40063002B4DD0019BD3F8A830B3F176
:10F11400007F20D0B3F1007F05D8002B0AD0B3F1D3
:10F12400807F0ED021E0B3F1407F22D0B3F1806F15
:10F1340021D01AE0184BDB6A174A43F40033D36238
:10F144001AE0019B04330021184600F031FE034607
:10F154008DF8173010E0019B24330021184600F08D
:10F16400D9FE03468DF8173006E001238DF81730D9
:10F1740002E000BF00E000BF9DF81730002B0DD166
:10F18400054B9B6D23F0E062019BD3F8A830024944
:10F1940013438B6506E000BF004402589DF8173006
:10F1A4008DF81630019B1B6803F00073002B37D0D9
:10F1B400019B9B6C102B09D0102B02D8002B1AD06A
:10F1C40015E0202B09D0302B17D010E0B34BDB6AAD
:10F1D400B24A43F40033D36210E0019B04330221AA
:10F1E400184600F0E5FD03468DF8173006E00123CC
:10F1F4008DF8173002E000BF00E000BF9DF8173023
:10F20400002B09D1A54BDB6C23F03002019B9B6CD6
:10F21400A2491343CB6403E09DF817308DF81630F0
:10F22400019B1B6803F48053002B48D0019BDB6DCA
:10F23400B3F5005F20D0B3F5005F05D8002B0AD0EA
:10F24400B3F5805F0ED021E0B3F5405F22D0B3F573
:10F25400804F21D01AE0914BDB6A904A43F400338B
:10F26400D3621AE0019B04330021184600F0A0FD8C
:10F2740003468DF8173010E0019B24330021184613
:10F2840000F048FE03468DF8173006E001238DF8A0
:10F29400173002E000BF00E000BF9DF81730002BDC
:10F2A40009D17E4B1B6D23F4E042019BDB6D7B494E
:10F2B40013430B6503E09DF817308DF81630019B5E
:10F2C4001B6803F40053002B48D0019B1B6EB3F55D
:10F2D400003F1CD0B3F5003F05D8002B25D0B3F573
:10F2E400803F0AD01DE0B3F5802F20D0B3F5A02FC6
:10F2F4001FD0B3F5403F1ED013E0019B043301211E
:10F30400184600F055FD03468DF8173014E0019BB4
:10F3140024330121184600F0FDFD03468DF8173013
:10F324000AE001238DF8173006E000BF04E000BFB7
:10F3340002E000BF00E000BF9DF81730002B09D1A8
:10F34400564B1B6D23F4E022019B1B6E5349134360
:10F354000B6503E09DF817308DF81630019B1B6890
:10F3640003F48043002B4AD0019BD3F8AC30B3F1B3
:10F37400005F1CD0B3F1005F05D8002B25D0B3F19A
:10F38400805F0AD01DE0B3F1804F20D0B3F1A04FCD
:10F394001FD0B3F1405F1ED013E0019B0433012161
:10F3A400184600F005FD03468DF8173014E0019B64
:10F3B40024330121184600F0ADFD03468DF81730C3
:10F3C4000AE001238DF8173006E000BF04E000BF17
:10F3D40002E000BF00E000BF9DF81730002B0AD107
:10F3E4002E4B9B6D23F0E042019BD3F8AC302B49AC
:10F3F40013438B6503E09DF817308DF81630019B9D
:10F404001B6803F40043002B32D0019BDB6EB3F185
:10F41400805F05D0B3F1005F09D0002B15D010E058
:10F424001E4BDB6A1D4A43F40033D3620EE0019B9A
:10F4340004330121184600F0BBFC03468DF8173055
:10F4440004E001238DF8173000E000BF9DF8173069
:10F45400002B09D1114B1B6D23F04052019BDB6E35
:10F464000E4913430B6503E09DF817308DF81630F1
:10F47400019B1B6803F08073002B39D0019B5B6CEC
:10F48400032B1ED801A252F823F000BFCFF40008CA
:10F49400A5F40008B3F40008CFF4000800440258AF
:10F4A400BC4BDB6ABB4A43F40033D3620EE0019BDE
:10F4B40004330221184600F07BFC03468DF8173014
:10F4C40004E001238DF8173000E000BF9DF81730E9
:10F4D400002B09D1AF4BDB6C23F00302019B5B6C67
:10F4E400AC491343CB6403E09DF817308DF8163014
:10F4F400019B1B6803F48003002B00F08E80A64B55
:10F504001B68A54A43F480731360FEF717F904904F
:10F514000AE0FEF713F90246049BD31A642B03D9BD
:10F5240003238DF8173005E09B4B1B6803F48073AD
:10F53400002BEED09DF81730002B6AD1954B1A6F33
:10F54400019BD3F8B030534003F44073002B13D025
:10F55400904B1B6F23F4407303938E4B1B6F8D4AA8
:10F5640043F4803313678B4B1B6F8A4A23F4803335
:10F574001367884A039B1367019BD3F8B030B3F534
:10F58400807F16D1FEF7DAF804900CE0FEF7D6F887
:10F594000246049BD31A41F28832934203D90323CF
:10F5A4008DF8173005E07B4B1B6F03F00203002B33
:10F5B400ECD09DF81730002B26D1019BD3F8B03046
:10F5C40003F44073B3F5407F0DD1724B1B6923F4F0
:10F5D4007C52019BD3F8B0301909704B0B406D4934
:10F5E40013430B6105E06B4B1B696A4A23F47C539C
:10F5F4001361684B1A6F019BD3F8B030C3F30B034C
:10F60400644913430B6708E09DF817308DF81630F2
:10F6140003E09DF817308DF81630019B1B6803F04A
:10F624000103002B00F08580019B9B6F282B69D878
:10F6340001A252F823F000BF11F7000809F70008EF
:10F6440009F7000809F7000809F7000809F7000896
:10F6540009F7000809F70008E1F6000809F70008AF
:10F6640009F7000809F7000809F7000809F7000876
:10F6740009F7000809F70008F5F6000809F700087B
:10F6840009F7000809F7000809F7000809F7000856
:10F6940009F7000809F7000811F7000809F700083E
:10F6A40009F7000809F7000809F7000809F7000836
:10F6B40009F7000809F7000811F7000809F700081E
:10F6C40009F7000809F7000809F7000809F7000816
:10F6D40009F7000809F7000811F70008019B043333
:10F6E4000121184600F064FB03468DF817300EE044
:10F6F400019B24330121184600F00CFC03468DF8CD
:10F70400173004E001238DF8173000E000BF9DF8A6
:10F714001730002B09D11F4B5B6D23F03802019B7E
:10F724009B6F1C4913434B6503E09DF817308DF81C
:10F734001630019B1B6803F00203002B43D0019B8E
:10F744005B6F052B22D801A252F823F0A5F700081D
:10F7540069F700087DF70008A5F70008A5F7000879
:10F76400A5F70008019B04330121184600F020FB93
:10F7740003468DF8173014E0019B24330121184609
:10F7840000F0C8FB03468DF817300AE001238DF81A
:10F79400173006E00044025800480258CFFFFF002B
:10F7A40000BF9DF81730002B09D1B04B5B6D23F0DF
:10F7B4000702019B5B6FAD4913434B6503E09DF862
:10F7C40017308DF81630019B1B6803F00403002BDF
:10F7D40040D0019BD3F89030052B23D801A252F8D6
:10F7E40023F000BF31F8000801F8000815F80008FC
:10F7F40031F8000831F8000831F80008019B04339F
:10F804000121184600F0D4FA03468DF817300EE0B3
:10F81400019B24330121184600F07CFB03468DF83C
:10F82400173004E001238DF8173000E000BF9DF885
:10F834001730002B0AD18D4B9B6D23F00702019BDF
:10F84400D3F89030894913438B6503E09DF8173052
:10F854008DF81630019B1B6803F02003002B4AD05F
:10F86400019BD3F88C30B3F1005F1CD0B3F1005F7F
:10F8740005D8002B25D0B3F1805F0AD01DE0B3F189
:10F88400804F20D0B3F1A04F1FD0B3F1405F1ED002
:10F8940013E0019B04330021184600F089FA034663
:10F8A4008DF8173014E0019B24330221184600F030
:10F8B40031FB03468DF817300AE001238DF8173029
:10F8C40006E000BF04E000BF02E000BF00E000BFAC
:10F8D4009DF81730002B0AD1644B5B6D23F0E04296
:10F8E400019BD3F88C30614913434B6503E09DF8C9
:10F8F40017308DF81630019B1B6803F04003002B72
:10F904004AD0019BD3F89830B3F5006F1CD0B3F5FF
:10F91400006F05D8002B25D0B3F5806F0AD01DE009
:10F92400B3F5805F20D0B3F5A05F1FD0B3F5406F6F
:10F934001ED013E0019B04330021184600F038FA6E
:10F9440003468DF8173014E0019B24330221184636
:10F9540000F0E0FA03468DF817300AE001238DF831
:10F96400173006E000BF04E000BF02E000BF00E083
:10F9740000BF9DF81730002B0AD13C4B9B6D23F43C
:10F98400E052019BD3F89830384913438B6503E068
:10F994009DF817308DF81630019B1B6803F0800327
:10F9A400002B4AD0019BD3F89C30B3F5804F1CD078
:10F9B400B3F5804F05D8002B25D0B3F5005F0AD0EE
:10F9C4001DE0B3F5004F20D0B3F5204F1FD0B3F5A1
:10F9D400C04F1ED013E0019B04330021184600F0F1
:10F9E400E7F903468DF8173014E0019B2433022114
:10F9F400184600F08FFA03468DF817300AE0012309
:10FA04008DF8173006E000BF04E000BF02E000BF3D
:10FA140000E000BF9DF81730002B0AD1134B9B6DFB
:10FA240023F46042019BD3F89C30104913438B6547
:10FA340003E09DF817308DF81630019B1B6803F026
:10FA44000803002B1ED0019BD3F88030B3F5805FF0
:10FA54000ED1019B24330221184600F05BFA0346C1
:10FA6400002B0FD001238DF816300BE00044025810
:10FA7400904B5B6D23F44052019BD3F880308D4949
:10FA840013434B65019B1B6803F01003002B1CD030
:10FA9400019BD3F89430B3F5807F0CD1019B2433C0
:10FAA4000221184600F036FA0346002B0DD001233C
:10FAB4008DF8163009E07F4B9B6D23F44072019B57
:10FAC400D3F894307B4913438B65019B1B6803F483
:10FAD4000023002B36D0019BD3F8A030B3F5803F30
:10FAE4000ED0B3F5003F19D0002B13D1019B043382
:10FAF4000021184600F05CF903468DF817300EE03B
:10FB0400019B24330221184600F004FA03468DF8C1
:10FB1400173004E001238DF8173000E000BF9DF892
:10FB24001730002B0AD1634B9B6D23F44032019BA9
:10FB3400D3F8A0305F4913438B6503E09DF8173079
:10FB44008DF81630019B1B6803F48023002B34D0FE
:10FB5400019BD3F88430B3F5001F0CD0B3F5401FDC
:10FB640017D0B3F5801F10D1524BDB6A514A43F4CE
:10FB74000033D3620EE0019B24330121184600F0C8
:10FB8400C9F903468DF8173004E001238DF81730C6
:10FB940000E000BF9DF81730002B0AD1454B5B6D88
:10FBA40023F44012019BD3F88430424913434B653C
:10FBB40003E09DF817308DF81630019B1B6803F4A1
:10FBC4008033002B2ED0019BDB6C002B03D0B3F5CC
:10FBD400803F07D010E0374BDB6A364A43F40033EA
:10FBE400D3620DE0019B04330221184600F0E0F8D3
:10FBF40003468DF8173003E001238DF8173000BF5A
:10FC04009DF81730002B09D12A4BDB6C23F480328A
:10FC1400019BDB6C27491343CB6403E09DF8173049
:10FC24008DF81630019B1B6803F00053002B0BD09A
:10FC3400019B24330221184600F06CF90346002B83
:10FC440002D001238DF81630019B1B6803F40033A6
:10FC5400002B35D0019BDB6FB3F5807F0CD0B3F55F
:10FC6400807F02D8002B12D00DE0B3F5007F10D0B6
:10FC7400B3F5407F0FD006E00E4BDB6A0D4A43F428
:10FC84000033D36208E001238DF8173004E000BF8D
:10FC940002E000BF00E000BF9DF81730002B0BD13D
:10FCA400044B5B6D23F44072019BDB6F01491343EA
:10FCB4004B6505E0004402589DF817308DF8163066
:10FCC400019B1B6803F48013002B08D0294B1B6D88
:10FCD40023F00042019B1B6F264913430B65019BD4
:10FCE4001B6803F08053002B09D0224B1B6923F4BB
:10FCF4008042019BD3F8B4301E4913430B61019B2E
:10FD04001B6803F40013002B08D01A4B1B6D23F05F
:10FD14008072019B9B6E174913430B65019B1B6803
:10FD240003F08043002B0DD0124B1B69114A23F4BE
:10FD3400004313610F4B1A69019BD3F8B8300D4986
:10FD440013430B61019B1B68002B08DA094BDB6C26
:10FD540023F04052019B1B6D06491343CB649DF86D
:10FD64001630002B01D1002300E00123184607B010
:10FD74005DF804FB0044025808B5FEF7A9FE0146ED
:10FD8400084B9B691B0A03F00F03074AD35C03F07B
:10FD94001F0321FA03F3054A1360044B1B6818463A
:10FDA40008BD00BF00440258A40800080000002455
:10FDB40000B585B00190009100238DF80F30534BAE
:10FDC4009B6A03F00303032B01D101239AE04F4BF9
:10FDD4001B684E4A23F080631360FDF7AFFC02906A
:10FDE40008E0FDF7ABFC0246029BD31A022B01D9B3
:10FDF400032387E0454B1B6803F00063002BF0D11D
:10FE0400424B9B6A23F47C32019B1B681B033F49D2
:10FE140013438B62019B5B68013BC3F30802019BA4
:10FE24009B68013B5B029BB21A43019BDB68013B6D
:10FE34001B0403F4FE031A43019B1B69013B1B06CD
:10FE440003F0FE43314913438B63304BDB6A23F0E9
:10FE5400C002019B5B692D491343CB622B4BDB6AC8
:10FE640023F02002019B9B6928491343CB62274B53
:10FE7400DB6A264A23F01003D362244BDA6B244B4B
:10FE84001340019AD269D20020491343CB631F4B1C
:10FE9400DB6A1E4A43F01003D362009B002B06D199
:10FEA4001A4BDB6A194A43F40023D3620FE0009B28
:10FEB400012B06D1154BDB6A144A43F48013D36239
:10FEC40005E0124BDB6A114A43F40013D3620F4B73
:10FED4001B680E4A43F080631360FDF72FFC029009
:10FEE40008E0FDF72BFC0246029BD31A022B01D932
:10FEF400032307E0054B1B6803F00063002BF0D0DD
:10FF04009DF80F30184605B05DF804FB0044025814
:10FF14000700FFFF00B585B00190009100238DF824
:10FF24000F30534B9B6A03F00303032B01D10123CE
:10FF34009AE04F4B1B684E4A23F080531360FDF741
:10FF4400FDFB029008E0FDF7F9FB0246029BD31A81
:10FF5400022B01D9032387E0454B1B6803F00053B0
:10FF6400002BF0D1424B9B6A23F07C72019B1B68EF
:10FF74001B053F4913438B62019B5B68013BC3F341
:10FF84000802019B9B68013B5B029BB21A43019BE5
:10FF9400DB68013B1B0403F4FE031A43019B1B694A
:10FFA400013B1B0603F0FE43314913430B64304B02
:10FFB400DB6A23F44062019B5B692D491343CB62E6
:10FFC4002B4BDB6A23F40072019B9B692849134382
:10FFD400CB62274BDB6A264A23F48073D362244B1B
:10FFE4005A6C244B1340019AD269D200204913431E
:0CFFF4004B641F4BDB6A1E4A43F4807311
:020000040801F1
:10000000D362009B002B06D11A4BDB6A194A43F4DA
:100010008003D3620FE0009B012B06D1154BDB6AF6
:10002000144A43F40003D36205E0124BDB6A114A21
:1000300043F08073D3620F4B1B680E4A43F080532A
:100040001360FDF77DFB029008E0FDF779FB0246A7
:10005000029BD31A022B01D9032307E0054B1B682F
:1000600003F00053002BF0D09DF80F30184605B078
:100070005DF804FB004402580700FFFF00B58BB099
:100080000190019B002B01D1012376E0019B93F8A5
:100090003030DBB2002B05D1019B00221A7601988B
:1000A00004F04AFC019B032283F83020019800F001
:1000B00068F80346002B01D001235EE002AB19462D
:1000C000019800F0D7FC0346002B01D0012354E037
:1000D0009DF81830DBB209939DF81930DBB2089314
:1000E000019B9B6B012B0AD1099B002B02D1089B22
:1000F000002B04D0019B4FF400729A650BE0019B2A
:100100009B6B012B04D1019B4FF480729A6502E036
:10011000019B00229A65019BDB681946019800F05B
:100120003FFD0346002B01D0012326E0FDF708FB2D
:10013000079011E0FDF704FB0246079BD31AB3F1C9
:10014000FF3F09D1019B4FF000425A63019B0122FE
:1001500083F83020032310E0019800F0ADFD034642
:10016000042BE7D1019B00225A63019B0022DA6233
:10017000019B012283F83020002318460BB05DF864
:1001800004FB10B58CB00390002305930023069365
:100190000023079300230893FA230993039B1C6809
:1001A0006A4608AB93E8030082E8030005AB0ECB78
:1001B000204603F045FE03468DF82F309DF82F3082
:1001C000002B01D0012334E0039B1B68184603F089
:1001D0006FFE03468DF82F309DF82F30002B01D095
:1001E000012326E0039800F043FE0A900A9B002BAF
:1001F0000BD0039B012283F83020039B5A6B0A9B90
:100200001A43039B5A63012313E0039800F072FD25
:100210000A900A9B002B0BD0039B012283F830200D
:10022000039B5A6B0A9B1A43039B5A63012300E00A
:10023000002318460CB010BD00B58DB0039002919C
:1002400001920093019B0A93029B002B07D1039B11
:100250005B6B43F00062039B5A630123ACE0039B9A
:1002600093F83030DBB2012B40F0A580039B0022D5
:100270005A630A9A009B1A44039B1B6D9A4207D942
:10028000039B5B6B43F00072039B5A63012393E073
:10029000039B032283F83020039B1B680022DA6251
:1002A000039B029A5A62009B5A02039B9A62039B29
:1002B0009B6B012B02D00A9B5B020A93039B1B687A
:1002C0004FF40071184603F070FE0B900B9B002B4F
:1002D0000FD0039B1B683A4A9A63039B5A6B0B9B94
:1002E0001A43039B5A63039B012283F830200123A6
:1002F00062E04FF0FF330493009B5B020593902371
:100300000693022307930023089300230993039B7A
:100310001B6804AA1146184603F020FE039B1B68C5
:10032000DA6B039B1B6842F49572DA63039B1B68CC
:10033000DA68039B1B6842F04002DA60039B1B688B
:10034000029A9A65039B1B6801221A65009B012B88
:100350000AD9039B8222DA62039B1B680A9918461A
:1003600003F065FE0B9009E0039B8122DA62039B98
:100370001B680A99184603F039FE0B900B9B002B63
:1003800017D0039B1B680E4A9A63039B1B68DA6BAA
:10039000039B1B6822F49572DA63039B5A6B0B9BD9
:1003A0001A43039B5A63039B012283F830200123E5
:1003B00002E0002300E0022318460DB05DF804FBC4
:1003C000FF0FE01F00B585B00190019BDB6A03932E
:1003D000019B1B685B6B03F48073002B00F0A6800D
:1003E000019B1B684FF480729A63019B1B68D96B59
:1003F000019B1A68A04B0B40D363019B1B68DA6B0F
:10040000019B1B6822F08052DA63019B1B68DA684B
:10041000019B1B6822F04002DA60039B03F0080393
:10042000002B35D0039B03F00203002B04D1039B68
:1004300003F02003002B11D0019B1B68184603F02A
:1004400017FE0290029B002B08D0019B5A6B029B67
:100450001A43019B5A63019800F067F9019B1B68DE
:10046000864A9A63019B012283F83020039B03F0A4
:100470000103002B04D1039B03F00203002B03D0E4
:100480000198F4F781FF46E1019800F049F942E153
:10049000039B03F08003002B00F03D81019B1B6850
:1004A00000229A62019B1B680022DA62019B1B6892
:1004B00000221A65039B03F00203002B04D1039B67
:1004C00003F02003002B11D0019B1B68184603F09A
:1004D000CFFD0290029B002B08D0019B5A6B029B20
:1004E0001A43019B5A63019800F01FF9019B0122F6
:1004F00083F83020039B03F01003002B04D1039BEF
:1005000003F02003002B02D0019800F009F9039BAF
:1005100003F00103002B05D1039B03F00203002B22
:1005200000F0F9800198F4F72FFFF4E0019B1B68BD
:100530005B6B03F48043002B08D0039B03F008039C
:10054000002B03D0019800F0AEFFE4E0019B1B6894
:100550005B6B03F40043002B08D0039B03F00803FC
:10056000002B03D0019800F063FFD4E0019B1B68CF
:100570005B6B03F03A03002B00F09F80019B1B682C
:100580005B6B03F00203002B05D0019B5B6B43F018
:100590000202019B5A63019B1B685B6B03F008031B
:1005A000002B05D0019B5B6B43F00802019B5A6353
:1005B000019B1B685B6B03F02003002B05D0019BA4
:1005C0005B6B43F02002019B5A63019B1B685B6BD2
:1005D00003F01003002B05D0019B5B6B43F010026E
:1005E000019B5A63019B1B68244A9A63019B1B6809
:1005F000DA6B019B1B6822F49D72DA63019B1B6816
:10060000DA68019B1B6822F04002DA60019B1B68DC
:10061000DA6A019B1B6842F40052DA62019B1B6894
:10062000DA68019B1B6842F08002DA60019B1B685C
:10063000184603F01DFD0246019B5B6B1A43019BAC
:100640005A63019B1B68DA68019B1B6822F08002D9
:10065000DA60019B1B684FF400629A63039B03F00E
:100660000803002B0CD0019B012283F83020019855
:1006700000F05BF84FE000BFC53EFFFF3A0F0018E7
:10068000039B03F08003002B45D0019B5B6B002B89
:1006900041D0019B1B68DA6B019B1B6822F08052E2
:1006A000DA63019B1B6800221A65019B012283F813
:1006B0003020019800F039F82DE0019B1B685B6B3E
:1006C00003F08053002B26D0019B1B681B6D03F0A9
:1006D0000403002B0DD1019BDB6A03F02003002BE8
:1006E00003D0019800F02CFF0FE0019800F01EFFEE
:1006F0000BE0039B03F02003002B03D0019800F0D4
:100700001AFF02E0019800F00CFF019B1B684FF0FC
:1007100080529A63FFE700BF05B05DF804FB00BF9D
:1007200082B0019000BF02B0704782B0019000BF5C
:1007300002B0704782B001900091019BDB6D9B0F6E
:10074000DAB2009B1A70019BDB6D9B0EDBB203F0EB
:100750000F03DAB2009B5A70019BDB6D1B0EDBB2FC
:1007600003F00303DAB2009B9A70019BDB6D1B0C54
:10077000DAB2009BDA70019BDB6D1B0ADAB2009BD8
:100780001A71019BDB6DDAB2009B5A71019B1B6EE3
:100790001B0D9AB2009BDA80019B1B6E1B0CDBB217
:1007A00003F00F03DAB2009B1A72019B1B6EDB0B86
:1007B000DBB203F00103DAB2009B5A72019B1B6E9D
:1007C0009B0BDBB203F00103DAB2009B9A72019B30
:1007D0001B6E5B0BDBB203F00103DAB2009BDA7233
:1007E000019B1B6E1B0BDBB203F00103DAB2009B13
:1007F0001A73009B00225A73019B9B6B002B63D1E1
:10080000019B1B6E9A0040F6FC731340019A526ED6
:10081000920F1A43009B1A61019B5B6EDB0EDBB2E9
:1008200003F00703DAB2009B1A75019B5B6E1B0E87
:10083000DBB203F00703DAB2009B5A75019B5B6ED3
:100840005B0DDBB203F00703DAB2009B9A75019BE4
:100850005B6E9B0CDBB203F00703DAB2009BDA7528
:10086000019B5B6EDB0BDBB203F00703DAB2009B8C
:100870001A76009B1B695A1C019B9A64009B1B7E85
:10088000DBB203F007030233012202FA03F3019AF9
:10089000926C02FB03F2019B9A64009B1B7ADBB211
:1008A00003F00F0301229A40019BDA64019B9B6CC9
:1008B000019AD26C520A02FB03F2019B1A65019B5A
:1008C0004FF400725A6531E0019B9B6B012B1DD1E7
:1008D000019B1B6E1B0403F47C12019B5B6E1B0CC3
:1008E0001A43009B1A61009B1B6901339A02019B0A
:1008F0009A64019B9A6C019B1A65019B4FF40072EC
:10090000DA64019BDA6C019B5A650FE0019B1B685E
:10091000574A9A63019B5B6B43F08052019B5A6379
:10092000019B012283F8302001239DE0019B5B6E37
:100930009B0BDBB203F00103DAB2009B5A76019BFA
:100940005B6EDB09DBB203F07F03DAB2009B9A76C1
:10095000019B5B6EDBB203F07F03DAB2009BDA76B9
:10096000019B9B6EDB0FDAB2009B1A77019B9B6E9B
:100970005B0FDBB203F00303DAB2009B5A77019BF3
:100980009B6E9B0EDBB203F00703DAB2009B9A77F3
:10099000019B9B6E9B0DDBB203F00F03DAB2009B51
:1009A000DA77019B9B6E5B0DDBB203F00103DAB2D9
:1009B000009B83F82020009B002283F82120019BCC
:1009C0009B6E1B0CDBB203F00103DAB2009B83F8D1
:1009D0002220019B9B6EDB0BDBB203F00103DAB23A
:1009E000009B83F82320019B9B6E9B0BDBB203F0E3
:1009F0000103DAB2009B83F82420019B9B6E5B0B02
:100A0000DBB203F00103DAB2009B83F82520019BDF
:100A10009B6E1B0BDBB203F00103DAB2009B83F881
:100A20002620019B9B6E9B0ADBB203F00303DAB224
:100A3000009B83F82720019B9B6E1B0ADBB203F00F
:100A40000303DAB2009B83F82820019B9B6E5B08AE
:100A5000DBB203F07F03DAB2009B83F82920009B0E
:100A6000012283F82A200023184602B0704700BFF5
:100A7000FF0FE01F00B595B00190009103AB194640
:100A8000019800F07FFA1390139B002B0FD0019B6D
:100A90001B68424A9A63019B5A6B139B1A43019B42
:100AA0005A63019B012283F83020012371E0039BEC
:100AB0009B09DBB203F00303DAB2009B1A70039BBD
:100AC0005B09DBB203F00103DAB2009B5A70039BAF
:100AD0001B0A9BB223F0FF039AB2039B1B0E9BB22F
:100AE00013439AB2009B5A80049B1A06049B1B0274
:100AF00003F47F031A43049B1B0A03F47F431A4346
:100B0000049B1B0E1A43009B5A60059BDAB2009BA4
:100B10001A72059B1B0ADAB2009B5A72059B1B0DC9
:100B2000DBB203F00F03DAB2009B9A72059B1B0C39
:100B30009BB223F0FF039AB2069B9BB2DBB29BB23F
:100B400013439AB2009B9A81069B9B0ADBB203F087
:100B50003F03DAB2009B9A73069B1B0ADBB203F0D9
:100B60000303DAB2009BDA73069B1B09DBB203F0C6
:100B70000F03DAB2009B1A74069BDBB203F00F037B
:100B8000DAB2009B5A74079B1B0EDAB2009B9A7470
:100B90000023184615B05DF804FB00BFFF0FE01FEF
:100BA00010B58AB003900291039B032283F8302092
:100BB000039B9B6B032B2ED0029BB3F5004F06D1FA
:100BC000039B5B6B43F08052039B5A6329E0029BBB
:100BD000B3F5804F0AD1039800F0C9FA0990039B3E
:100BE0005A6B099B1A43039B5A631AE0029B002B22
:100BF0000AD1039800F004FB0990039B5A6B099BF0
:100C00001A43039B5A630CE0039B5B6B43F0006247
:100C1000039B5A6305E0039B5B6B43F08052039B8D
:100C20005A63039B5B6B002B09D0039B1B68214A13
:100C30009A63039B012283F83020012337E0039B52
:100C40005B680493039B9B680593029B0693039B3D
:100C50001B690793039B5B69032B03D9039B5B69A8
:100C6000089312E0039B9B6DB3F5007F03D1039BB8
:100C70005B69089309E0039B9B6DB3F5807F02D10C
:100C80000223089301E004230893039B1C686A462F
:100C900007AB93E8030082E8030004AB0ECB2046C9
:100CA00003F0CEF8039B012283F83020002318467E
:100CB0000AB010BDFF0FE01F00B587B00190002300
:100CC000039303AB1946019800F02AFA0590059B9F
:100CD000002B05D0019B5A6B059B1A43019B5A635D
:100CE000039B5B0A03F00F030493049B184607B0B1
:100CF0005DF804FB10B590B001900123ADF80E3003
:100D0000019B1B68184603F0E4F80346002B02D150
:100D10004FF08063A8E0019B9B6B032B2ED0019BBF
:100D20001B68184603F0B4FA0F900F9B002B01D0FC
:100D30000F9B99E0019B1B680021184603F000F906
:100D40000246019BDA66019B1B680421184603F0EA
:100D5000F7F80246019B1A67019B1B680821184699
:100D600003F0EEF80246019B5A67019B1B680C21B9
:100D7000184603F0E5F80246019B9A67019B9B6BBE
:100D8000032B0DD0019B1B680DF10E021146184676
:100D900003F0B9FA0F900F9B002B01D00F9B63E07B
:100DA000019B9B6B032B37D0BDF80E301A46019B7D
:100DB0005A64019B1A68019B5B6C1B041946104620
:100DC00003F083FA0F900F9B002B01D00F9B4BE099
:100DD000019B1B680021184603F0B2F80246019BF4
:100DE000DA65019B1B680421184603F0A9F8024646
:100DF000019B1A66019B1B680821184603F0A0F8A6
:100E00000246019B5A66019B1B680C21184603F0A1
:100E100097F80246019B9A66019B1B6804211846BD
:100E200003F08EF803461A0D019B1A6404AB1946B1
:100E30000198FFF77FFC0346002B02D04FF0805350
:100E400012E0019B1968019B5B6C1B044FF00004CE
:100E50001A462346084603F03FF90F900F9B002BDC
:100E600001D00F9B00E00023184610B010BD000019
:100E700000B587B00190002302930023059300235F
:100E80000493019B1B68184603F048F90390039BE9
:100E9000002B01D0039B6EE0019B1B68184603F0FA
:100EA00059F90390039B002B0DD0019B0022DA63BC
:100EB000019B1B68184603F031F90390039B002B3C
:100EC00004D0039B57E0019B0122DA63019BDB6B9B
:100ED000012B37D1019B1B680021184603F058F9FC
:100EE0000390039B002B2DD04FF0805343E0019BD8
:100EF0001B680021184603F04BF90390039B002B5D
:100F000001D0039B37E0019B1B681D49184603F085
:100F100060F90390039B002B02D04FF080532AE02E
:100F2000019B1B680021184603F00AF80590059BF9
:100F3000DB0F012B01D1012300E000230493029B6E
:100F400001330293029B4FF6FE72934202D8049B38
:100F5000002BCCD0029B4FF6FE72934202D94FF089
:100F6000807308E0059B03F08043002B02D0019BB7
:100F700001229A630023184607B05DF804FB00BF06
:100F8000000010C100B58DB001900091FCF7D8FBB6
:100F90000990009B0A93019B1B680021184602F0F0
:100FA000CFFF034603F00073B3F1007F02D14FF48B
:100FB0000063AFE0019B1B684021184602F0F5FF7B
:100FC0000890089B002B05D0019B5A6B019B5A632C
:100FD000089B9FE0019B1A68019B5B6C1B041946F0
:100FE000104603F0D5F80890089B002B05D0019B14
:100FF0005A6B019B5A63089B8CE04FF0FF330293BE
:101000004023039360230493022305930023069354
:1010100001230793019B1B6802AA1146184602F0A0
:101020009DFF019B1B68184603F0AEF90890089BD2
:10103000002B2BD0019B5A6B019B5A63089B69E0E4
:10104000019B1B685B6B03F40043002B13D0002350
:101050000B930DE0019B1B68184602F015FF02463A
:101060000A9B1A600A9B04330A930B9B01330B9370
:101070000B9B072BEED9FCF763FB0246099BD31AA7
:10108000B3F1FF3F02D14FF0004343E0019B1B68E7
:101090005B6B03F49573002BD2D0019B1B685B6BD9
:1010A00003F00803002B01D0082333E0019B1B68E9
:1010B0005B6B03F00203002B01D002232AE0019BAB
:1010C0001B685B6B03F02003002B17D0202321E06B
:1010D000019B1B68184602F0D7FE02460A9B1A6065
:1010E0000A9B04330A93FCF72BFB0246099BD31A95
:1010F000B3F1FF3F02D14FF000430BE0019B1B68AF
:101100005B6B03F48053002BE2D1019B1B68034A05
:101110009A63002318460DB05DF804FB3A0F0018DF
:1011200000B585B001900091009B002B02D14FF0DB
:10113000006318E0019B1A68019B5B6C1B04194655
:10114000104603F000F90390039B002B01D0039B92
:1011500009E0019B1B680021184602F0F1FE0246DF
:10116000009B1A600023184605B05DF804FB00B52B
:1011700087B001900023039300230493019B1B6815
:101180000021184602F0DCFE034603F00073B3F1C1
:10119000007F02D14FF400632EE003AB19460198A3
:1011A00000F078F80590059B002B01D0059B23E00B
:1011B000049B03F48023002B1CD0019B1A68019B25
:1011C0005B6C1B041946104602F0E2FF0590059B7C
:1011D000002B01D0059B0FE0019B1B6802211846E4
:1011E00003F015F80590059B002B01D0059B03E04B
:1011F000002301E04FF08063184607B05DF804FB60
:1012000000B587B001900023039300230493019B52
:101210001B680021184602F093FE034603F000739A
:10122000B3F1007F02D14FF400632EE003AB194607
:10123000019800F02FF80590059B002B01D0059B2D
:1012400023E0049B03F48033002B1CD0019B1A681D
:10125000019B5B6C1B041946104602F099FF059038
:10126000059B002B01D0059B0FE0019B1B68002113
:10127000184602F0CCFF0590059B002B01D0059B82
:1012800003E0002301E04FF08063184607B05DF8EB
:1012900004FB000000B58FB001900091FCF750FAFC
:1012A0000C9000230D930023029300230393009BD3
:1012B0000B93019B1B680821184602F076FE0A90EA
:1012C0000A9B002B01D00A9BACE0019B1A68019B92
:1012D0005B6C1B041946104602F05AFF0A900A9BE9
:1012E000002B01D00A9B9DE04FF0FF3304930823AD
:1012F00005933023069302230793002308930123C9
:101300000993019B1B6804AA1146184602F026FEA9
:10131000019B1B68184602F09BFF0A900A9B002B5A
:1013200027D00A9B7EE0019B1B685B6B03F40023C4
:10133000002B13D10D9B002B10D1019B1B6818466D
:1013400002F0A2FD03460293019B1B68184602F0BF
:101350009BFD034603930D9B01330D93FCF7F0F9BE
:1013600002460C9BD31AB3F1FF3F02D14FF000436A
:1013700058E0019B1B685A6B40F22A531340002B24
:10138000D1D0019B1B685B6B03F00803002B05D0D9
:10139000019B1B6808229A63082343E0019B1B689A
:1013A0005B6B03F00203002B05D0019B1B6802223C
:1013B0009A63022336E0019B1B685B6B03F02003FA
:1013C000002B05D0019B1B6820229A63202329E073
:1013D000019B1B68154A9A63039B1A06039B1B0219
:1013E00003F47F031A43039B1B0A03F47F431A434E
:1013F000039B1B0E1A430B9B1A600B9B04330B932E
:10140000029B1A06029B1B0203F47F031A43029BF2
:101410001B0A03F47F431A43029B1B0E1A430B9BC8
:101420001A60002318460FB05DF804FB3A0F00184D
:1014300000B587B00190019B5B6A0493002305937C
:1014400027E0019B1B68184602F01EFD0390039BDA
:10145000DAB2049B1A70049B01330493039B1B0AAA
:10146000DAB2049B1A70049B01330493039B1B0C98
:10147000DAB2049B1A70049B01330493039B1B0E86
:10148000DAB2049B1A70049B01330493059B013369
:101490000593059B072BD4D9019B049A5A6200BF80
:1014A00007B05DF804FB00B587B00190019BDB69D4
:1014B0000493002305932AE0049B1B780393049B69
:1014C00001330493049B1B781A02039B1343039379
:1014D000049B01330493049B1B781A04039B13435E
:1014E0000393049B01330493049B1B781A06039B0C
:1014F00013430393049B01330493019B1B6803AACA
:101500001146184602F0C8FC059B01330593059B64
:10151000072BD1D9019B049ADA6100BF07B05DF8AF
:1015200004FB82B0019000BF02B0704782B001900E
:1015300000BF02B0704782B0019000BF02B0704798
:1015400082B0019000BF02B07047000000B585B0C6
:10155000019000230393019B002B01D10123E2E0C2
:10156000019B00229A62019B1B68714A93420FD033
:10157000019B1B686F4A93420AD0019B1B686E4A0D
:10158000934205D0019BDB680F2B01D90123CAE0F0
:10159000019801F0F6FB0290019B1B68644A93429C
:1015A0000CD0019B1B68634A934207D0019B1B68C8
:1015B000614A934202D0029B082B11D8019B1B6801
:1015C0005B4A934209D0019B1B685A4A934204D05C
:1015D000019B1B68584A934204D1029B102B01D9EE
:1015E0000123A0E0019B93F88130DBB2002B06D1F0
:1015F000019B002283F88020019803F00DFA019BE3
:10160000022283F88120019B1B681A68019B1B68DA
:1016100022F001021A60019B9B69B3F1806F10D127
:10162000019B5B68B3F5800F0BD1019B9B6B002B7B
:1016300007D1019B1B681A68019B1B6842F480520A
:101640001A60019BDA69019B9B6A1A43039B1A4348
:10165000019BDB6B42EA0301019BDA68019B1B687B
:101660000A439A60019B5A6B019B5B6A1A43019B78
:101670009B6B1A43019B9B691A43019B1B691A438D
:10168000019B5B691A43019B1B6A1A43019B5B68C0
:101690001A43019BDB6C1A43019B9B681A43019B15
:1016A0009B6C42EA0301019B9A6D019B1B680A43F4
:1016B000DA60019B5B68002B13D1019B1B689B6860
:1016C00023F4C052019B1B6842F400629A60019BA4
:1016D0001B689B6823F4C062019B1B6842F4806214
:1016E0009A60019B1B681A6D019B1B6822F0010226
:1016F0001A65019B5B6803F48003002B0AD0019BF1
:101700001B68DB6823F00041019B5A6D019B1B683D
:101710000A43DA60019B0022C3F88420019B012266
:1017200083F881200023184605B05DF804FB00BF54
:101730000030014000380040003C004000B589B056
:101740000590049102931346ADF80E3000238DF8F6
:101750001F30059B93F88030012B01D10223E3E178
:10176000059B012283F88020FBF7EAFF0690059B8A
:1017700093F88130DBB2012B09D002238DF81F30A2
:10178000059B002283F880209DF81F30CCE1049B4C
:10179000002B03D0BDF80E30002B09D101238DF8AA
:1017A0001F30059B002283F880209DF81F30BBE18D
:1017B000059B032283F88120059B0022C3F8842027
:1017C000059B049ADA65059BBDF80E20A3F86020FE
:1017D000059BBDF80E20A3F86220059B00225A66E7
:1017E000059B0022A3F86820059B0022A3F86A202D
:1017F000059B00225A67059B00221A67059B9B6880
:10180000B3F5C02F07D1059B1B681A68059B1B68A1
:1018100042F400621A60059B1B685A68984B13409B
:10182000BDF80E10059A12680B435360059B1B68A8
:101830001A68059B1B6842F001021A60059B5B68F1
:10184000B3F5800F07D1059B1B681A68059B1B68C1
:1018500042F400721A60059BDB680F2B47D93FE00A
:10186000059B1B685B6903F00203022B14D1059BE7
:10187000DA6D059B1B6812681A62059BDB6D1A1DE9
:10188000059BDA65059BB3F862309BB2013B9AB2C7
:10189000059BA3F8622023E0FBF752FF0246069B5C
:1018A000D31A029A9A4203D8029BB3F1FF3F02D1A6
:1018B000029B002B14D1059801F098F9059B00229A
:1018C00083F88020059BD3F8843043F48072059B15
:1018D000C3F88420059B012283F88120012323E1A2
:1018E000059BB3F862309BB2002BB9D1F5E0059BA4
:1018F000DB68072B40F2EA805FE0059B1B685B69B1
:1019000003F00203022B34D1059BB3F862309BB283
:10191000012B18D9059BDB6B002B14D0059BDA6DCE
:10192000059B1B6812681A62059BDB6D1A1D059BDF
:10193000DA65059BB3F862309BB2023B9AB2059B15
:10194000A3F8622039E0059BDA6D059B1B68203304
:1019500012881A80059BDB6D9A1C059BDA65059B36
:10196000B3F862309BB2013B9AB2059BA3F86220A8
:1019700023E0FBF7E5FE0246069BD31A029A9A4241
:1019800003D8029BB3F1FF3F02D1029B002B14D17D
:10199000059801F02BF9059B002283F88020059B18
:1019A000D3F8843043F48072059BC3F88420059BF0
:1019B000012283F881200123B6E0059BB3F8623051
:1019C0009BB2002B99D188E0059B1B685B6903F0F3
:1019D0000203022B56D1059BB3F862309BB2032B56
:1019E00018D9059BDB6B402B14D9059BDA6D059B41
:1019F0001B6812681A62059BDB6D1A1D059BDA6570
:101A0000059BB3F862309BB2043B9AB2059BA3F8E6
:101A100062205BE0059BB3F862309BB2012B19D9C1
:101A2000059BDB6B002B15D0059BDA6D059B1B68B6
:101A3000203312881A80059BDB6D9A1C059BDA65A2
:101A4000059BB3F862309BB2023B9AB2059BA3F8A8
:101A500062203BE0059BDA6D059B1B682033127802
:101A60001A70059BDB6D5A1C059BDA65059BB3F864
:101A700062309BB2013B9AB2059BA3F8622025E03D
:101A80000000FFFFFBF75CFE0246069BD31A029A9A
:101A90009A4203D8029BB3F1FF3F02D1029B002B75
:101AA00014D1059801F0A2F8059B002283F880204C
:101AB000059BD3F8843043F48072059BC3F88420DF
:101AC000059B012283F8812001232DE0059BB3F8BB
:101AD00062309BB2002B7FF477AF029B0093069B92
:101AE00000220821059801F01DF90346002B07D0BC
:101AF000059BD3F8843043F02002059BC3F8842073
:101B0000059801F073F8059B002283F88020059B5F
:101B1000012283F88120059BD3F88430002B01D06B
:101B2000012301E09DF81F30184609B05DF804FB61
:101B300000B589B00590049102931346ADF80E30BC
:101B400000238DF81F30059B5B68B3F5800F13D120
:101B5000059B9B68002B0FD1059B042283F88120F5
:101B6000BDF80E20029B00931346049A0499059831
:101B700000F0DEF90346D6E1059B93F88030012B97
:101B800001D10223CFE1059B012283F88020FBF7DE
:101B9000D7FD0690059B93F88130DBB2012B09D06D
:101BA00002238DF81F30059B002283F880209DF8CA
:101BB0001F30B8E1049B002B03D0BDF80E30002B82
:101BC00009D101238DF81F30059B002283F8802066
:101BD0009DF81F30A7E1059B042283F88120059B17
:101BE0000022C3F88420059B049A5A66059BBDF821
:101BF0000E20A3F86820059BBDF80E20A3F86A20EC
